:100000000C9434000C943E000C943E000C943E0082
:100010000C943E000C943E000C943E000C943E0068
:100020000C943E000C943E000C943E000C943E0058
:100030000C943E000C943E000C943E000C943E0048
:100040000C943E000C943E000C943E000C943E0038
:100050000C943E000C943E000C943E000C943E0028
:100060000C943E000C943E0011241FBECFEFD8E04C
:10007000DEBFCDBF0E9440000C94CB000C9400006A
:100080008FEF84B915B817B888B1836088B931E2A9
:1000900042E18CE09FE32EE130993DC035B95FEF3E
:1000A00064E37CE0515060407040E1F700C0000024
:1000B00045B95FEF64E37CE0515060407040E1F788
:1000C00000C0000085B95FEF64E37CE05150604000
:1000D0007040E1F700C0000085B95FEF64E37CE0A9
:1000E000515060407040E1F700C0000045B95FEF3B
:1000F00064E37CE0515060407040E1F700C00000D4
:1001000035B95FEF64E37CE0515060407040E1F747
:1001100000C0000015B83199BFCF95B95FEF64E317
:100120007CE0515060407040E1F700C0000025B90C
:100130005FEF64E37CE0515060407040E1F700C045
:10014000000085B95FEF64E37CE05150604070408F
:10015000E1F700C0000085B95FEF64E37CE0515037
:1001600060407040E1F700C0000025B95FEF64E334
:100170007CE0515060407040E1F700C0000095B94C
:100180005FEF64E37CE0515060407040E1F700C0F5
:0A019000000015B881CFF894FFCFEE
:00000001FF
