:100000000C9462000C947F000C947F000C947F0091
:100010000C947F000C947F000C947F000C947F0064
:100020000C947F000C947F000C947F000C947F0054
:100030000C947F000C947F000C947F000C947F0044
:100040000C9400030C947F000C947F000C947F00B0
:100050000C947F000C947F000C947F000C947F0024
:100060000C947F000C947F00000000002400270007
:100070002A0000000000250028002B0000000000DE
:1000800023002600290004040404040404040202DA
:100090000202020203030303030301020408102007
:1000A0004080010204081020010204081020000012
:1000B0000008000201000003040700000000000027
:1000C0000000E80311241FBECFEFD8E0DEBFCDBF94
:1000D00021E0A0E0B1E001C01D92A332B207E1F738
:1000E00010E0C2E6D0E004C02197FE010E94540453
:1000F000C136D107C9F70E944A030C9490040C94AE
:100100000000833081F028F4813099F08230A9F02A
:1001100008958730A9F08830C9F08430B1F4809117
:1001200080008F7D03C0809180008F778093800056
:10013000089584B58F7784BD089584B58F7DFBCFF6
:100140008091B0008F778093B00008958091B000C7
:100150008F7DF9CFCF93DF93282F30E0F901E2555F
:10016000FF4F8491F901E656FF4FD491F901EA5708
:10017000FF4FC491CC23A1F081110E948100EC2F8C
:10018000F0E0EE0FFF1FE458FF4FA591B491EC9102
:10019000ED2381E090E009F480E0DF91CF910895B4
:1001A00080E090E0FACF1F93CF93DF93282F30E0C9
:1001B000F901E255FF4F8491F901E656FF4FD491C2
:1001C000F901EA57FF4FC491CC23A9F0162F8111F2
:1001D0000E948100EC2FF0E0EE0FFF1FEE58FF4F62
:1001E000A591B4918FB7F894EC91111108C0D095F6
:1001F000DE23DC938FBFDF91CF911F910895DE2B1B
:10020000F8CFCF93DF93EC0180911101909112010F
:10021000029749F4C130D10509F43BC06CF560E0A8
:10022000209709F437C08091110190911201049731
:1002300049F4C130D10509F45CC00CF037C02097F7
:1002400009F442C08091110190911201059709F0C3
:10025000E5C0CA30D10508F0E1C0FE01EE5CFE4FFA
:100260000C94540491019D01AE01C401DF01E10130
:10027000E801F40105020C02C230D105A9F060E0EA
:10028000C330D10581F6809115010E94D30060E052
:1002900006C061E0809115010E94D30061E0809169
:1002A00017010E94D300BFCF61E0EDCFC230D1056E
:1002B00039F1C330D10509F0C5CF61E08091150156
:1002C0000E94D30060E022C061E0809115010E948D
:1002D000D30060E0809117010E94D30061E080911B
:1002E00019010E94D30060E080911B010E94D3009D
:1002F000A9CF60E0809115010E94D30061E0EACFB0
:1003000060E0809115010E94D30061E080911701A7
:100310000E94D30060E0809119010E94D30061E047
:10032000E3CF60E0809115010E94D30061E08091ED
:1003300017010E94D30061E00BC060E080911501BD
:100340000E94D30061E0809117010E94D30060E019
:10035000809119010E94D30060E010C060E080919C
:1003600015010E94D30061E0809117010E94D30023
:1003700060E0809119010E94D30061E080911B012F
:100380000E94D30061E015C060E0809115010E94D9
:10039000D30061E0809117010E94D30060E080915A
:1003A00019010E94D30061E080911B010E94D300DB
:1003B00060E080911D01DF91CF910C94D30061E04A
:1003C000E4CF61E0809115010E94D30060E0E2CFAC
:1003D00061E0809115010E94D30060E080911701D7
:1003E0000E94D30061E0DBCF61E0809115010E94A3
:1003F000D30060E0809117010E94D30061E08091FA
:1004000019010E94D30060E0CFCF61E08091150117
:100410000E94D30060E08BCF60E0F8CFDF91CF91F6
:1004200008958F929F92AF92BF92EF92FF920F9397
:100430001F93CF93DF93EC0197FF04C0CC27DD27F8
:10044000C81BD90B181619060CF082C081E090E089
:1004500090930A018093090104E010E05AE0E52E30
:10046000F12C209709F490C03FB7F89480910501D2
:1004700090910601A0910701B091080126B5A89BB3
:1004800005C02F3F19F00196A11DB11D3FBFBA2F26
:10049000A92F982F8827820F911DA11DB11D42E021
:1004A000880F991FAA1FBB1F4A95D1F740911F01C2
:1004B0005091200160912101709122014C015D0158
:1004C000841A950AA60AB70A40910B0150910C01B3
:1004D00060910D0170910E0184169506A606B7066F
:1004E00008F4BFCF80931F0190932001A0932101B6
:1004F000B093220180911301909114012091090180
:1005000030910A012130310559F50196909314017B
:100510008093130120910F013091100182179307EE
:1005200021F410921401109213012197809113016C
:10053000909114012091110130911201B7012530E1
:10054000310509F0B8010E9421040E94010189CF00
:10055000892B09F481CF10920A01109209017CCFF6
:10056000892B41F480910F01909110019093140117
:10057000809313018091130190911401019790933E
:10058000140180931301D1CFDF91CF911F910F916F
:10059000FF90EF90BF90AF909F908F900895CF9372
:1005A000DF9390E0FC01E656FF4F24918A579F4F5E
:1005B000FC0184918823D1F090E0880F991FFC0101
:1005C000E859FF4FA591B491FC01EE58FF4FC5913A
:1005D000D491623071F49FB7F8943C91822F80954A
:1005E00083238C93E8812E2B28839FBFDF91CF91AB
:1005F00008958FB7F894EC912E2B2C938FBFF6CFE4
:100600001F920F920FB60F9211242F933F938F9347
:100610009F93AF93BF938091010190910201A091AC
:100620000301B09104013091000123E0230F2D3725
:1006300058F50196A11DB11D209300018093010181
:1006400090930201A0930301B093040180910501EE
:1006500090910601A0910701B09108010196A11D9A
:10066000B11D8093050190930601A0930701B093FB
:100670000801BF91AF919F918F913F912F910F9062
:100680000FBE0F901F90189526E8230F0296A11D0C
:10069000B11DD2CF789484B5826084BD84B5816069
:1006A00084BD85B5826085BD85B5816085BD80913D
:1006B0006E00816080936E001092810080918100B5
:1006C00082608093810080918100816080938100AD
:1006D000809180008160809380008091B10084606F
:1006E0008093B1008091B00081608093B0008091D0
:1006F0007A00846080937A0080917A00826080938F
:100700007A0080917A00816080937A0080917A00EB
:10071000806880937A001092C10062E082E00E94BB
:10072000CF0262E083E00E94CF0261E088E00E9495
:10073000CF02C12C87E8D82E83E9E82E83E0F82E7B
:1007400094E6492E512C612C712C00E010E083E0DE
:100750000E94AA00EC0182E00E94AA005C0160E015
:1007600088E00E94D300AB2821F5209741F561E095
:1007700088E00E94D3008AE090E00E94110220915C
:100780000F0130911001032E000C440B550BC701D3
:10079000B6010E943504CA01B901A30192010E9469
:1007A000350420930B0130930C0140930D015093BD
:1007B0000E010115110559F20E940000C8CF2197C2
:1007C000C1F761E088E00E94D30086EF9FEFD5CFAC
:1007D000CF93DF93C9E0D1E01B861A861982188275
:1007E0001E8A1F8A188E198E88EC90E09F838E8354
:1007F0008AE090E09D878C878BE090E09F878E87D2
:100800008CE090E0998B888B8DE090E09B8B8A8BBD
:1008100061E08AE00E94CF0261E08E850E94CF02F3
:1008200061E088890E94CF0261E08A890E94CF023C
:100830001D8A1C8A84E090E099878887DF91CF9198
:10084000089597FB072E16F4009407D077FD09D082
:100850000E945A0407FC05D03EF4909581959F4F65
:100860000895709561957F4F0895052E97FB1EF4AE
:1008700000940E944C0457FD07D00E946E0407FCB0
:1008800003D04EF40C944C0450954095309521952E
:100890003F4F4F4F5F4F08959095809570956195AC
:1008A0007F4F8F4F9F4F0895EE0FFF1F0590F491DC
:1008B000E02D0994AA1BBB1B51E107C0AA1FBB1F57
:1008C000A617B70710F0A61BB70B881F991F5A95DC
:1008D000A9F780959095BC01CD010895A1E21A2E4B
:1008E000AA1BBB1BFD010DC0AA1FBB1FEE1FFF1FD4
:1008F000A217B307E407F50720F0A21BB30BE40B24
:10090000F50B661F771F881F991F1A9469F760956A
:100910007095809590959B01AC01BD01CF01089524
:04092000F894FFCF79
:00000001FF
