:100000000C9435000C945D000C945D000C945D0024
:100010000C945D000C945D000C945D000C945D00EC
:100020000C945D000C945D000C945D000C945D00DC
:100030000C945D000C945D000C945D000C945D00CC
:100040000C94F1020C945D000C94BF020C94990284
:100050000C945D000C945D000C945D000C945D00AC
:100060000C945D000C945D003B0311241FBECFEF88
:10007000D8E0DEBFCDBF11E0A0E0B1E0E8EDF0E1F7
:1000800002C005900D92A832B107D9F721E0A8E28D
:10009000B1E001C01D92AE3EB207E1F710E0C5E34A
:1000A000D0E004C02197FE010E946408C433D10748
:1000B000C9F70E948A030C946A080C940000AF925E
:1000C000BF92CF92DF92EF92FF920F931F93CF9345
:1000D000DF936C017B018B01040F151FEB015E01A7
:1000E000AE18BF08C017D10759F06991D601ED913C
:1000F000FC910190F081E02DC6010995892B79F7DB
:10010000C501DF91CF911F910F91FF90EF90DF908C
:10011000CF90BF90AF900895FC01538D448D252F53
:1001200030E0842F90E0821B930B541710F0CF9691
:10013000089501970895FC01918D828D981761F0C3
:10014000A28DAE0FBF2FB11D5D968C91928D9F5FDA
:100150009F73928F90E008958FEF9FEF0895FC01B9
:10016000918D828D981731F0828DE80FF11D858D6C
:1001700090E008958FEF9FEF0895FC01918D228DFF
:10018000892F90E0805C9F4F821B91098F73992784
:10019000089585E391E00E94BD0021E0892B09F4D8
:1001A00020E0822F089580E090E0892B29F00E94C2
:1001B000C90081110C9400000895FC01A48DA80FC2
:1001C000B92FB11DA35ABF4F2C91848D90E0019699
:1001D0008F739927848FA689B7892C93A089B189B9
:1001E0008C91837080648C93938D848D981306C05A
:1001F0000288F389E02D80818F7D80830895EF92BE
:10020000FF920F931F93CF93DF93EC0181E0888FD0
:100210009B8D8C8D98131AC0E889F989808185FFA0
:1002200015C09FB7F894EE89FF896083E889F98942
:1002300080818370806480839FBF81E090E0DF9144
:10024000CF911F910F91FF90EF900895F62E0B8D97
:1002500010E00F5F1F4F0F731127E02E8C8D8E1152
:100260000CC00FB607FCFACFE889F989808185FFB9
:10027000F5CFCE010E94DD00F1CFEB8DEC0FFD2F0D
:10028000F11DE35AFF4FF0829FB7F8940B8FEA8974
:10029000FB8980818062CFCFCF93DF93EC01888D83
:1002A0008823B9F0AA89BB89E889F9898C9185FDF1
:1002B00003C0808186FD0DC00FB607FCF7CF8C917F
:1002C00085FFF2CF808185FFEDCFCE010E94DD005A
:1002D000E9CFDF91CF910895FC0101900020E9F76B
:1002E0003197AF01481B590BBC0185E391E00C9499
:1002F0005F008F929F92AF92BF920F931F93CF9305
:10030000DF93CDB7DEB7A1970FB6F894DEBF0FBE6F
:10031000CDBF19A2423008F44AE08E010F5D1F4F95
:10032000842E912CB12CA12CA50194010E9442088D
:10033000E62FB901CA01EA30F4F4E05DD801EE938A
:100340008D01232B242B252B79F790E080E010974B
:1003500019F0CD010E946C01A1960FB6F894DEBF92
:100360000FBECDBFDF91CF911F910F91BF90AF9086
:100370009F908F900895E95CE1CF4F925F926F92CA
:100380007F928F929F92AF92BF92CF92DF92EF9225
:10039000FF920F931F93CF936B017C01742EAC01DE
:1003A0009B010E943D08882399F082E191E0CF9162
:1003B0001F910F91FF90EF90DF90CF90BF90AF9083
:1003C0009F908F907F906F905F904F900C946C01F6
:1003D00046015701E894B7F82FEF3FEF4FE75FE78B
:1003E000C501B4010E943D0881110DC02FEF3FEF00
:1003F0004FE75FE7C501B4010E94730618161CF4AD
:1004000086E191E0D4CF2FEF3FEF4FE75FE4C701E4
:10041000B6010E94CB0718161CF48AE191E0C7CF01
:100420002FEF3FEF4FE75FECC701B6010E94730665
:1004300087FDF3CF20E030E0A901C701B6010E949B
:10044000730610E000E087FF0AC06DE285E391E0EB
:100450000E94FF008C01F7FAF094F7F8F094C0E0E6
:1004600060E070E080E09FE37C1641F020E030E047
:1004700040E251E40E947806CF5FF6CFA7019601D3
:100480000E9407062B013C010E94EA064B015C0119
:100490004AE00E9479017C01E00EF11ECC23C1F1FB
:1004A000C501B4010E9419079B01AC01C301B2014F
:1004B0000E9406064B015C016EE285E391E00E941A
:1004C000FF00E80EF91EC15018F120E030E040E2D4
:1004D00051E4C501B4010E94D0072B013C010E94E8
:1004E000EA064B01B12CA12C4AE0C501B4010E94DF
:1004F0007901E80EF91EC501B4010E9419079B019C
:10050000AC01C301B2010E9406064B015C01DBCFC6
:10051000C701CF911F910F91FF90EF90DF90CF9087
:10052000BF90AF909F908F907F906F905F904F9013
:1005300008951F920F920FB60F9211242F933F939D
:100540004F935F936F937F938F939F93AF93BF93DB
:10055000EF93FF9385E391E00E94DD00FF91EF911F
:10056000BF91AF919F918F917F916F915F914F91CB
:100570003F912F910F900FBE0F901F9018951F92D3
:100580000F920FB60F9211242F938F939F93EF9397
:10059000FF93E0914501F09146018081E0914B018C
:1005A000F0914C0182FD1BC0908180914E018F5FC4
:1005B0008F7320914F01821741F0E0914E01F0E0DE
:1005C000EB5CFE4F958F80934E01FF91EF919F91D1
:1005D0008F912F910F900FBE0F901F9018958081D3
:1005E000F4CF1F920F920FB60F9211242F933F93C7
:1005F0008F939F93AF93BF9380912D0190912E0184
:10060000A0912F01B091300130912C0123E0230FF4
:100610002D3758F50196A11DB11D20932C01809313
:100620002D0190932E01A0932F01B0933001809162
:10063000280190912901A0912A01B0912B010196E6
:10064000A11DB11D8093280190932901A0932A0137
:10065000B0932B01BF91AF919F918F913F912F91BB
:100660000F900FBE0F901F90189526E8230F02964B
:10067000A11DB11DD2CFE5E3F1E01382128288EE15
:1006800093E0A0E0B0E084839583A683B78384E001
:1006900091E09183808385EC90E09587848784EC5A
:1006A00090E09787868780EC90E0918B808B81EC3F
:1006B00090E0938B828B82EC90E0958B848B86EC20
:1006C00090E0978B868B118E128E138E148EE2ED36
:1006D000F1E08AE098E2A0EABBE3808F918FA28FDD
:1006E000B38F8EE090E09183808380E090E0A0EA79
:1006F000B0E484839583A683B78380E098E9A7E379
:10070000B7E484879587A687B787148A158A168ADF
:10071000178A0895789484B5826084BD84B5816019
:1007200084BD85B5826085BD85B5816085BD8091BC
:100730006E00816080936E00109281008091810034
:10074000826080938100809181008160809381002C
:10075000809180008160809380008091B1008460EE
:100760008093B1008091B00081608093B00080914F
:100770007A00846080937A0080917A00826080930E
:100780007A0080917A00816080937A0080917A006B
:10079000806880937A001092C100E0914501F09149
:1007A000460182E08083E0914101F0914201108294
:1007B000E0914301F091440180E1808310924D016A
:1007C000E0914901F0914A0186E08083E091470180
:1007D000F0914801808180618083E0914701F09130
:1007E0004801808188608083E0914701F091480151
:1007F000808180688083E0914701F0914801808189
:100800008F7D8083412C512C80EA682E82E4782EE3
:100810008091D2018E3008F08E5087708064809372
:100820007C0080917A00806480937A0080917A00C5
:1008300086FDFCCF8091780060917900762F682F3B
:100840007093D5016093D401072E000C880B990B8F
:100850000E941B072091EA013091EB014091EC01CD
:100860005091ED010E94D0074B015C018092DA01AA
:100870009092DB01A092DC01B092DD012091DE01BB
:100880003091DF014091E0015091E1010E94D007D9
:100890006B017C01A50194016091D6017091D70193
:1008A0008091D8019091D9010E9406069B01AC016C
:1008B000C701B6010E9478066B017C01C092E2017B
:1008C000D092E301E092E401F092E50120E030E60D
:1008D0004AE657E40E94CB0787FD0DC080E090E018
:1008E000A0EAB1E48093310190933201A0933301E7
:1008F000B09334018AC020E030E744E157E4C701F7
:10090000B6010E94CB0787FD05C080E090E0A0EF14
:10091000B1E4E8CF20E038E347EC56E4C701B60184
:100920000E94CB0787FD05C080E090E0A0E2B2E422
:10093000D9CF20E038EB48E856E4C701B6010E9461
:10094000CB0787FD05C080E090E0A8E4B2E4CACF01
:1009500020E030E244E656E4C701B6010E94CB072E
:1009600087FD05C080E090E0ACE5B2E4BBCF20E0BD
:1009700030E340E456E4C701B6010E94CB0787FD8F
:1009800005C080E090E0A0E7B2E4ACCF20E030E822
:1009900042E256E4C701B6010E94CB0787FD05C0BD
:1009A00080E090E0A2E8B2E49DCF20E030E849E0AA
:1009B00056E4C701B6010E94CB0787FD05C080E061
:1009C00090E0ACE8B2E48ECF20E030E64AEE55E4A9
:1009D000C701B6010E94CB0787FD05C080E090E00B
:1009E000A6E9B2E47FCF20E030E048EC55E4C7014F
:1009F000B6010E94CB0787FD55C04092310150924D
:100A000032016092330170923401A501940160E0DB
:100A100070E080EA90E40E94060642E00E94BD0178
:100A20008EE191E00E946C016091DA017091DB012E
:100A30008091DC019091DD0142E00E94BD018EE1D8
:100A400091E00E946C016091E2017091E30180915C
:100A5000E4019091E50142E00E94BD0180E291E055
:100A60000E946C01609131017091320180913301DB
:100A70009091340142E00E94BD018FE191E00E941B
:100A80006C0184E291E00E946C0180E090E0892B8F
:100A900009F4BECE0E94C900882309F4B3CE0E9497
:100AA0000000B0CE20E030EE4BEA55E4C701B601BD
:100AB0000E94CB0787FD05C080E090E0AAEAB2E47F
:100AC00011CF20E030E046E955E4C701B6010E94AD
:100AD000CB0787FD05C080E090E0A4EBB2E402CF35
:100AE00020E030EB41E855E4C701B6010E94CB0796
:100AF00087FD05C080E090E0AEEBB2E4F3CE20E0ED
:100B000030EA41E655E4C701B6010E94CB0787FDF4
:100B100005C080E090E0A8ECB2E4E4CE20E030E84C
:100B20004CE255E4C701B6010E94CB0787FD05C022
:100B300080E090E0ACEDB2E4D5CE20E030E245E0DC
:100B400055E4C701B6010E94CB0787FD05C080E0D0
:100B500090E0A0EFB2E4C6CE20E030E44EEC54E4E6
:100B6000C701B6010E94CB0787FD05C080E090E079
:100B7000A2E0B3E4B7CE20E030E842EA54E4C70193
:100B8000B6010E94CB0787FD05C080E090E0ACE095
:100B9000B3E4A8CE20E030E04FE754E4C701B6014B
:100BA0000E94CB0787FD05C080E090E0A6E1B3E49A
:100BB00099CE20E030E043E454E4C701B6010E943E
:100BC000CB0787FD05C080E090E0A0E2B3E48ACEC9
:100BD00020E030E848E154E4C701B6010E94CB07A9
:100BE00087FD05C080E090E0AAE2B3E47BCE20E080
:100BF00030E046EE53E4C701B6010E94CB0787FD03
:100C000004CF80E090E0A4E3B3E46CCE5058BB275F
:100C1000AA270E941E060C9491070E94830738F0B1
:100C20000E948A0720F039F49F3F19F426F40C94AF
:100C300080070EF4E095E7FB0C947A07E92F0E94F9
:100C4000A20758F3BA17620773078407950720F0C5
:100C500079F4A6F50C94C4070EF4E0950B2EBA2F88
:100C6000A02D0B01B90190010C01CA01A0011124B2
:100C7000FF27591B99F0593F50F4503E68F11A165E
:100C8000F040A22F232F342F4427585FF3CF4695EF
:100C900037952795A795F0405395C9F77EF41F1611
:100CA000BA0B620B730B840BBAF09150A1F0FF0FDB
:100CB000BB1F661F771F881FC2F70EC0BA0F621FC7
:100CC000731F841F48F4879577956795B795F795B7
:100CD0009E3F08F0B0CF9395880F08F09927EE0F4C
:100CE0009795879508950E94560708F481E0089526
:100CF0000E948C060C9491070E948A0758F00E946B
:100D0000830740F029F45F3F29F00C947A075111D2
:100D10000C94C5070C9480070E94A20768F39923DE
:100D2000B1F3552391F3951B550BBB27AA276217E7
:100D30007307840738F09F5F5F4F220F331F441FF4
:100D4000AA1FA9F335D00E2E3AF0E0E832D0915028
:100D50005040E695001CCAF72BD0FE2F29D0660F15
:100D6000771F881FBB1F261737074807AB07B0E858
:100D700009F0BB0B802DBF01FF2793585F4F3AF05E
:100D80009E3F510578F00C947A070C94C5075F3F9D
:100D9000E4F3983ED4F3869577956795B795F795E4
:100DA0009F5FC9F7880F911D9695879597F90895CC
:100DB000E1E0660F771F881FBB1F62177307840768
:100DC000BA0720F0621B730B840BBA0BEE1F88F777
:100DD000E09508950E94AA0788F09F5798F0B92FD0
:100DE0009927B751B0F0E1F0660F771F881F991F60
:100DF0001AF0BA95C9F714C0B13091F00E94C40737
:100E0000B1E008950C94C407672F782F8827B85F46
:100E100039F0B93FCCF3869577956795B395D9F7B7
:100E20003EF490958095709561957F4F8F4F9F4FC1
:100E30000895E89409C097FB3EF4909580957095CD
:100E400061957F4F8F4F9F4F9923A9F0F92F96E916
:100E5000BB279395F695879577956795B795F1118B
:100E6000F8CFFAF4BB0F11F460FF1BC06F5F7F4F28
:100E70008F4F9F4F16C0882311F096E911C077233A
:100E800021F09EE8872F762F05C0662371F096E843
:100E9000862F70E060E02AF09A95660F771F881F12
:100EA000DAF7880F9695879597F90895990F0008B6
:100EB000550FAA0BE0E8FEEF16161706E807F9072C
:100EC000C0F012161306E407F50798F0621B730BC7
:100ED000840B950B39F40A2661F0232B242B252B48
:100EE00021F408950A2609F4A140A6958FEF811DEB
:100EF000811D089597F99F6780E870E060E008958C
:100F00009FEF80EC089500240A9416161706180621
:100F10000906089500240A941216130614060506FD
:100F20000895092E0394000C11F4882352F0BB0F8E
:100F300040F4BF2B11F460FF04C06F5F7F4F8F4FF1
:100F40009F4F089557FD9058440F551F59F05F3F2C
:100F500071F04795880F97FB991F61F09F3F79F0DB
:100F600087950895121613061406551FF2CF46955D
:100F7000F1DF08C0161617061806991FF1CF8695DF
:100F80007105610508940895E894BB2766277727C3
:100F9000CB0197F908950E94560708F48FEF089542
:100FA0000E94E3070C9491070E94830738F00E9487
:100FB0008A0720F0952311F00C947A070C9480078F
:100FC00011240C94C5070E94A20770F3959FC1F3EA
:100FD000950F50E0551F629FF001729FBB27F00DE7
:100FE000B11D639FAA27F00DB11DAA1F649F66273C
:100FF000B00DA11D661F829F2227B00DA11D621F8B
:10100000739FB00DA11D621F839FA00D611D221F44
:10101000749F3327A00D611D231F849F600D211D28
:10102000822F762F6A2F11249F5750409AF0F1F0AB
:1010300088234AF0EE0FFF1FBB1F661F771F881F14
:1010400091505040A9F79E3F510580F00C947A07CB
:101050000C94C5075F3FE4F3983ED4F386957795EB
:101060006795B795F795E7959F5FC1F7FE2B880FBA
:10107000911D9695879597F908950E945607880BBC
:10108000990B0895A1E21A2EAA1BBB1BFD010DC0EE
:10109000AA1FBB1FEE1FFF1FA217B307E407F50728
:1010A00020F0A21BB30BE40BF50B661F771F881F04
:1010B000991F1A9469F760957095809590959B019A
:1010C000AC01BD01CF010895EE0FFF1F0590F49113
:0810D000E02D0994F894FFCF14
:1010D80000000000FF005F008C004C01BD009B0079
:1010E800AF006E616E00696E66006F76660009007B
:0810F80009633A000D0A000033
:00000001FF
