:100000000C9435000C945D000C945D000C945D0024
:100010000C945D000C945D000C945D000C945D00EC
:100020000C945D000C945D000C945D000C945D00DC
:100030000C945D000C945D000C945D000C945D00CC
:100040000C94F1020C945D000C94BF020C94990284
:100050000C945D000C945D000C945D000C945D00AC
:100060000C945D000C945D003B0311241FBECFEF88
:10007000D8E0DEBFCDBF11E0A0E0B1E0E0ECFEE0F3
:1000800002C005900D92A432B107D9F721E0A4E295
:10009000B1E001C01D92AA3EB207E1F710E0C5E34E
:1000A000D0E004C02197FE010E945807C433D10755
:1000B000C9F70E948A030C945E070C940000AF926B
:1000C000BF92CF92DF92EF92FF920F931F93CF9345
:1000D000DF936C017B018B01040F151FEB015E01A7
:1000E000AE18BF08C017D10759F06991D601ED913C
:1000F000FC910190F081E02DC6010995892B79F7DB
:10010000C501DF91CF911F910F91FF90EF90DF908C
:10011000CF90BF90AF900895FC01538D448D252F53
:1001200030E0842F90E0821B930B541710F0CF9691
:10013000089501970895FC01918D828D981761F0C3
:10014000A28DAE0FBF2FB11D5D968C91928D9F5FDA
:100150009F73928F90E008958FEF9FEF0895FC01B9
:10016000918D828D981731F0828DE80FF11D858D6C
:1001700090E008958FEF9FEF0895FC01918D228DFF
:10018000892F90E0805C9F4F821B91098F73992784
:10019000089581E391E00E94BD0021E0892B09F4DC
:1001A00020E0822F089580E090E0892B29F00E94C2
:1001B000C90081110C9400000895FC01A48DA80FC2
:1001C000B92FB11DA35ABF4F2C91848D90E0019699
:1001D0008F739927848FA689B7892C93A089B189B9
:1001E0008C91837080648C93938D848D981306C05A
:1001F0000288F389E02D80818F7D80830895EF92BE
:10020000FF920F931F93CF93DF93EC0181E0888FD0
:100210009B8D8C8D98131AC0E889F989808185FFA0
:1002200015C09FB7F894EE89FF896083E889F98942
:1002300080818370806480839FBF81E090E0DF9144
:10024000CF911F910F91FF90EF900895F62E0B8D97
:1002500010E00F5F1F4F0F731127E02E8C8D8E1152
:100260000CC00FB607FCFACFE889F989808185FFB9
:10027000F5CFCE010E94DD00F1CFEB8DEC0FFD2F0D
:10028000F11DE35AFF4FF0829FB7F8940B8FEA8974
:10029000FB8980818062CFCFCF93DF93EC01888D83
:1002A0008823B9F0AA89BB89E889F9898C9185FDF1
:1002B00003C0808186FD0DC00FB607FCF7CF8C917F
:1002C00085FFF2CF808185FFEDCFCE010E94DD005A
:1002D000E9CFDF91CF910895FC0101900020E9F76B
:1002E0003197AF01481B590BBC0181E391E00C949D
:1002F0005F008F929F92AF92BF920F931F93CF9305
:10030000DF93CDB7DEB7A1970FB6F894DEBF0FBE6F
:10031000CDBF19A2423008F44AE08E010F5D1F4F95
:10032000842E912CB12CA12CA50194010E94E404EF
:10033000E62FB901CA01EA30F4F4E05DD801EE938A
:100340008D01232B242B252B79F790E080E010974B
:1003500019F0CD010E946C01A1960FB6F894DEBF92
:100360000FBECDBFDF91CF911F910F91BF90AF9086
:100370009F908F900895E95CE1CF4F925F926F92CA
:100380007F928F929F92AF92BF92CF92DF92EF9225
:10039000FF920F931F93CF936B017C01742EAC01DE
:1003A0009B010E945307882399F082E191E0CF914D
:1003B0001F910F91FF90EF90DF90CF90BF90AF9083
:1003C0009F908F907F906F905F904F900C946C01F6
:1003D00046015701E894B7F82FEF3FEF4FE75FE78B
:1003E000C501B4010E94530781110DC02FEF3FEFEB
:1003F0004FE75FE7C501B4010E94820518161CF49F
:1004000086E191E0D4CF2FEF3FEF4FE75FE4C701E4
:10041000B6010E94E10618161CF48AE191E0C7CFEC
:100420002FEF3FEF4FE75FECC701B6010E94820557
:1004300087FDF3CF20E030E0A901C701B6010E949B
:10044000820510E000E087FF0AC06DE281E391E0E1
:100450000E94FF008C01F7FAF094F7F8F094C0E0E6
:1004600060E070E080E09FE37C1641F020E030E047
:1004700040E251E40E948705CF5FF6CFA7019601C5
:100480000E9416052B013C010E9400064B015C01F5
:100490004AE00E9479017C01E00EF11ECC23C1F1FB
:1004A000C501B4010E942F069B01AC01C301B2013A
:1004B0000E9415054B015C016EE281E391E00E9410
:1004C000FF00E80EF91EC15018F120E030E040E2D4
:1004D00051E4C501B4010E94E6062B013C010E94D3
:1004E00000064B01B12CA12C4AE0C501B4010E94C9
:1004F0007901E80EF91EC501B4010E942F069B0187
:10050000AC01C301B2010E9415054B015C01DBCFB8
:10051000C701CF911F910F91FF90EF90DF90CF9087
:10052000BF90AF909F908F907F906F905F904F9013
:1005300008951F920F920FB60F9211242F933F939D
:100540004F935F936F937F938F939F93AF93BF93DB
:10055000EF93FF9381E391E00E94DD00FF91EF9123
:10056000BF91AF919F918F917F916F915F914F91CB
:100570003F912F910F900FBE0F901F9018951F92D3
:100580000F920FB60F9211242F938F939F93EF9397
:10059000FF93E0914101F09142018081E091470198
:1005A000F091480182FD1BC0908180914A018F5FCC
:1005B0008F7320914B01821741F0E0914A01F0E0E6
:1005C000EF5CFE4F958F80934A01FF91EF919F91D1
:1005D0008F912F910F900FBE0F901F9018958081D3
:1005E000F4CF1F920F920FB60F9211242F933F93C7
:1005F0008F939F93AF93BF938091290190912A018C
:10060000A0912B01B0912C013091280123E0230F00
:100610002D3758F50196A11DB11D20932801809317
:10062000290190932A01A0932B01B0932C01809172
:10063000240190912501A0912601B09127010196F6
:10064000A11DB11D8093240190932501A093260143
:10065000B0932701BF91AF919F918F913F912F91BF
:100660000F900FBE0F901F90189526E8230F02964B
:10067000A11DB11DD2CFE1E3F1E01382128288EE19
:1006800093E0A0E0B0E084839583A683B78384E001
:1006900091E09183808385EC90E09587848784EC5A
:1006A00090E09787868780EC90E0918B808B81EC3F
:1006B00090E0938B828B82EC90E0958B848B86EC20
:1006C00090E0978B868B118E128E138E148EEEEC2B
:1006D000F1E08AE098E2A0EABBE3808F918FA28FDD
:1006E000B38F8EE090E09183808380E090E0A0EA79
:1006F000B0E484839583A683B78380E090E0AAE783
:10070000B4E484879587A687B787148A158A168AE2
:10071000178A0895789484B5826084BD84B5816019
:1007200084BD85B5826085BD85B5816085BD8091BC
:100730006E00816080936E00109281008091810034
:10074000826080938100809181008160809381002C
:10075000809180008160809380008091B1008460EE
:100760008093B1008091B00081608093B00080914F
:100770007A00846080937A0080917A00826080930E
:100780007A0080917A00816080937A0080917A006B
:10079000806880937A001092C100E0914101F0914D
:1007A000420182E08083E0913D01F0913E011082A0
:1007B000E0913F01F091400180E180831092490176
:1007C000E0914501F091460186E08083E09143018C
:1007D000F0914401808180618083E0914301F09138
:1007E0004401808188608083E0914301F09144015D
:1007F000808180688083E0914301F0914401808191
:100800008F7D808384E0C82ED12CE12CF12CC0E0B8
:10081000D0E08091CE018E3008F08E5087708064D9
:1008200080937C0080917A00806480937A0080912C
:100830007A0086FDFCCF8091780060917900762F58
:10084000682F7093D1016093D001072E000C880BA4
:10085000990B0E9431062091E6013091E701409109
:10086000E8015091E9010E94E6064B015C0180928B
:10087000D6019092D701A092D801B092D9012091CF
:10088000DA013091DB014091DC015091DD010E94E1
:10089000E6062B013C01A50194016091D201709103
:1008A000D3018091D4019091D5010E9415059B013F
:1008B000AC01C301B2010E9487056093DE01709311
:1008C000DF018093E0019093E101A5019401609123
:1008D0002D0170912E0180912F01909130010E9485
:1008E00082058823E1F145E0C501B4010E94BD0104
:1008F0008EE191E00E946C016091D6017091D70168
:100900008091D8019091D9010E94F9059B01AC0119
:10091000A6E9B0E00E94D904A70196010E94BA049A
:10092000CA01B9010E94310642E00E94BD018FE177
:1009300091E00E946C0180E291E00E946C01809144
:10094000D6019091D701A091D801B091D90180939F
:100950002D0190932E01A0932F01B0933001209789
:1009600009F457CF0E94C900882309F452CF0E948E
:1009700000004FCF052E97FB1EF400940E94D10477
:1009800057FD07D00E94E40407FC03D04EF40C94FA
:10099000D10450954095309521953F4F4F4F5F4F73
:1009A000089590958095709561957F4F8F4F9F4FDB
:1009B00008950E940605A59F900DB49F900DA49FD9
:1009C000800D911D11240895A1E21A2EAA1BBB1BB4
:1009D000FD010DC0AA1FBB1FEE1FFF1FA217B3070B
:1009E000E407F50720F0A21BB30BE40BF50B661F21
:1009F000771F881F991F1A9469F7609570958095E5
:100A000090959B01AC01BD01CF010895A29FB0015B
:100A1000B39FC001A39F700D811D1124911DB29F32
:100A2000700D811D1124911D08955058BB27AA27D0
:100A30000E942D050C94A7060E94990638F00E948A
:100A4000A00620F039F49F3F19F426F40C94960682
:100A50000EF4E095E7FB0C949006E92F0E94B8068F
:100A600058F3BA17620773078407950720F079F4E3
:100A7000A6F50C94DA060EF4E0950B2EBA2FA02DF5
:100A80000B01B90190010C01CA01A0011124FF273B
:100A9000591B99F0593F50F4503E68F11A16F04036
:100AA000A22F232F342F4427585FF3CF4695379535
:100AB0002795A795F0405395C9F77EF41F16BA0BFA
:100AC000620B730B840BBAF09150A1F0FF0FBB1FA8
:100AD000661F771F881FC2F70EC0BA0F621F731FF1
:100AE000841F48F4879577956795B795F7959E3F4E
:100AF00008F0B0CF9395880F08F09927EE0F9795DF
:100B0000879508950E946C0608F481E008950E947C
:100B10009B050C94A7060E94A00658F00E94990617
:100B200040F029F45F3F29F00C94900651110C9489
:100B3000DB060C9496060E94B80668F39923B1F37D
:100B4000552391F3951B550BBB27AA2762177307F3
:100B5000840738F09F5F5F4F220F331F441FAA1F87
:100B6000A9F335D00E2E3AF0E0E832D09150504043
:100B7000E695001CCAF72BD0FE2F29D0660F771FF1
:100B8000881FBB1F261737074807AB07B0E809F0D7
:100B9000BB0B802DBF01FF2793585F4F3AF09E3F5C
:100BA000510578F00C9490060C94DB065F3FE4F35B
:100BB000983ED4F3869577956795B795F7959F5F9F
:100BC000C9F7880F911D9695879597F90895E1E0EB
:100BD000660F771F881FBB1F621773078407BA074A
:100BE00020F0621B730B840BBA0BEE1F88F7E095A5
:100BF00008950E9400066894B1110C94DB060895D4
:100C00000E94C00688F09F5798F0B92F9927B751D6
:100C1000B0F0E1F0660F771F881F991F1AF0BA95A0
:100C2000C9F714C0B13091F00E94DA06B1E008951E
:100C30000C94DA06672F782F8827B85F39F0B93F10
:100C4000CCF3869577956795B395D9F73EF4909553
:100C50008095709561957F4F8F4F9F4F0895E894D1
:100C600009C097FB3EF490958095709561957F4FF4
:100C70008F4F9F4F9923A9F0F92F96E9BB279395A2
:100C8000F695879577956795B795F111F8CFFAF4B2
:100C9000BB0F11F460FF1BC06F5F7F4F8F4F9F4FE3
:100CA00016C0882311F096E911C0772321F09EE841
:100CB000872F762F05C0662371F096E8862F70E0A7
:100CC00060E02AF09A95660F771F881FDAF7880F81
:100CD0009695879597F90895990F0008550FAA0BD7
:100CE000E0E8FEEF16161706E807F907C0F012163F
:100CF0001306E407F50798F0621B730B840B950B42
:100D000039F40A2661F0232B242B252B21F4089596
:100D10000A2609F4A140A6958FEF811D811D089533
:100D200097F99F6780E870E060E008959FEF80EC9E
:100D3000089500240A941616170618060906089541
:100D400000240A9412161306140605060895092EA7
:100D50000394000C11F4882352F0BB0F40F4BF2B16
:100D600011F460FF04C06F5F7F4F8F4F9F4F089556
:100D700057FD9058440F551F59F05F3F71F047954C
:100D8000880F97FB991F61F09F3F79F08795089531
:100D9000121613061406551FF2CF4695F1DF08C050
:100DA000161617061806991FF1CF8695710561056D
:100DB00008940895E894BB2766277727CB0197F915
:100DC00008950E946C0608F48FEF08950E94F906BA
:100DD0000C94A7060E94990638F00E94A00620F005
:100DE000952311F00C9490060C94960611240C9403
:100DF000DB060E94B80670F3959FC1F3950F50E093
:100E0000551F629FF001729FBB27F00DB11D639FBC
:100E1000AA27F00DB11DAA1F649F6627B00DA11D62
:100E2000661F829F2227B00DA11D621F739FB00D08
:100E3000A11D621F839FA00D611D221F749F332778
:100E4000A00D611D231F849F600D211D822F762F11
:100E50006A2F11249F5750409AF0F1F088234AF0EE
:100E6000EE0FFF1FBB1F661F771F881F915050405A
:100E7000A9F79E3F510580F00C9490060C94DB0678
:100E80005F3FE4F3983ED4F3869577956795B795E1
:100E9000F795E7959F5FC1F7FE2B880F911D9695FB
:100EA000879597F908950E946C06880B990B089511
:100EB000EE0FFF1F0590F491E02D0994F894FFCFF9
:100EC00000000000FF005F008C004C01BD009B0093
:100ED000AF006E616E00696E66006F766600090095
:040EE0000D0A0000F7
:00000001FF
