:100000000C94DF000C9407010C9407010C94070179
:100010000C9407010C9407010C9407010C94070140
:100020000C9407010C9407010C9407010C94070130
:100030000C9407010C9407010C9407010C94070120
:100040000C944B050C9407010C9407010C940701C8
:100050000C9407010C9407010C9407010C94070100
:100060000C9495050C94070100407A10F35A00A0F7
:10007000724E18090010A5D4E80000E87648170071
:1000800000E40B54020000CA9A3B000000E1F505B1
:10009000000080969800000040420F000000A086FB
:1000A00001000000102700000000E803000000002D
:1000B0006400000000000A000000000001000000D1
:1000C00000002C76D888DC674F0823DFC1DFAE59EB
:1000D000E1B1B796E5E3E453C63AE651997696E87E
:1000E000E6C28426EB898C9B62ED407C6FFCEFBC02
:1000F0009C9F40F2BAA56FA5F490055A2AF75C932D
:100100006B6CF9676DC11BFCE0E40D47FEF520E662
:10011000B500D0ED902E0300943577050080841E45
:10012000080000204E0A000000C80C333333330FA0
:10013000986E12831141EF8D2114893BE65516CF3D
:10014000FEE6DB18D1844B381BF77C1D901DA4BB49
:10015000E424203284725E228100C9F124ECA1E5FE
:100160003D270000000023002600290000000008B1
:10017000000201000003040700000000000000006E
:1001800000000000250028002B00000000002400D3
:1001900027002A00040404040404040402020202E6
:1001A000020203030303030301020408102040803A
:1001B0000102040810200102040810203F07112446
:1001C0001FBECFEFD8E0DEBFCDBF11E0A0E0B1E0B1
:1001D000EEEAF9E202C005900D92A83AB107D9F70C
:1001E00023E0A8EAB1E001C01D92A53BB207E1F708
:1001F00010E0CFEDD0E004C02197FE010E9427124D
:10020000CE3DD107C9F70E940A080C94D5140C946E
:10021000000008950895AF92BF92CF92DF92EF92BF
:10022000FF920F931F93CF93DF936C017B018B01A0
:10023000040F151FEB015E01AE18BF08C017D107F0
:1002400059F06991D601ED91FC910190F081E02D7A
:10025000C6010995892B79F7C501DF91CF911F91CF
:100260000F91FF90EF90DF90CF90BF90AF900895E7
:10027000833081F028F4813099F08230A9F008951C
:100280008730A9F08830C9F08430B1F480918000C3
:100290008F7D03C0809180008F77809380000895C8
:1002A00084B58F7784BD089584B58F7DFBCF809111
:1002B000B0008F778093B00008958091B0008F7D5B
:1002C000F9CF1F93CF93DF93282F30E0F901E45942
:1002D000FE4F8491F901E855FE4FD491F901EC5697
:1002E000FE4FC491CC23A9F0162F81110E94380132
:1002F000EC2FF0E0EE0FFF1FE058FE4FA591B491F8
:100300008FB7F894EC91111108C0D095DE23DC93DF
:100310008FBFDF91CF911F910895DE2BF8CF3FB7AC
:10032000F89480915B0290915C02A0915D02B09183
:100330005E0226B5A89B05C02F3F19F00196A11DAE
:10034000B11D3FBFBA2FA92F982F8827BC01CD011F
:10035000620F711D811D911D42E0660F771F881F7E
:10036000991F4A95D1F7089520911002260F33273F
:10037000331F21323105ECF420913402FC0190E06E
:1003800080E0243069F082E00895A091100221916C
:10039000AC0140515E4FA40FB52FB11D2C930196B7
:1003A000861798F380911002680F6093100280E026
:1003B000089581E008951092340281E0809336021E
:1003C0001092350261E082E10E94610161E083E107
:1003D0000E946101E9EBF0E080818E7F8083808163
:1003E0008D7F808388E48093B80085E48093BC008F
:1003F0000895CF93DF9391E09093EF018823B9F0B4
:10040000C091B800D091BA008091BC008A7B8093E3
:10041000BC0060E082E10E94610160E083E10E9433
:1004200061010E94DB01D093BA00C093B800DF9154
:10043000CF9108950895E091660280916502E817D2
:1004400030F4F0E0E653FE4F808190E008958FEFA6
:100450009FEF089590916602809165022FEF3FEF24
:10046000981748F4E92FF0E0E653FE4F208130E082
:100470009F5F90936602C9010895809165029091F3
:100480006602891B990B0895CF92DF92EF92FF923B
:100490000F931F93CF93DF937C01CB018A012091AF
:1004A000C901222389F0EB016B01C40ED51ECC15C6
:1004B000DD0569F06991D701ED91FC910190F08122
:1004C000E02DC7010995F3CF642F0E94B401C80144
:1004D000DF91CF911F910F91FF90EF90DF90CF9020
:1004E0000895CF93DF931F92CDB7DEB76983209134
:1004F000C9012223F9F020916302203258F021E053
:1005000030E0FC013383228390E080E00F90DF91A4
:10051000CF91089580916402E82FF0E0E755FE4FF7
:10052000998190838F5F809364028093630281E05E
:1005300090E0ECCF61E0CE0101960E94B401F7CFCC
:100540008F929F92AF92BF92CF92DF92EF92FF92E3
:10055000CF93DF93EC0188818E3008F08E50877046
:10056000806480937C0080917A00806480937A001C
:1005700080917A0086FDFCCF8091780060917900AF
:10058000762F682F7B836A83072E000C880B990BCC
:100590000E940511288D398D4A8D5B8D0E94BA11FC
:1005A0006B017C01C886D986EA86FB862C853D8551
:1005B0004E855F850E94BA114B015C01A70196012F
:1005C0006C817D818E819F810E94E90F9B01AC012E
:1005D000C501B4010E945B10688B798B8A8B9B8B61
:1005E000DF91CF91FF90EF90DF90CF90BF90AF90D1
:1005F0009F908F900895FC01A081B18118968D91F4
:100600009D910D90BC91A02D46815781608571858B
:10061000840F951FA61FB71F86839783A087B18776
:10062000428153816481758184179507A607B707B6
:1006300038F0168217821086118681E090E00895C6
:1006400090E080E008950F931F93CF93DF93EC0128
:10065000288130E0F901E459FE4F8491F901E85511
:10066000FE4F0491F901EC56FE4F14911123A9F0AD
:1006700081110E943801E12FF0E0EE0FFF1FEE59CB
:10068000FE4FA591B491EC910E2339F01982188692
:1006900019861A861B8680E005C08981811104C0F5
:1006A00081E0898390E013C08C819D81AE81BF8100
:1006B000892B8A2B8B2B79F3CE0102960E94FB02A9
:1006C00031E020E0892B09F430E0832F922FDF9175
:1006D000CF911F910F910895CF92DF92EF92FF92E9
:1006E0000F931F93CF93DF93D62F672FFC01C48105
:1006F00081E08093C901C093A80110926402109216
:10070000630282E992E00E9471026D2F82E992E019
:100710000E947102D0916302D13208F092C00E940F
:100720008F016B017C0180913402811165C082E0F0
:100730008093340281E0809336028FEF80933302FE
:1007400010925802D0935702A9EAB1E0E7E3F2E031
:1007500080E0D81385C01092590280915902CC0FC5
:10076000C82BC093590280913502813009F07CC0BA
:10077000109235020E948F016B017C018091590219
:100780008093BB008091EB019091EC01A091ED0171
:10079000B091EE01892B8A2B8B2B99F00E948F014F
:1007A0000091EB011091EC012091ED013091EE01EF
:1007B0006C197D098E099F09061717072807390745
:1007C000E0F18091BC0083FDD9CF85EC8093BC0023
:1007D0000E948F016B017C0180913402823009F408
:1007E00045C0809133028F3F61F1809133028032A6
:1007F00041F18091330225C08091EB019091EC0191
:10080000A091ED01B091EE01892B8A2B8B2B09F47D
:100810008ACF0E948F010091EB011091EC01209191
:10082000ED013091EE016C197D098E099F090617C3
:1008300017072807390708F076CF8091EA010E9450
:10084000F90110926402109263021092C901DF91C3
:10085000CF911F910F91FF90EF90DF90CF9008956F
:100860009D9191938F5F75CF85EEB0CF8091EB0115
:100870009091EC01A091ED01B091EE01892B8A2BB2
:100880008B2B09F4A9CF0E948F010091EB011091ED
:10089000EC012091ED013091EE016C197D098E097A
:1008A0009F09061717072807390708F095CFC5CF06
:1008B000CF93DF93CDB7DEB728970FB6F894DEBF9E
:1008C0000FBECDBF98E0E4E0F1E0DE0111960190AB
:1008D0000D929A95E1F79091B103981708F48FEF74
:1008E00090E0880F991F21E030E02C0F3D1F820F10
:1008F000931FFC016081606870E089EA93E02896AC
:100900000FB6F894DEBF0FBECDBFDF91CF910C9430
:100910006C0361E070E089EA93E00E946C038BE372
:100920009FE10197F1F78091B203882319F080E0ED
:100930000C945804089570E070640E946C0381E088
:1009400090E00895089590E080E008950F931F933C
:10095000CF93DF93FC012589223099F1EC0182E0ED
:10096000858B16821782108611860284F385E02D0E
:100970008F01095E1F4F86891F928F9385891F9271
:100980008F9384891F928F938AE291E09F938F9334
:100990001F930F930E943412B801CE010C960E944F
:1009A0002D128DB79EB70A960FB6F8949EBF0FBE54
:1009B0008DBF61E08E89DF91CF911F910F910C94D3
:1009C0006101DF91CF911F910F91089585ED809383
:1009D000BC008091EB019091EC01A091ED01B091F0
:1009E000EE010796A11DB11D23E0B695A795979539
:1009F00087952A95D1F72091BC0024FD03C0109261
:100A0000340208954091EB015091EC016091ED01A9
:100A10007091EE01452B462B472B69F30097A105FA
:100A2000B10541F025E32A95F1F700000197A109EE
:100A3000B109E1CF8091EA010C94F9010F931F9362
:100A4000CF93DF938C01FC0101900020E9F73197EF
:100A5000AF01481B590BBC0189EA93E00E940B01CE
:100A6000E80109900020E9F72197C01BD10BC031A4
:100A7000D10560F441E050E069E371E089EA93E078
:100A80000E940B012196C031D105A1F7DF91CF91D2
:100A90001F910F9108951F920F920FB60F9211247C
:100AA0002F933F938F939F93AF93BF938091670250
:100AB00090916802A0916902B0916A0230915A0245
:100AC00023E0230F2D3758F50196A11DB11D20936A
:100AD0005A028093670290936802A0936902B093D0
:100AE0006A0280915B0290915C02A0915D02B091DC
:100AF0005E020196A11DB11D80935B0290935C0282
:100B0000A0935D02B0935E02BF91AF919F918F91D0
:100B10003F912F910F900FBE0F901F90189526E8D0
:100B2000230F0296A11DB11DD2CF1F920F920FB6B7
:100B30000F9211242F933F934F935F936F937F9363
:100B40008F939F93AF93BF93EF93FF938091B900DF
:100B5000887F803609F44AC0F0F5883209F4A7C0CE
:100B600018F5803109F49BC0B8F4882309F4F9C062
:100B7000883009F494C0FF91EF91BF91AF919F919C
:100B80008F917F916F915F914F913F912F910F9036
:100B90000FBE0F901F901895883109F488C08032DD
:100BA00051F78093330214C0803409F49DC040F49F
:100BB0008033B9F38833F9F68093330285ECB0C003
:100BC000803509F485C0883509F496C0883499F6D3
:100BD0000E94E604D0CF883909F48CC038F58837F4
:100BE00029F050F4883611F0803729F683E080939D
:100BF00034021092320257C0883809F47BC0803921
:100C000019F0803809F0B7CF80913202803208F0B5
:100C100071C0E091320281E08E0F809332028091A8
:100C2000BB00F0E0EE5EFD4F80833DC0803B39F0BD
:100C3000E0F4803A09F479C0883A09F09CCF84E066
:100C4000809334021092110210921002E09161021E
:100C5000F091620209958091100281110FC081E02C
:100C6000809310021092F00109C0803C09F4A6CFD5
:100C7000883C09F4A3CF883B09F07DCFE0911102B5
:100C800081E08E0F80931102F0E0E051FE4F8081F1
:100C90008093BB00909111028091100229C0809135
:100CA00059028093BB0085EC8093BC0064CF909187
:100CB000580280915702981758F5E091580281E048
:100CC0008E0F80935802F0E0E95CFD4F8081E9CF00
:100CD000E091580281E08E0F809358028091BB0012
:100CE000F0E0E95CFD4F80839091580280915702BB
:100CF0009817C8F285E8D8CFE091580281E08E0FAE
:100D0000809358028091BB00F0E0E95CFD4F808346
:100D10008091360281115CCF81E08093350284EAB4
:100D20008093BC001092340226CF85EC8093BC00E7
:100D30001092340280913202803230F4E09132021B
:100D4000F0E0EE5EFD4F10826091320270E0E091C3
:100D50005F02F091600282E192E009951092320206
:100D60000ACF1092330234CFCF93DF93DC01189671
:100D70001D921D921D921C921B978FE793E01D966A
:100D80009C938E931C976C9313969C938E931297BF
:100D900014962D933D934D935C93179770E0FB0150
:100DA000E855FE4F84916C567E4FFB01249122231F
:100DB000C9F030E0220F331FF901E657FE4F45918D
:100DC0005491F901E058FE4FC591D4912FB7F89492
:100DD000FA013081982F909593239083E8818E2B90
:100DE00088832FBF11961C92DF91CF9108950F93A6
:100DF0001F93CF93DF938C01EB018FE793E0F80112
:100E000093878287778B668B208F318F428F538FAA
:100E100091838083A0E6BAEE0E94760F628373838B
:100E2000848395831682178210861186FE01E85509
:100E3000FE4F8491CC56DE4FFE01C491CC2399F035
:100E4000D0E0CC0FDD1FFE01E657FE4FA591B49117
:100E5000FE01E058FE4F259134919FB7F894EC9134
:100E6000E82BEC939FBF60E0F80186890E94610146
:100E7000F801158ADF91CF911F910F9108950F937B
:100E80001F93CF93DF93E2E9F2E01382128288EEA0
:100E900093E0A0E0B0E084839583A683B78380E1EC
:100EA00091E091838083E9EAF3E01382128282E287
:100EB00091E09183808311868EE3848380E1828731
:100EC00082E08387EFE9F3E08FE793E0918380830B
:100ED00088E893E1A0E0B0E082839383A483B583A4
:100EE000168217821086118621E030E040E050E043
:100EF00062E070E083E693E00E94F70620E030E0D5
:100F0000A90163E070E087E493E00E94F70620E027
:100F100030E0A90164E070E08BE293E00E94F70604
:100F200024EF31E040E050E069E08CE193E00E9482
:100F3000B4062DE730E040E050E06AE08EE093E058
:100F40000E94B4062DE730E040E050E06BE080E026
:100F500093E00E94B40620E030E0A9016CE082EF4B
:100F600092E00E94B406E6EDF2E00AE018E220EA20
:100F70003BE3008F118F228F338F8EE090E09183BF
:100F8000808340E050E060EA70E4448355836683E8
:100F9000778380E090E0AAE7B4E484879587A6870A
:100FA000B787148A158A168A178AEAEBF2E0008F4F
:100FB000118F228F338FCFE0D0E0D183C083448361
:100FC00055836683778384879587A687B787148A36
:100FD000158A168A178AEEE9F2E0008F118F228FA8
:100FE000338F20E130E0318320834483558366834F
:100FF000778384879587A687B7878EE195E8ABE2EC
:10100000B0E4848B958BA68BB78BDF91CF911F912A
:101010000F910895789484B5826084BD84B5816011
:1010200084BD85B5826085BD85B5816085BD8091B3
:101030006E00816080936E0010928100809181002B
:101040008260809381008091810081608093810023
:10105000809180008160809380008091B1008460E5
:101060008093B1008091B00081608093B000809146
:101070007A00846080937A0080917A008260809305
:101080007A0080917A00816080937A0080917A0062
:10109000806880937A001092C100109266021092CC
:1010A000650210926402109263020E94DB0189E0E3
:1010B00091E090936202809361028AE091E09093C4
:1010C000600280935F0280E18093AE038091B4035D
:1010D000823018F098E19093AE038093B1038BE3D4
:1010E0009DE00197F1F76091AE03606270E089EADC
:1010F00093E00E946C038BE496E40197F1F7609112
:10110000AE03606270E089EA93E00E946C0383E5BD
:1011100092E00197F1F76091AE03606270E089EAB6
:1011200093E00E946C036091AE03606270E089EA14
:1011300093E00E946C0384E08093AF036CE070E066
:1011400089EA93E00E946C030E94890482E0809304
:10115000B00366E070E089EA93E00E946C0362E00D
:1011600070E089EA93E00E946C038BE39FE10197B2
:10117000F1F72FB7F8948091670290916802A091DF
:101180006902B0916A022FBF80937F03909380031E
:10119000A0938103B093820310922A03CBE7D2E09D
:1011A00089E8282E81E0382E91EEC92E9AE7D92EB3
:1011B00094E6E92E90E4F92E28E7822E912CA12CBA
:1011C000B12C80917F0390918003A0918103B09115
:1011D00082038093830390938403A0938503B09349
:1011E00086032FB7F8948091670290916802A091CE
:1011F0006902B0916A022FBF80937F0390938003AE
:10120000A0938103B09382034091830350918403A0
:101210006091850370918603841B950BA60BB70B19
:101220008093870390938803A0938903B0938A03E4
:1012300040918F03509190036091910370919203BC
:10124000840F951FA61FB71F80938F039093900361
:10125000A0939103B0939203883E9340A105B105FA
:1012600068F0809195038F5F8093950310928F03B0
:101270001092900310929103109292038091950323
:101280008C3338F080919403109295038F5F809394
:101290009403809194038C3338F0809193031092DF
:1012A00094038F5F8093930380919303893110F0AF
:1012B000109293038091930320E13EE0829FA0016E
:1012C000839F500D1124052E000C660B770B809127
:1012D00094033CE3839FC0011124092E000CAA0B48
:1012E000BB0B840F951FA61FB71F20919503820F7C
:1012F000911DA11DB11D80938B0390938C03A0932E
:101300008D03B0938E0386ED92E00E94A0028AEBDB
:1013100092E00E94A0026091CA027091CB0280917B
:10132000CC029091CD020E94CD109B01AC01AAE0AD
:10133000B0E00E94760F28EF30E040E050E00E94DD
:10134000570FCA01B9010E94051160938E02709374
:101350008F0280939002909391028EE992E00E9416
:10136000A0022091000130910101409102015091B1
:1013700003016091DE027091DF028091E0029091A2
:10138000E1020E94B51187FD22C08FE993E00E941F
:10139000FB02892B81F08091780381110CC083E6D8
:1013A00093E00E94A6040E94890484E090E0909358
:1013B0008D0280938C0280912A03813009F465C0EC
:1013C00090F0823009F488C010922A0327C08091DF
:1013D00078038D7F81F31092780360E08091790328
:1013E0000E946101E8CF809178038230B9F483E6EE
:1013F00093E00E94FB02892B89F083E080937803BD
:1014000060E0809179030E94610180912A038F5FDF
:1014100080932A0310928D0210928C0282EF92E048
:101420000E942303892B31F00E94890410928D02BF
:1014300010928C028CE193E00E942303892B81F0AF
:1014400000918C0210918D020E9489040F5F1F4F42
:10145000093011050CF05EC010938D0200938C02D0
:10146000E0918C02F0918D02E930F10508F094C012
:10147000E45CF54F0C9427128F0AD40AFF0A380B4C
:10148000C10BF90B9F0CC60CF10C20E030E040E2E0
:1014900051E460918E0270918F0280919002909140
:1014A00091020E94561087FF05C087E493E00E94D6
:1014B000A604B4CF80915C03843041F084E0809333
:1014C0005C0360E080915D030E94610180912A03CA
:1014D0008F5F80932A03A2CF24E13EEA4FE950E4D4
:1014E0006091A6027091A7028091A8029091A90232
:1014F0000E94561087FF03C08BE293E0D8CF809103
:101500004003843019F384E08093400360E08091CD
:101510004103DACF10928D0210928C02A1CF80E0AD
:101520000E945804809195031F928F938091940399
:101530001F928F93809193031F928F938AE291E081
:101540009F938F9386E993E09F938F930E94341229
:1015500066E973E08BE792E00E942D128BE792E040
:101560000E941E052DB73EB7265F3F4F0FB6F89479
:101570003EBF0FBE2DBF80917803833069F481E0B8
:101580000E9458046FE673E08BE792E00E942D12F0
:101590008BE792E00E941E0580E090E0892B09F421
:1015A00010CE0E9400000DCE8EE093E00E94230337
:1015B000892B39F0809193038F5F8931D8F4809320
:1015C000930380E093E00E942303892B39F08091FC
:1015D00093038150893188F48093930380E00E94C3
:1015E0005804809193031F928F938BE391E09F9314
:1015F0008F93C9C110929303E4CF88E1EDCF8EE0C1
:1016000093E00E942303892B39F0809194038F5F2C
:101610008C3348F58093940380E093E00E94230389
:10162000892B39F08091940381508C33F8F48093A6
:10163000940380E00E945804809194031F928F933A
:1016400024E431E03F932F93DF93CF930E94341231
:101650008BE792E00E941E050F900F900F900F9065
:101660000F900F9099CF10929403D6CF8BE3DFCFDA
:101670008EE093E00E942303892BC9F080917B03C5
:1016800090917C03A0917D03B0917E030196A11DF2
:10169000B11D89379105A105B10508F060C080939F
:1016A0007B0390937C03A0937D03B0937E0380E043
:1016B00093E00E942303892BC9F080917B039091D2
:1016C0007C03A0917D03B0917E030197A109B1092C
:1016D00089379105A105B10508F04AC080937B03C5
:1016E00090937C03A0937D03B0937E0320917B03B2
:1016F00030917C0340917D0350917E03A0E6BAEEC9
:101700000E94760F6093650370936603809367036E
:101710009093680380E00E94580480917E038F9329
:1017200080917D038F9380917C038F9380917B03C5
:101730008F938FE491E09F938F93DF93CF930E94D9
:1017400034128BE792E00E941E052DB73EB7285F4A
:101750003F4F0FB6F8943EBF0FBE2DBF1DCF109266
:101760007B0310927C0310927D0310927E039FCF27
:1017700080927B0390927C03A0927D03B0927E03C3
:10178000B5CF80E00E9458048CE591E00E941E05D0
:1017900081E00E945804809168038F9380916703D1
:1017A0008F93809166038F93809165038F938091CF
:1017B0006C038F9380916B038F9380916A038F9357
:1017C000809169038F9389E691E09F938F93DF93D4
:1017D000CF930E9434128BE792E00E941E052DB732
:1017E0003EB7245F3F4F0FB6F8943EBF0FBE2DBFEC
:1017F000D3CE8EE093E00E942303892B09F12AE0E7
:1018000037ED43E25CE3609100017091010180914A
:101810000201909103010E94EA0F2B013C0121EE8D
:101820003AE744E650E40E94B51118160CF471C072
:1018300040920001509201016092020170920301F6
:1018400080E093E00E942303892B01F12AE037ED29
:1018500043E25CE36091000170910101809102011B
:10186000909103010E94E90F2B013C0120E030E040
:1018700040E85FE30E94561087FD58C04092000187
:1018800050920101609202017092030180E00E9477
:10189000580481E791E00E941E0581E00E945804EF
:1018A0006091DE027091DF028091E0029091E1028E
:1018B00003E712E022E043E00E94020D6091000184
:1018C0007091010180910201909103010BE612E0F9
:1018D00022E043E00E94020DC8019F930F9383E72B
:1018E00092E09F938F938BE791E09F938F93DF9389
:1018F000CF930E9434128BE792E00E941E052DB711
:101900003EB7285F3F4F0FB6F8943EBF0FBE2DBFC6
:1019100043CE80E090E0A0E8BFE380930001909385
:101920000101A0930201B09303018ACFC09200018C
:10193000D0920101E0920201F0920301A7CF80E072
:101940000E94580484E891E00E941E0581E00E94F4
:10195000580420E030E040E251E460918E02709142
:101960008F0280919002909191020E945B1020E082
:1019700030E048EC52E40E94BA110E94CD107F93EF
:101980006F933F922F92DF93CF9360CE80E00E94BF
:1019900058048EE891E00E941E0581E00E945804E0
:1019A00020E030E040EA50E46091A6027091A70286
:1019B0008091A8029091A9020E945B1020E030E083
:1019C00048EC52E40E94BA112DEC3CEC4CEC5DE387
:1019D0000E94EA0F0E94CD107F936F933F922F9247
:1019E00033CE80E00E94580486E991E00E941E05F3
:1019F00081E00E94580480912A031F928F9385EA08
:101A000091E0F5CDEF920F931F93CF93DF93E80111
:101A100034E047FD34E1042E000C550B57FF03C0A2
:101A2000519541955109E32E022F242FAE010E94BA
:101A3000200DCE01DF91CF911F910F91EF9008956E
:101A4000A9E0B0E0E6E2FDE00C94870F6A01F22E17
:101A5000B02E102FFBE3AF2EA01608F41BE31F5F80
:101A6000012F27E0AE014F5F5F4F0E947F0EBC0148
:101A70008981982F9970913009F43FC09BE2E1FC75
:101A800004C09E2D9170E0FC3AC05E2D5071E82F8D
:101A9000E87083FF46C084E0911101C083E0EF2D20
:101AA000E81B8F1508F0E0E0D6018E2F20E25523C9
:101AB00051F1992329F0D6019C93C60101966C013E
:101AC00096012D5F3F4FE2FE24C08EE4D6018C9339
:101AD00091E411969C93119712968C93D9018E2FB5
:101AE00090E281111BC0E20FF32FF11D10828EEFE7
:101AF0009FEF2996ECE00C94A30F9DE2C6CF90E2F5
:101B0000C4CF2D9381508111FCCFCE0ED11CE0E0CB
:101B1000D0CF8EE6D6018C9391E6DBCF9D9381509A
:101B2000E0CF482F447082FF3DC084E0911101C096
:101B300083E08F1510F4EF2DE81BD6018E2F20E2E5
:101B4000552309F1992329F0D6019C93C6010196EA
:101B50006C0196012D5F3F4FE2FE1BC089E4D60168
:101B60008C938EE411968C93119786E412968C9345
:101B7000D9018E2F90E2882309F4B5CF9D9381502F
:101B8000FACF2D9381508111FCCFCE0ED11CE0E015
:101B9000D9CF89E6D6018C938EE611968C93119756
:101BA00086E6E4CF9B0177FF02C030E020E0A1E0B1
:101BB000B0E0911102C0B0E0A0E0F9013196AE0FA3
:101BC000BF1F8B2C912CBB2009F461C05401EFEF97
:101BD000AE1ABE0AAA0DBB1DFA161B0619F014F0A8
:101BE0004F2D4A1B511188C0E3FC59C07601A42F28
:101BF000B0E2A1114FC0C40ED11C992309F45BC0FF
:101C000040E0D6011196F60190836D01552309F449
:101C100048C0012F060F9A81582F507184FF03C0CE
:101C2000913309F4015010160CF047C0093008F048
:101C300008E0EEE2FE2E5B01A01AB1088501919446
:101C4000819491082F3F320729F4D601FC92F601C6
:101C500031966F016217730794F1021713077CF531
:101C6000DB01A21BB30BAA24A394B12CAC0EBD1EA6
:101C7000AA0DBB1D11968C9121503109D6011196E8
:101C800028153905F4F0F60180836D01DBCFB12C06
:101C9000A12CA0CFF701B1937F01A150AACF911140
:101CA000B0CFD601942F50E302C05D9391509111B3
:101CB000FCCFC40ED11C40E0ACCF01E0BACF80E332
:101CC000DBCF6217730731F4963388F4953311F440
:101CD000552369F0F6018083FD01842F90E2811184
:101CE00008C0A40FB11D1C9290E080E002CF81E3F8
:101CF000F1CF91938150F3CF911183CF8ACF2830C8
:101D000008F027E03327DA01990F311D87FD916034
:101D100000966105710539F432602E5F3D9330E322
:101D20002A95E1F708959F3F30F0803871056105ED
:101D300009F03C5F3C5F3D93913008F08068911D55
:101D4000DF93CF931F930F93FF92EF92192F987FFA
:101D50009695E92F96959695E90FFF27EE53FF4F3D
:101D600099273327EE24FF24A701E7010590089463
:101D7000079428F4360FE71EF81E491F511D660F01
:101D8000771F881F991F0694A1F70590079428F4E0
:101D9000E70EF81E491F561FC11D770F881F991F98
:101DA000661F0694A1F70590079428F4F80E491FC2
:101DB000561FC71FD11D880F991F661F771F0694D6
:101DC000A1F70590079420F4490F561FC71FD81F8D
:101DD000990F661F771F881F0694A9F784911095A5
:101DE000177041F0D695C79557954795F794E794A6
:101DF0001A95C1F7E8E6F0E06894159015913591D1
:101E00006591959105907FE27395E118F10A430B76
:101E1000560BC90BD009C0F7E10CF11E431F561F2A
:101E2000C91FD01D7EF4703311F48A95E6CFE89473
:101E3000015030F0080F0AF40027021708F4202F91
:101E40002395022F7A3328F079E37D932A95E9F7D9
:101E500010C07D932A9589F60694979567953795D6
:101E600017951794E118F10A430B560BC90BD009CB
:101E700098F023957E9173957A3308F070E37C9304
:101E80002013B8F77E9170617D9330F0839571E3F4
:101E90007D9370E32A95E1F71124EF90FF900F9165
:101EA0001F91CF91DF91992787FD90950895052E79
:101EB00097FB1EF400940E946E0F57FD07D00E94FE
:101EC000B80F07FC03D04EF40C946E0F509540955C
:101ED000309521953F4F4F4F5F4F089590958095D6
:101EE000709561957F4F8F4F9F4F08950E94DA0F35
:101EF000A59F900DB49F900DA49F800D911D11245E
:101F000008952F923F924F925F926F927F928F929D
:101F10009F92AF92BF92CF92DF92EF92FF920F9378
:101F20001F93CF93DF93CDB7DEB7CA1BDB0B0FB682
:101F3000F894DEBF0FBECDBF09942A88398848883F
:101F40005F846E847D848C849B84AA84B984C884D5
:101F5000DF80EE80FD800C811B81AA81B981CE0FCC
:101F6000D11D0FB6F894DEBF0FBECDBFED010895B1
:101F7000A1E21A2EAA1BBB1BFD010DC0AA1FBB1F8D
:101F8000EE1FFF1FA217B307E407F50720F0A21BFF
:101F9000B30BE40BF50B661F771F881F991F1A946C
:101FA00069F760957095809590959B01AC01BD0196
:101FB000CF010895A29FB001B39FC001A39F700DF0
:101FC000811D1124911DB29F700D811D1124911D41
:101FD00008955058BB27AA270E9401100C947B112A
:101FE0000E946D1138F00E94741120F039F49F3F67
:101FF00019F426F40C946A110EF4E095E7FB0C94A6
:102000006411E92F0E948C1158F3BA176207730705
:102010008407950720F079F4A6F50C94AE110EF420
:10202000E0950B2EBA2FA02D0B01B90190010C01E8
:10203000CA01A0011124FF27591B99F0593F50F400
:10204000503E68F11A16F040A22F232F342F442758
:10205000585FF3CF469537952795A795F040539550
:10206000C9F77EF41F16BA0B620B730B840BBAF020
:102070009150A1F0FF0FBB1F661F771F881FC2F78B
:102080000EC0BA0F621F731F841F48F4879577959F
:102090006795B795F7959E3F08F0B0CF9395880F59
:1020A00008F09927EE0F9795879508950E944011A3
:1020B00008F481E008950E946F100C947B110E9437
:1020C000741158F00E946D1140F029F45F3F29F01F
:1020D0000C94641151110C94AF110C946A110E946C
:1020E0008C1168F39923B1F3552391F3951B550B8C
:1020F000BB27AA2762177307840738F09F5F5F4FDB
:10210000220F331F441FAA1FA9F335D00E2E3AF019
:10211000E0E832D091505040E695001CCAF72BD031
:10212000FE2F29D0660F771F881FBB1F2617370782
:102130004807AB07B0E809F0BB0B802DBF01FF27B4
:1021400093585F4F3AF09E3F510578F00C9464111C
:102150000C94AF115F3FE4F3983ED4F386957795E6
:102160006795B795F7959F5FC9F7880F911D96956D
:10217000879597F90895E1E0660F771F881FBB1FC9
:10218000621773078407BA0720F0621B730B840B76
:10219000BA0BEE1F88F7E09508950E94D41068945A
:1021A000B1110C94AF1108950E94941188F09F57BB
:1021B00098F0B92F9927B751B0F0E1F0660F771F6B
:1021C000881F991F1AF0BA95C9F714C0B13091F061
:1021D0000E94AE11B1E008950C94AE11672F782FD4
:1021E0008827B85F39F0B93FCCF386957795679526
:1021F000B395D9F73EF490958095709561957F4F92
:102200008F4F9F4F0895E89409C097FB3EF4909537
:102210008095709561957F4F8F4F9F4F9923A9F0BF
:10222000F92F96E9BB279395F6958795779567954E
:10223000B795F111F8CFFAF4BB0F11F460FF1BC092
:102240006F5F7F4F8F4F9F4F16C0882311F096E925
:1022500011C0772321F09EE8872F762F05C06623D3
:1022600071F096E8862F70E060E02AF09A95660F8C
:10227000771F881FDAF7880F9695879597F9089545
:10228000990F0008550FAA0BE0E8FEEF1616170687
:10229000E807F907C0F012161306E407F50798F0EF
:1022A000621B730B840B950B39F40A2661F0232B08
:1022B000242B252B21F408950A2609F4A140A69584
:1022C0008FEF811D811D089597F99F6780E870E069
:1022D00060E008959FEF80EC089500240A9416169C
:1022E000170618060906089500240A941216130604
:1022F000140605060895092E0394000C11F4882392
:1023000052F0BB0F40F4BF2B11F460FF04C06F5FAD
:102310007F4F8F4F9F4F089557FD9058440F551F83
:1023200059F05F3F71F04795880F97FB991F61F057
:102330009F3F79F087950895121613061406551FCE
:10234000F2CF4695F1DF08C0161617061806991F3A
:10235000F1CF86957105610508940895E894BB272F
:1023600066277727CB0197F908950E94401108F45A
:102370008FEF08950E94CD110C947B110E946D1176
:1023800038F00E94741120F0952311F00C94641120
:102390000C946A1111240C94AF110E948C1170F3EB
:1023A000959FC1F3950F50E0551F629FF001729FFA
:1023B000BB27F00DB11D639FAA27F00DB11DAA1F09
:1023C000649F6627B00DA11D661F829F2227B00D56
:1023D000A11D621F739FB00DA11D621F839FA00DE1
:1023E000611D221F749F3327A00D611D231F849F31
:1023F000600D211D822F762F6A2F11249F57504088
:102400009AF0F1F088234AF0EE0FFF1FBB1F661F02
:10241000771F881F91505040A9F79E3F510580F0CB
:102420000C9464110C94AF115F3FE4F3983ED4F325
:10243000869577956795B795F795E7959F5FC1F76F
:10244000FE2B880F911D9695879597F90895EE0FAD
:10245000FF1F0590F491E02D0994FB01DC01019030
:102460000D920020E1F70895AEE0B0E0EAE3F2E17A
:102470000C948F0F0D891E8986E08C831A83098343
:102480008FEF9FE79E838D83AE01475E5F4F6F891D
:10249000788DCE0101960E9457122F813885020F48
:1024A000131FF80110822E96E4E00C94AB0FABE002
:1024B000B0E0EDE5F2E10C94810F7C013B018A0173
:1024C000FC0117821682838181FFC8C1CE0101966B
:1024D0005C01F7019381F30193FD859193FF819155
:1024E0003F01882309F453C1853239F493FD859166
:1024F00093FF81913F01853229F4B70190E00E945A
:102500004714E7CF912C212C312CFFE1F31538F043
:102510008B3211F190F4803209F1833229F137FCCA
:102520003CC020ED280F2A3050F536FE20C08AE04E
:10253000989E200D1124922E06C08D3291F080338A
:1025400071F7689430F8F30193FD859193FF8191C1
:102550003F018111DACF21C0689431F8689432F8D4
:10256000F2CF689433F8EFCF689434F8ECCFEAE018
:102570002E9E200D1124222E689435F8E4CF8E3241
:1025800029F436FC04C1689436F8DDCF8C3619F492
:10259000689437F8D8CF8836B1F2982F9F7D95543C
:1025A0009330E0F08336A1F18337C1F1833509F030
:1025B00063C02801F2E04F0E511CF801C080D180A9
:1025C000692D70E036FC02C06FEF7FEFC6010E94FC
:1025D00031144C01689437F882010AC00C5F1F4F18
:1025E000FFE3F98388248394912C6501E89437F8FC
:1025F00033FE2DC0522C8114910471F5552009F43D
:1026000068CFB70180E290E00E9447145A94F6CF59
:10261000F801808189830E5F1F4FE4CF2801F2E02B
:102620004F0E511CF801C080D180692D70E036FC3E
:1026300002C06FEF7FEFC6010E943C144C01820183
:10264000D5CFB70180E290E00E9447142A94281465
:10265000190409F0B0F7CECFF60137FC859137FEAB
:1026600081916F01B70190E00E94471451105A9474
:10267000F1E08F1A9108BFCF843619F0893609F03E
:1026800077C0F80137FE6BC06081718182819381D0
:102690000C5F1F4FF32DFF763F2E97FF09C09095DB
:1026A0008095709561957F4F8F4F9F4F689437F855
:1026B0002AE030E0A5010E947714C82ECA188C2C9D
:1026C000432C36FE0CC0E89440F8C91440F434FEA4
:1026D00005C032FC03C0F32DFE7E4F2E892C44FE34
:1026E00095C0FE01EC0DF11D8081803309F087C09B
:1026F000242D297E422E842D8870582E43FC95C0AF
:1027000040FE8FC09C2C821418F42C0C922C98182C
:1027100044FE91C0B70180E390E00E94471442FE5E
:1027200009C088E790E041FE02C088E590E0B7016B
:102730000E944714C91408F48AC0CA94D12C9FEF90
:10274000C91AD90ACA0CDB1CF60182916F01B701C4
:1027500090E00E944714AC14BD04B1F74FCF6081E4
:102760007181072E000C880B990B0E5F1F4F92CFC3
:10277000D32CE894D4F82AE030E0853739F1232DC2
:10278000297FD22E8F3601F148F48835A9F0F70160
:10279000868197812B96E2E10C949D0F803749F05A
:1027A0008837A9F7D4FE02C06894D2F820E130E05F
:1027B0000DC06894D4F8F6CF34FE03C0822F866033
:1027C000D82E20E132E002C028E030E0F801D7FE48
:1027D0000FC060817181828193810C5F1F4FA501C1
:1027E0000E947714C82ECA183D2CE89437F867CF9A
:1027F0006081718190E080E00E5F1F4FF0CF42FC5E
:1028000002C0839478CF8394839475CF842D867887
:1028100009F471CFF6CFB70180E290E00E9447142F
:1028200083948214C0F3512C73CF522C5818821405
:1028300008F46ECFF8CF842D867809F47BCF8BE235
:1028400041FE80E247FC8DE2B70190E071CFB70115
:1028500080E390E00E9447149A946CCF8FEF9FEF33
:1028600099CFFC010590615070400110D8F7809518
:1028700090958E0F9F1F0895FC016150704001904C
:102880000110D8F7809590958E0F9F1F08950F9394
:102890001F93CF93DF93182F092FEB018B8181FDBD
:1028A00009C01FEF0FEF812F902FDF91CF911F9164
:1028B0000F91089582FF14C02E813F818C819D81EC
:1028C000281739073CF4E881F981CF0101969983F3
:1028D000888310838E819F8101969F838E83E3CFAF
:1028E000E885F985812F0995892BA1F3DACFFA01C3
:1028F000AA27283051F1203181F1E8946F936E7F3F
:102900006E5F7F4F8F4F9F4FAF4FB1E03ED0B4E02F
:102910003CD0670F781F891F9A1FA11D680F791F70
:102920008A1F911DA11D6A0F711D811D911DA11D81
:1029300020D009F468943F912AE0269F1124301991
:10294000305D3193DEF6CF010895462F4770405D2C
:102950004193B3E00FD0C9F7F6CF462F4F70405DDB
:102960004A3318F0495D31FD4052419302D0A9F736
:10297000EACFB4E0A6959795879577956795BA9530
:10298000C9F700976105710508959B01AC010A2EF6
:1029900006945795479537952795BA95C9F7620FCD
:0E29A000731F841F951FA01D0895F894FFCF8C
:1029AE000000204000004000140054000000000011
:1029BE0071024402A3041A023D022A021B02000005
:1029CE0000009B040B01A304A204253032693A25B2
:1029DE003032693A25303269002000486F757273C3
:1029EE00202575004D696E7574657320257500443C
:1029FE0075726174696F6E20256C75005370726903
:102A0E006E6B6C6572204F6E00256C7520256C7593
:102A1E00005468726573686F6C64002573203E3DC8
:102A2E002025730054616E6B0025692525004261D7
:102A3E0074746572790043757272656E74204465A4
:082A4E0076696365002569004B
:00000001FF
