:100000000C9462000C948A000C948A000C948A0070
:100010000C948A000C948A000C948A000C948A0038
:100020000C948A000C948A000C948A000C948A0028
:100030000C948A000C948A000C948A000C948A0018
:100040000C9457040C948A000C948A000C948A0037
:100050000C948A000C948A000C948A000C948A00F8
:100060000C94A1040C948A000000000024002700D6
:100070002A0000000000250028002B0000000000DE
:1000800023002600290004040404040404040202DA
:100090000202020203030303030301020408102007
:1000A0004080010204081020010204081020000012
:1000B0000008000201000003040700000000000027
:1000C0000000C00511241FBECFEFD8E0DEBFCDBFBA
:1000D00011E0A0E0B1E0E0ECF9E102C005900D9282
:1000E000AE34B107D9F722E0AEE4B1E001C01D9211
:1000F000AF3AB207E1F710E0C2E6D0E004C02197C2
:10010000FE010E941C0AC136D107C9F70E946A0687
:100110000C94DE0C0C94000008950895AF92BF92E9
:10012000CF92DF92EF92FF920F931F93CF93DF93C3
:100130006C017B018B01040F151FEB015E01AE18F2
:10014000BF08C017D10759F06991D601ED91FC9114
:100150000190F081E02DC6010995892B79F7C50141
:10016000DF91CF911F910F91FF90EF90DF90CF9093
:10017000BF90AF900895833081F028F4813099F0DA
:100180008230A9F008958730A9F08830C9F0843012
:10019000B1F4809180008F7D03C0809180008F77C3
:1001A00080938000089584B58F7784BD089584B5C9
:1001B0008F7DFBCF8091B0008F778093B000089542
:1001C0008091B0008F7DF9CF1F93CF93DF93282FBD
:1001D00030E0F901E255FF4F8491F901E656FF4FF7
:1001E000D491F901EA57FF4FC491CC23A9F0162FFF
:1001F00081110E94BB00EC2FF0E0EE0FFF1FEE58C4
:10020000FF4FA591B4918FB7F894EC91111108C0EC
:10021000D095DE23DC938FBFDF91CF911F9108959E
:10022000DE2BF8CFCF93DF9390E0FC01E656FF4F33
:1002300024918A579F4FFC0184918823D1F090E04C
:10024000880F991FFC01E859FF4FA591B491FC015B
:10025000EE58FF4FC591D491623071F49FB7F89476
:100260003C91822F809583238C93E8812E2B2883C9
:100270009FBFDF91CF9108958FB7F894EC912E2B0B
:100280002C938FBFF6CF3FB7F894809101029091E5
:100290000202A0910302B091040226B5A89B05C0FA
:1002A0002F3F19F00196A11DB11D3FBFBA2FA92FF5
:1002B000982F8827BC01CD01620F711D811D911DF2
:1002C00042E0660F771F881F991F4A95D1F708955E
:1002D0008F929F92AF92BF92CF92DF92EF92FF9256
:1002E0006B017C010E9443014B015C01C114D104EC
:1002F000E104F104B9F00E944301681979098A09FF
:100300009B09683E73408105910580F321E0C21A84
:10031000D108E108F10888EE880E83E0981EA11C40
:10032000B11CE4CFFF90EF90DF90CF90BF90AF90E3
:100330009F908F9008952091B601260F3327331F89
:1003400021323105ECF42091DA01FC0190E080E0EB
:10035000243069F082E00895A091B6012191AC01AA
:100360004A565E4FA40FB52FB11D2C9301968617E8
:1003700098F38091B601680F6093B60180E008950C
:1003800081E008951092DA0181E08093DC011092FF
:10039000DB0161E082E10E94E40061E083E10E9410
:1003A000E400E9EBF0E080818E7F808380818D7FA7
:1003B000808388E48093B80085E48093BC0008952E
:1003C000CF93DF9391E0909395018823B9F0C0918A
:1003D000B800D091BA008091BC008A7B8093BC00A9
:1003E00060E082E10E94E40060E083E10E94E400BA
:1003F0000E94C201D093BA00C093B800DF91CF91A0
:1004000008950895E0910C0280910B02E81730F4F2
:10041000F0E0E059FE4F808190E008958FEF9FEF6C
:10042000089590910C0280910B022FEF3FEF9817E7
:1004300048F4E92FF0E0E059FE4F208130E09F5F63
:1004400090930C02C901089580910B0290910C02C7
:10045000891B990B0895CF92DF92EF92FF920F9331
:100460001F93CF93DF937C01CB018A0120916F0111
:10047000222389F0EB016B01C40ED51ECC15DD05DE
:1004800069F06991D701ED91FC910190F081E02D27
:10049000C7010995F3CF642F0E949B01C801DF912A
:1004A000CF911F910F91FF90EF90DF90CF90089523
:1004B000CF93DF931F92CDB7DEB7698320916F0191
:1004C0002223F9F020910902203258F021E030E097
:1004D000FC013383228390E080E00F90DF91CF9185
:1004E000089580910A02E82FF0E0E15BFE4F9981C8
:1004F00090838F5F80930A028093090281E090E0ED
:10050000ECCF61E0CE0101960E949B01F7CFCF9323
:10051000DF93EC0160E08A850E94E4001B86DF9196
:10052000CF910895CF93DF93EC0161E08A850E941B
:10053000E40081E08B87DF91CF910895CF92DF9225
:10054000EF92FF92CF93DF93C4E0D0E06C01990F5C
:10055000EE08FF088DE392E00E949202C701B60107
:100560000E9468018DE392E00E948702C701B601F4
:100570000E94680181E392E00E949202C701B601E5
:100580000E94680181E392E00E948702C701B601E0
:100590000E9468012197F1F6DF91CF91FF90EF90D3
:1005A000DF90CF900895FC01A081B18118968D91C4
:1005B0009D910D90BC91A02D4681578160857185DC
:1005C000840F951FA61FB71F86839783A087B187C7
:1005D000428153816481758184179507A607B70707
:1005E00038F0168217821086118681E090E0089517
:1005F00090E080E00895CF93DF93EC010E94D30256
:10060000892B69F08B85882329F0CE01DF91CF916A
:100610000C948702CE01DF91CF910C949202DF916E
:10062000CF910895CF92DF92EF92FF920F931F9395
:10063000CF93DF93D62F672FFC01C48181E0809395
:100640006F01C0934E0110920A021092090285E2D6
:1006500092E00E9458026D2F85E292E00E945802BB
:10066000D0910902D13208F092C00E9443016B017F
:100670007C018091DA01811165C082E08093DA010A
:1006800081E08093DC018FEF8093D9011092FE010D
:10069000D093FD01AFE4B1E0EDEDF1E080E0D813DF
:1006A00085C01092FF018091FF01CC0FC82BC09331
:1006B000FF018091DB01813009F07CC01092DB01E9
:1006C0000E9443016B017C018091FF018093BB007C
:1006D0008091910190919201A0919301B091940128
:1006E000892B8A2B8B2B99F00E9443010091910159
:1006F0001091920120919301309194016C197D0920
:100700008E099F090617170728073907E0F180911E
:10071000BC0083FDD9CF85EC8093BC000E944301CF
:100720006B017C018091DA01823009F445C080912F
:10073000D9018F3F61F18091D901803241F18091DF
:10074000D90125C08091910190919201A0919301CE
:10075000B0919401892B8A2B8B2B09F48ACF0E94AC
:1007600043010091910110919201209193013091E8
:1007700094016C197D098E099F0906171707280730
:10078000390708F076CF809190010E94E001109225
:100790000A021092090210926F01DF91CF911F910E
:1007A0000F91FF90EF90DF90CF9008959D919193DE
:1007B0008F5F75CF85EEB0CF8091910190919201BE
:1007C000A0919301B0919401892B8A2B8B2B09F472
:1007D000A9CF0E94430100919101109192012091B3
:1007E0009301309194016C197D098E099F090617B8
:1007F00017072807390708F095CFC5CF60E870E0E4
:1008000083EA92E00C94120361E070E083EA92E0E4
:100810000E9412038BE39FE10197F1F78091AC02F4
:1008200081110C94FE03089570E070640E9412031D
:1008300081E090E00895089590E080E0089585EDCE
:100840008093BC008091910190919201A0919301BD
:10085000B09194010796A11DB11D23E0B695A7950F
:10086000979587952A95D1F72091BC0024FD03C068
:100870001092DA0108954091910150919201609196
:10088000930170919401452B462B472B69F30097F8
:10089000A105B10541F025E32A95F1F70000019784
:1008A000A109B109E1CF809190010C94E0011F9260
:1008B0000F920FB60F9211242F933F938F939F9314
:1008C000AF93BF9380910D0290910E02A0910F0201
:1008D000B09110023091000223E0230F2D3758F51C
:1008E0000196A11DB11D2093000280930D029093EB
:1008F0000E02A0930F02B09310028091010290911A
:100900000202A0910302B09104020196A11DB11D43
:100910008093010290930202A0930302B093040219
:10092000BF91AF919F918F913F912F910F900FBEEB
:100930000F901F90189526E8230F0296A11DB11D58
:10094000D2CF1F920F920FB60F9211242F933F9385
:100950004F935F936F937F938F939F93AF93BF93C7
:10096000EF93FF938091B900887F803609F44AC0E5
:10097000F0F5883209F4A7C018F5803109F49BC05E
:10098000B8F4882309F4F9C0883009F494C0FF91C1
:10099000EF91BF91AF919F918F917F916F915F91F7
:1009A0004F913F912F910F900FBE0F901F90189570
:1009B000883109F488C0803251F78093D90114C07E
:1009C000803409F49DC040F48033B9F38833F9F6DC
:1009D0008093D90185ECB0C0803509F485C0883595
:1009E00009F496C0883499F60E941F04D0CF883944
:1009F00009F48CC038F5883729F050F4883611F0A6
:100A0000803729F683E08093DA011092D80157C02D
:100A1000883809F47BC0803919F0803809F0B7CFE5
:100A20008091D801803208F071C0E091D80181E056
:100A30008E0F8093D8018091BB00F0E0E854FE4F08
:100A400080833DC0803B39F0E0F4803A09F479C0FE
:100A5000883A09F09CCF84E08093DA011092B701C4
:100A60001092B601E0910702F09108020995809179
:100A7000B60181110FC081E08093B60110929601FA
:100A800009C0803C09F4A6CF883C09F4A3CF883B79
:100A900009F07DCFE091B70181E08E0F8093B7011F
:100AA000F0E0EA56FE4F80818093BB009091B70141
:100AB0008091B60129C08091FF018093BB0085EC35
:100AC0008093BC0064CF9091FE018091FD01981746
:100AD00058F5E091FE0181E08E0F8093FE01F0E079
:100AE000E352FE4F8081E9CFE091FE0181E08E0F5D
:100AF0008093FE018091BB00F0E0E352FE4F8083C3
:100B00009091FE018091FD019817C8F285E8D8CF39
:100B1000E091FE0181E08E0F8093FE018091BB0089
:100B2000F0E0E352FE4F80838091DC0181115CCFC5
:100B300081E08093DB0184EA8093BC001092DA01AB
:100B400026CF85EC8093BC001092DA018091D80109
:100B5000803230F4E091D801F0E0E854FE4F10828A
:100B60006091D80170E0E0910502F091060288EBF7
:100B700091E009951092D8010ACF1092D90134CF93
:100B8000CF92DF92EF92FF920F931F93CF93DF9359
:100B9000E5E2F2E01382128288EE93E0A0E0B0E09A
:100BA00084839583A683B78387E191E091838083D3
:100BB000E3EAF2E01382128289E291E0918380837A
:100BC00011868EE3848380E1828782E08387E9E96E
:100BD000F2E009E712E01183008380EA9FE0A0E0E1
:100BE000B0E082839383A483B58316821782108634
:100BF0001186EFE6F2E0118300838AEFC82ED12C34
:100C0000E12CF12CC282D382E482F5821682178213
:100C100010861186E5E6F2E01183008380ED97E00F
:100C2000A0E0B0E082839383A483B5831682178209
:100C300010861186C9E4D2E01B870A8784E090E021
:100C40009F8B8E8B188E198E1A8E1B8E198308839C
:100C50001A821B821C821D821E821F8218861986A0
:100C600061E00E94120160E08E890E94E4001D8A0A
:100C7000CDE3D2E01E821F8218861986198308836D
:100C8000CA82DB82EC82FD8285E08A8761E00E9475
:100C9000120160E08A850E94E400C1E3D2E01E8276
:100CA0001F8218861986198308831A821B821C8268
:100CB0001D8286E08A8761E00E94120160E08A85D9
:100CC000DF91CF911F910F91FF90EF90DF90CF9028
:100CD0000C94E400CF93DF9300D0CDB7DEB77894C7
:100CE00084B5826084BD84B5816084BD85B5826031
:100CF00085BD85B5816085BD80916E0081608093E2
:100D00006E0010928100809181008260809381004A
:100D1000809181008160809381008091800081605A
:100D2000809380008091B10084608093B1008091B5
:100D3000B00081608093B00080917A0084608093DD
:100D40007A0080917A00826080937A0080917A00A4
:100D5000816080937A0080917A00806880937A0025
:100D60001092C10010920C0210920B0210920A0213
:100D7000109209020E94C2018CE890E09093080250
:100D8000809307028DE890E090930602809305021D
:100D900080E18093A8028091AE02823018F098E141
:100DA0009093A8028093AB028BE39DE00197F1F74B
:100DB0006091A802606270E083EA92E00E941203F0
:100DC0008BE496E40197F1F76091A802606270E00D
:100DD00083EA92E00E94120383E592E00197F1F723
:100DE0006091A802606270E083EA92E00E941203C0
:100DF0006091A802606270E083EA92E00E941203B0
:100E000084E08093A9026CE070E083EA92E00E94A3
:100E100012030E94040482E08093AA0266E070E05C
:100E200083EA92E00E94120362E070E083EA92E0BB
:100E30000E9412038BE39FE10197F1F761E08DE0DF
:100E40000E94120161E08CE00E94120161E08BE0DF
:100E50000E94120161E08AE00E94120162E089E0D2
:100E60000E94120162E088E00E94120162E087E0C5
:100E70000E94120110922302ECE1F2E085E0DF0112
:100E80001D928A95E9F710921B0210921A0261E3F3
:100E900071E084E192E00E94360A73E0672E712CC3
:100EA0005CE3252EEE24E39465E0D62E8091790252
:100EB00090917A02A0917B02B0917C0280937D0296
:100EC00090937E02A0937F02B09380022FB7F89494
:100ED00080910D0290910E02A0910F02B09110022C
:100EE0002FBF8093790290937A02A0937B02B093F4
:100EF0007C0240917D0250917E0260917F02709150
:100F00008002841B950BA60BB70B809381029093F4
:100F10008202A0938302B09384024091890250918F
:100F20008A0260918B0270918C02840F951FA61F1C
:100F3000B71F8093890290938A02A0938B02B0938B
:100F40008C02883E9340A105B10568F080918F0224
:100F50008F5F80938F021092890210928A02109202
:100F60008B0210928C0280918F028C3338F080912A
:100F70008E0210928F028F5F80938E0280918E027C
:100F80008C3338F080918D0210928E028F5F8093A7
:100F90008D0280918D02893110F010928D02209186
:100FA0008D0240E15EE0249FC001259F900D112439
:100FB000092E000CAA0BBB0B40918E02429DA00192
:100FC0001124052E000C660B770B840F951FA61FAE
:100FD000B71F20918F02820F911DA11DB11D80931B
:100FE000850290938602A0938702B0938802809135
:100FF0002402882339F18FE692E00E94D302892BE4
:1010000071F080912302882391F01092230281E3F2
:1010100092E00E9487028DE392E00E94920240E0FB
:1010200050E0452B09F442CF0E94000039CFE092F6
:10103000230281E392E00E9492028DE392E00E94FB
:101040008702EDCF109213028FE091E09A8389839B
:101050009924939410E000E0A981BA81CD90BA83DD
:10106000A98360E08C2D0E94E4004CE0442E41E016
:10107000542EB12CA12CF20181902F01282D30E0AB
:10108000F901E255FF4F8491F901E656FF4FF490C4
:10109000F901EA57FF4F3490332009F485C08111DC
:1010A0000E94BB00E32DF0E0EE0FFF1FE458FF4F5E
:1010B000A591B491EC91FE2209F476C0FFEFAF1A2E
:1010C000BF0A23E0A216B104B1F661E08C2D0E94A4
:1010D000E4000F5F1F4F0430110509F0BDCF9920C8
:1010E00021F010921202109211028091110290913F
:1010F000120202979CF420911302222379F02A32E3
:1011000009F072C0E1E0F0E0F0932202E0932102E6
:10111000ACE1B2E0ED2D1D92EA95E9F70E94FE03E5
:10112000ECE1F2E001900020E9F7AF014D515240AF
:101130006CE172E083EA92E00E948E0080911902D5
:101140008823C1F0ACE1B2E0ED2D1D92EA95E9F7FC
:101150000E94040481E392E00E94920285E692E0FC
:101160000E94D302892B31F01092190281E392E0A0
:101170000E94870280912102909122028130910584
:1011800009F4B3C00CF04BC0892B09F048CF109282
:101190009F021092A0021092A1021092A2028DE36F
:1011A00092E00E94FB023BCFC801880F991F800F7D
:1011B000911F80509F4FA80EB91ED5018C9180932E
:1011C00013028091110290911202019690931202E3
:1011D0008093110261E0882D0E94E40061E08C2D73
:1011E0000E94E400912C71CF233229F470922202E4
:1011F0006092210293CFACE1B2E00D900020E9F7BC
:10120000CD018D519240049708F088CF20931A02A7
:101210006AE172E08CE192E00E94220A7FCF823084
:10122000910509F49DC0039709F0F9CE109275025B
:101230001092760210927702109278028DE392E07B
:101240000E94870264E172E08CE192E00E942D0A24
:10125000892B09F0B3C0E092240244E050E050939F
:101260002202409321020E94FE0347E050E066E321
:1012700071E083EA92E00E948E0080915E028230EB
:1012800009F4CDCE52E050935E0210924F021092BC
:1012900050021092510210925202E0915302F091CA
:1012A00054028F01095E1F4F86891F928F93858993
:1012B0001F928F9384891F928F938EE391E09F9367
:1012C0008F931F930F930E943D0AB80185E592E02A
:1012D0000E94360A61E080915F020E94E4000FB62E
:1012E000F894DEBF0FBECDBF9ACE8DE392E00E9490
:1012F000870281E392E00E94FB02ECE1F2E00190C0
:101300000020E9F7E152F24009F089CE64E172E091
:101310008CE192E00E942D0A892BD9F442E050E042
:101320005093220240932102ACE1B2E0ED2D1D92D8
:10133000EA95E9F70E9404048DE392E00E94870297
:1013400081E392E00E94870282E390E00E949E0285
:1013500066CEE092190270922202609221025FCE64
:101360008DE392E00E94870281E392E00E94FB02FB
:10137000ECE1F2E001900020E9F7E152F24009F0DF
:101380004ECE6CE172E084E192E00E94360AACE15C
:10139000B2E0ED2D1D92EA95E9F70E9404048DE379
:1013A00092E00E94870281E392E00E9487021092FD
:1013B0002202109221028AEF90E0C8CFE092190237
:1013C00010922202109221022ACE2F923F924F9227
:1013D0005F926F927F928F929F92AF92BF92CF92C5
:1013E000DF92EF92FF920F931F93CF93DF93CDB7CE
:1013F000DEB7CA1BDB0B0FB6F894DEBF0FBECDBF46
:1014000009942A88398848885F846E847D848C8416
:101410009B84AA84B984C884DF80EE80FD800C811F
:101420001B81AA81B981CE0FD11D0FB6F894DEBF02
:101430000FBECDBFED010895EE0FFF1F0590F49193
:10144000E02D0994FB01DC010D900020E9F71197D4
:1014500001900D920020E1F70895FB01DC018D91D0
:10146000019080190110D9F3990B0895FB01DC015B
:1014700001900D920020E1F70895AEE0B0E0E3E4C2
:10148000FAE00C94F3090D891E8986E08C831A8397
:1014900009838FEF9FE79E838D83AE01475E5F4F89
:1014A0006F89788DCE0101960E94600A2F81388560
:1014B000020F131FF80110822E96E4E00C940F0A1D
:1014C000ABE0B0E0E6E6FAE00C94E5097C013B0114
:1014D0008A01FC0117821682838181FFC8C1CE0177
:1014E00001965C01F7019381F30193FD859193FFD0
:1014F00081913F01882309F453C1853239F493FD6A
:10150000859193FF81913F01853229F4B70190E0E5
:101510000E94500CE7CF912C212C312CFFE1F315C8
:1015200038F08B3211F190F4803209F1833229F1D5
:1015300037FC3CC020ED280F2A3050F536FE20C085
:101540008AE0989E200D1124922E06C08D3291F0D3
:10155000803371F7689430F8F30193FD859193FF20
:1015600081913F018111DACF21C0689431F86894EC
:1015700032F8F2CF689433F8EFCF689434F8ECCFB8
:10158000EAE02E9E200D1124222E689435F8E4CF37
:101590008E3229F436FC04C1689436F8DDCF8C36DF
:1015A00019F4689437F8D8CF8836B1F2982F9F7D18
:1015B00095549330E0F08336A1F18337C1F1833540
:1015C00009F063C02801F2E04F0E511CF801C08001
:1015D000D180692D70E036FC02C06FEF7FEFC6014D
:1015E0000E943A0C4C01689437F882010AC00C5FE3
:1015F0001F4FFFE3F98388248394912C6501E894BD
:1016000037F833FE2DC0522C8114910471F555200A
:1016100009F468CFB70180E290E00E94500C5A9420
:10162000F6CFF801808189830E5F1F4FE4CF280138
:10163000F2E04F0E511CF801C080D180692D70E09E
:1016400036FC02C06FEF7FEFC6010E94450C4C01D3
:101650008201D5CFB70180E290E00E94500C2A941D
:101660002814190409F0B0F7CECFF60137FC8591A4
:1016700037FE81916F01B70190E00E94500C51102C
:101680005A94F1E08F1A9108BFCF843619F0893649
:1016900009F077C0F80137FE6BC0608171818281EB
:1016A00093810C5F1F4FF32DFF763F2E97FF09C0EC
:1016B00090958095709561957F4F8F4F9F4F68945F
:1016C00037F82AE030E0A5010E94800CC82ECA1825
:1016D0008C2C432C36FE0CC0E89440F8C91440F41E
:1016E00034FE05C032FC03C0F32DFE7E4F2E892C44
:1016F00044FE95C0FE01EC0DF11D8081803309F0A0
:1017000087C0242D297E422E842D8870582E43FCBC
:1017100095C040FE8FC09C2C821418F42C0C922C87
:10172000981844FE91C0B70180E390E00E94500CED
:1017300042FE09C088E790E041FE02C088E590E0E3
:10174000B7010E94500CC91408F48AC0CA94D12C65
:101750009FEFC91AD90ACA0CDB1CF60182916F01EE
:10176000B70190E00E94500CAC14BD04B1F74FCF0C
:1017700060817181072E000C880B990B0E5F1F4F43
:1017800092CFD32CE894D4F82AE030E0853739F1B1
:10179000232D297FD22E8F3601F148F48835A9F008
:1017A000F701868197812B96E2E10C94010A80373C
:1017B00049F08837A9F7D4FE02C06894D2F820E136
:1017C00030E00DC06894D4F8F6CF34FE03C0822F09
:1017D0008660D82E20E132E002C028E030E0F80137
:1017E000D7FE0FC060817181828193810C5F1F4F92
:1017F000A5010E94800CC82ECA183D2CE89437F829
:1018000067CF6081718190E080E00E5F1F4FF0CF65
:1018100042FC02C0839478CF8394839475CF842D47
:10182000867809F471CFF6CFB70180E290E00E948C
:10183000500C83948214C0F3512C73CF522C58183F
:10184000821408F46ECFF8CF842D867809F47BCF0C
:101850008BE241FE80E247FC8DE2B70190E071CF60
:10186000B70180E390E00E94500C9A946CCF8FEF08
:101870009FEF99CFFC010590615070400110D8F79F
:10188000809590958E0F9F1F0895FC0161507040C8
:1018900001900110D8F7809590958E0F9F1F0895A5
:1018A0000F931F93CF93DF93182F092FEB018B8199
:1018B00081FD09C01FEF0FEF812F902FDF91CF9196
:1018C0001F910F91089582FF14C02E813F818C815A
:1018D0009D81281739073CF4E881F981CF010196F1
:1018E0009983888310838E819F8101969F838E8345
:1018F000E3CFE885F985812F0995892BA1F3DACF0C
:10190000FA01AA27283051F1203181F1E8946F9330
:101910006E7F6E5F7F4F8F4F9F4FAF4FB1E03ED0D6
:10192000B4E03CD0670F781F891F9A1FA11D680F74
:10193000791F8A1F911DA11D6A0F711D811D911DA7
:10194000A11D20D009F468943F912AE0269F11241C
:101950003019305D3193DEF6CF010895462F477080
:10196000405D4193B3E00FD0C9F7F6CF462F4F70DB
:10197000405D4A3318F0495D31FD4052419302D039
:10198000A9F7EACFB4E0A6959795879577956795DF
:10199000BA95C9F700976105710508959B01AC01DF
:1019A0000A2E06945795479537952795BA95C9F706
:1019B000620F731F841F951FA01D0895F894FFCF19
:1019C0003132333435363738392A30230908070D98
:1019D0000C0B0A0000000058022B021C0401022418
:1019E00002110202020000000014048E001C041BFD
:1019F000043132333400456E61626C656400253019
:0E1A000032693A253032693A253032690000E9
:00000001FF
