:100000000C94DF000C9407010C9407010C94070179
:100010000C9407010C9407010C9407010C94070140
:100020000C9407010C9407010C9407010C94070130
:100030000C9407010C9407010C9407010C94070120
:100040000C946F050C9407010C9407010C940701A4
:100050000C9407010C9407010C9407010C94070100
:100060000C94B9050C94070100407A10F35A00A0D3
:10007000724E18090010A5D4E80000E87648170071
:1000800000E40B54020000CA9A3B000000E1F505B1
:10009000000080969800000040420F000000A086FB
:1000A00001000000102700000000E803000000002D
:1000B0006400000000000A000000000001000000D1
:1000C00000002C76D888DC674F0823DFC1DFAE59EB
:1000D000E1B1B796E5E3E453C63AE651997696E87E
:1000E000E6C28426EB898C9B62ED407C6FFCEFBC02
:1000F0009C9F40F2BAA56FA5F490055A2AF75C932D
:100100006B6CF9676DC11BFCE0E40D47FEF520E662
:10011000B500D0ED902E0300943577050080841E45
:10012000080000204E0A000000C80C333333330FA0
:10013000986E12831141EF8D2114893BE65516CF3D
:10014000FEE6DB18D1844B381BF77C1D901DA4BB49
:10015000E424203284725E228100C9F124ECA1E5FE
:100160003D270000000023002600290000000008B1
:10017000000201000003040700000000000000006E
:1001800000000000250028002B00000000002400D3
:1001900027002A00040404040404040402020202E6
:1001A000020203030303030301020408102040803A
:1001B0000102040810200102040810206407112421
:1001C0001FBECFEFD8E0DEBFCDBF11E0A0E0B1E0B1
:1001D000E4E4FAE202C005900D92AC3DB107D9F714
:1001E00023E0ACEDB1E001C01D92AB3FB207E1F7F7
:1001F00010E0CFEDD0E004C02197FE010E94721202
:10020000CE3DD107C9F70E9431080C9420150C94FB
:100210000000833081F028F4813099F08230A9F019
:1002200008958730A9F08830C9F08430B1F4809106
:1002300080008F7D03C0809180008F778093800045
:10024000089584B58F7784BD089584B58F7DFBCFE5
:100250008091B0008F778093B00008958091B000B6
:100260008F7DF9CF1F93CF93DF93282F30E0F901D3
:10027000E459FE4F8491F901E855FE4FD491F901FC
:10028000EC56FE4FC491CC23A9F0162F81110E9489
:100290000901EC2FF0E0EE0FFF1FE058FE4FA59193
:1002A000B4918FB7F894EC91111108C0D095DE236A
:1002B000DC938FBFDF91CF911F910895DE2BF8CF94
:1002C0003FB7F8948091C2029091C302A091C402FA
:1002D000B091C50226B5A89B05C02F3F19F0019625
:1002E000A11DB11D3FBFBA2FA92F982F8827BC0190
:1002F000CD01620F711D811D911D42E0660F771FB8
:10030000881F991F4A95D1F7089508950895AF92CF
:10031000BF92CF92DF92EF92FF920F931F93CF93F2
:10032000DF936C017B018B01040F151FEB015E0154
:10033000AE18BF08C017D10759F06991D601ED91E9
:10034000FC910190F081E02DC6010995892B79F788
:10035000C501DF91CF911F910F91FF90EF90DF903A
:10036000CF90BF90AF90089520914402260F33277D
:10037000331F21323105ECF420916802FC0190E03A
:1003800080E0243069F082E00895A0914402219138
:10039000AC014C5D5D4FA40FB52FB11D2C930196A0
:1003A000861798F380914402680F6093440280E0BE
:1003B000089581E008951092680281E080936A02B6
:1003C0001092690261E082E10E94320161E083E102
:1003D0000E943201E9EBF0E080818E7F8083808192
:1003E0008D7F808388E48093B80085E48093BC008F
:1003F0000895CF93DF9391E0909323028823B9F07F
:10040000C091B800D091BA008091BC008A7B8093E3
:10041000BC0060E082E10E94320160E083E10E9462
:1004200032010E94DB01D093BA00C093B800DF9183
:10043000CF9108950895E091950280919402E81774
:1004400030F4F0E0E250FE4F808190E008958FEFAD
:100450009FEF089590919502809194022FEF3FEFC6
:10046000981748F4E92FF0E0E250FE4F208130E089
:100470009F5F90939502C901089580919402909195
:100480009502891B990B0895CF92DF92EF92FF920C
:100490000F931F93CF93DF937C01CB018A012091AF
:1004A000FD01222389F0EB016B01C40ED51ECC1592
:1004B000DD0569F06991D701ED91FC910190F08122
:1004C000E02DC7010995F3CF642F0E94B401C80144
:1004D000DF91CF911F910F91FF90EF90DF90CF9020
:1004E0000895CF93DF931F92CDB7DEB76983209134
:1004F000FD012223F9F020919202203258F021E0F0
:1005000030E0FC013383228390E080E00F90DF91A4
:10051000CF91089580919302E82FF0E0E352FE4FCF
:10052000998190838F5F809393028093920281E000
:1005300090E0ECCF61E0CE0101960E94B401F7CFCC
:100540008F929F92AF92BF92CF92DF92EF92FF92E3
:10055000CF93DF93EC0188818E3008F08E50877046
:10056000806480937C0080917A00806480937A001C
:1005700080917A0086FDFCCF6091780070917900BF
:100580007B836A83072E000C880B990B0E94501105
:10059000288D398D4A8D5B8D0E9405126B017C017F
:1005A000C886D986EA86FB862C853D854E855F8583
:1005B0000E9405124B015C01A70196016C817D81AF
:1005C0008E819F810E9434109B01AC01C501B40152
:1005D0000E94A610688B798B8A8B9B8BDF91CF91C1
:1005E000FF90EF90DF90CF90BF90AF909F908F9053
:1005F0000895FC01A081B18118968D919D910D9077
:10060000BC91A02D4681578160857185840F951F0F
:10061000A61FB71F86839783A087B1874281538126
:100620006481758184179507A607B70738F016828D
:1006300017821086118681E090E0089590E080E0B6
:1006400008950F931F93CF93DF93EC01288130E03F
:10065000F901E459FE4F8491F901E855FE4F0491E8
:10066000F901EC56FE4F14911123A9F081110E945B
:100670000901E12FF0E0EE0FFF1FEE59FE4FA591AB
:10068000B491EC910E2339F01982188619861A86D6
:100690001B8680E005C08981811104C081E08983C7
:1006A00090E013C08C819D81AE81BF81892B8A2B04
:1006B0008B2B79F3CE0102960E94F90231E020E003
:1006C000892B09F430E0832F922FDF91CF911F9176
:1006D0000F910895CF92DF92EF92FF920F931F93A5
:1006E000CF93DF93D62F672FFC01C48181E08093E5
:1006F000FD01C093DC01109293021092920286ECED
:1007000092E00E9471026D2F86EC92E00E947102CD
:10071000D0919202D13208F092C00E9460016B0128
:100720007C0180916802811165C082E0809368023B
:1007300081E080936A028FEF8093670210928C02AF
:10074000D0938B02ADEDB1E0EBE6F2E080E0D813A0
:1007500085C010928D0280918D02CC0FC82BC09362
:100760008D0280916902813009F07CC0109269028B
:100770000E9460016B017C0180918D028093BB001F
:1007800080911F0290912002A0912102B09122023B
:10079000892B8A2B8B2B99F00E94600100911F02FC
:1007A0001091200220912102309122026C197D09C2
:1007B0008E099F090617170728073907E0F180916E
:1007C000BC0083FDD9CF85EC8093BC000E94600102
:1007D0006B017C0180916802823009F445C08091F0
:1007E00067028F3F61F180916702803241F1809111
:1007F000670225C080911F0290912002A0912102E2
:10080000B0912202892B8A2B8B2B09F48ACF0E946C
:10081000600100911F02109120022091210230916D
:1008200022026C197D098E099F09061717072807F0
:10083000390708F076CF80911E020E94F9011092CC
:100840009302109292021092FD01DF91CF911F91BD
:100850000F91FF90EF90DF90CF9008959D9191932D
:100860008F5F75CF85EEB0CF80911F0290912002EF
:10087000A0912102B0912202892B8A2B8B2B09F4A3
:10088000A9CF0E94600100911F02109120022091C7
:100890002102309122026C197D098E099F090617E9
:1008A00017072807390708F095CFC5CFCF93DF93F7
:1008B000CDB7DEB728970FB6F894DEBF0FBECDBF19
:1008C00098E0E4E0F1E0DE01119601900D929A9536
:1008D000E1F79091F703981708F48FEF90E0880FF5
:1008E000991F21E030E02C0F3D1F820F931FFC0168
:1008F0006081606870E08FEE93E028960FB6F89400
:10090000DEBF0FBECDBFDF91CF910C946A0361E0D3
:1009100070E08FEE93E00E946A038BE39FE1019702
:10092000F1F78091F803882319F080E00C945604C5
:10093000089570E070640E946A0381E090E0089579
:10094000089590E080E00895CF93DF93EC016C96DA
:10095000FC0185898230C1F050F4882391F06FE268
:1009600071E0813051F0CE01DF91CF910895833055
:1009700071F06FE371E08430B1F7CE010E9478121C
:10098000F2CF6AE271E0F9CF65E371E0F6CF69E397
:1009900071E0F3CF0F931F93CF93DF93FC01258971
:1009A000223099F1EC0182E0858B16821782108645
:1009B00011860284F385E02D8F01095E1F4F868921
:1009C0001F928F9385891F928F9384891F928F9393
:1009D00084E491E09F938F931F930F930E947F1263
:1009E000B801CE010C960E9478128DB79EB70A9678
:1009F0000FB6F8949EBF0FBE8DBF61E08E89DF9168
:100A0000CF911F910F910C943201DF91CF911F91E3
:100A10000F91089585ED8093BC0080911F02909105
:100A20002002A0912102B09122020796A11DB11DC2
:100A300023E0B695A795979587952A95D1F72091AC
:100A4000BC0024FD03C010926802089540911F026B
:100A5000509120026091210270912202452B462B79
:100A6000472B69F30097A105B10541F02AE22A95C9
:100A7000F1F700C00197A109B109E1CF80911E02F1
:100A80000C94F9010F931F93CF93DF938C01FC011A
:100A900001900020E9F73197AF01481B590BBC01C9
:100AA0008FEE93E00E948701E80109900020E9F7AA
:100AB0002197C01BD10BC031D10560F441E050E05B
:100AC00063E571E08FEE93E00E9487012196C031CB
:100AD000D105A1F7DF91CF911F910F9108951F923A
:100AE0000F920FB60F9211242F933F938F939F93E2
:100AF000AF93BF938091BE029091BF02A091C002BC
:100B0000B091C1023091BD0223E0230F2D3758F57B
:100B10000196A11DB11D2093BD028093BE0290934A
:100B2000BF02A093C002B093C1028091C202909113
:100B3000C302A091C402B091C5020196A11DB11DCE
:100B40008093C2029093C302A093C402B093C502E3
:100B5000BF91AF919F918F913F912F910F900FBEB9
:100B60000F901F90189526E8230F0296A11DB11D26
:100B7000D2CF1F920F920FB60F9211242F933F9353
:100B80004F935F936F937F938F939F93AF93BF9395
:100B9000EF93FF938091B900887F803609F44AC0B3
:100BA000F0F5883209F4A7C018F5803109F49BC02C
:100BB000B8F4882309F4F9C0883009F494C0FF918F
:100BC000EF91BF91AF919F918F917F916F915F91C5
:100BD0004F913F912F910F900FBE0F901F9018953E
:100BE000883109F488C0803251F78093670214C0BD
:100BF000803409F49DC040F48033B9F38833F9F6AA
:100C00008093670285ECB0C0803509F485C08835D3
:100C100009F496C0883499F60E940A05D0CF883925
:100C200009F48CC038F5883729F050F4883611F073
:100C3000803729F683E0809368021092660257C0DD
:100C4000883809F47BC0803919F0803809F0B7CFB3
:100C500080916602803208F071C0E091660281E006
:100C60008E0F809366028091BB00F0E0EA5BFD4F3F
:100C700080833DC0803B39F0E0F4803A09F479C0CC
:100C8000883A09F09CCF84E0809368021092450274
:100C900010924402E0919002F091910209958091A6
:100CA000440281110FC081E080934402109224021B
:100CB00009C0803C09F4A6CF883C09F4A3CF883B47
:100CC00009F07DCFE091450281E08E0F80934502CF
:100CD000F0E0EC5DFD4F80818093BB009091450278
:100CE0008091440229C080918D028093BB0085ECE5
:100CF0008093BC0064CF90918C0280918B029817F6
:100D000058F5E0918C0281E08E0F80938C02F0E028
:100D1000E559FD4F8081E9CFE0918C0281E08E0F93
:100D200080938C028091BB00F0E0E559FD4F8083F9
:100D300090918C0280918B029817C8F285E8D8CFE9
:100D4000E0918C0281E08E0F80938C028091BB0039
:100D5000F0E0E559FD4F808380916A0281115CCFFC
:100D600081E08093690284EA8093BC00109268025B
:100D700026CF85EC8093BC001092680280916602B9
:100D8000803230F4E0916602F0E0EA5BFD4F1082C1
:100D90006091660270E0E0918E02F0918F0286E42D
:100DA00092E00995109266020ACF1092670234CF42
:100DB000CF93DF93DC0118961D921D921D921C9219
:100DC0001B9785EC93E01D969C938E931C976C93D8
:100DD00013969C938E93129714962D933D934D9357
:100DE0005C93179770E0FB01E855FE4F84916C56B9
:100DF0007E4FFB0124912223C9F030E0220F331FE4
:100E0000F901E657FE4F45915491F901E058FE4F24
:100E1000C591D4912FB7F894FA013081982F90950D
:100E200093239083E8818E2B88832FBF11961C9289
:100E3000DF91CF910895CF93DF93DC0185EC93E0B0
:100E40001B969C938E931A9757967C936E93569706
:100E500058962D933D934D935C935B9711969C937D
:100E60008E9312962D933D934D935C931597169602
:100E70001D921D921D921C92199755961C92559782
:100E8000FB01E855FE4F84916C567E4FFB01649147
:100E9000662399F070E0660F771FFB01E657FE4F5F
:100EA000C591D491FB01E058FE4F259134919FB735
:100EB000F894E881E82BE8839FBF60E056968C9118
:100EC000DF91CF910C9432010F931F93CF93DF9357
:100ED000E6ECF2E01382128288EE93E0A0E0B0E04C
:100EE00084839583A683B78380E191E09183808397
:100EF000EFEEF3E01382128282E291E0918380832D
:100F000011868EE3848380E1828782E08387E5EE29
:100F1000F3E085EC93E09183808388E893E1A0E09F
:100F2000B0E082839383A483B583168217821086F0
:100F3000118628E833E140E050E062E070E083EAA7
:100F400093E00E941B0720E030E0A90163E070E01D
:100F500081E893E00E941B0720E030E0A90164E0F3
:100F600070E08FE593E00E941B0710925E0324EF70
:100F700031E040E050E069E080E593E00E94D8066F
:100F80002DE730E040E050E06AE082E493E00E9428
:100F9000D8062DE730E040E050E06BE084E393E0DA
:100FA0000E94D80620E030E0A9016CE086E293E0E0
:100FB0000E94D806EAE0F3E00AE018E220EA3BE308
:100FC000008F118F228F338F8EE090E0918380838A
:100FD00040E050E060EA70E44483558366837783A1
:100FE00080E090E0AAE7B4E484879587A687B78776
:100FF000148A158A168A178AEEEEF2E0008F118F96
:10100000228F338FCFE0D0E0D183C08344835583D8
:101010006683778384879587A687B787148A158A1E
:10102000168A178AE2EDF2E0008F118F228F338F3C
:1010300020E130E0318320834483558366837783C6
:1010400084879587A687B7878EE195E8ABE2B0E401
:10105000848B958BA68BB78BDF91CF911F910F91CE
:101060000895789484B5826084BD84B5816084BD20
:1010700085B5826085BD85B5816085BD80916E0036
:10108000816080936E001092810080918100826067
:1010900080938100809181008160809381008091A4
:1010A00080008160809380008091B1008460809393
:1010B000B1008091B00081608093B00080917A008F
:1010C000846080937A0080917A00826080937A00B5
:1010D00080917A00816080937A0080917A008068A4
:1010E00080937A001092C10010929502109294029F
:1010F00010929302109292020E94DB0185E891E027
:10110000909391028093900286E891E090938F02F1
:1011100080938E0280E18093F4038091FA03823001
:1011200018F098E19093F4038093F7038BE39DE02C
:101130000197F1F76091F403606270E08FEE93E045
:101140000E946A038BE496E40197F1F76091F4033F
:10115000606270E08FEE93E00E946A0383E592E0A4
:101160000197F1F76091F403606270E08FEE93E015
:101170000E946A036091F403606270E08FEE93E076
:101180000E946A0384E08093F5036CE070E08FEEC8
:1011900093E00E946A030E94870482E08093F60332
:1011A00066E070E08FEE93E00E946A0362E070E018
:1011B0008FEE93E00E946A038BE39FE10197F1F7C2
:1011C0002FB7F8948091BE029091BF02A091C00207
:1011D000B091C1022FBF8093C5039093C603A09323
:1011E000C703B093C80310925E03C6EAD2E091EE43
:1011F000C92E9AE7D92E94E6E92E90E4F92E20E83C
:10120000822E2EEE922E26E3A22EB12C8EE9282ECF
:1012100081E0382E8091C5039091C603A091C70349
:10122000B091C8038093C9039093CA03A093CB03E2
:10123000B093CC032FB7F8948091BE029091BF0277
:10124000A091C002B091C1022FBF8093C5039093BB
:10125000C603A093C703B093C8034091C90350913C
:10126000CA036091CB037091CC03841B950BA60B32
:10127000B70B8093CD039093CE03A093CF03B0938D
:10128000D0034091D5035091D6036091D70370915C
:10129000D803840F951FA61FB71F8093D503909383
:1012A000D603A093D703B093D803883E9340A105FB
:1012B000B10568F08091DB038F5F8093DB031092B0
:1012C000D5031092D6031092D7031092D8038091C1
:1012D000DB038C3338F08091DA031092DB038F5FED
:1012E0008093DA038091DA038C3338F08091D9034C
:1012F0001092DA038F5F8093D9038091D9038931EB
:1013000010F01092D9032091D90340E15EE0249FB0
:10131000C001259F900D1124092E000CAA0BBB0BB8
:101320004091DA032CE3429FA0011124052E000C0A
:10133000660B770B840F951FA61FB71F2091DB0349
:10134000820F911DA11DB11D8093D1039093D203F3
:10135000A093D303B093D4038AE093E00E94A00249
:101360008EEE92E00E94A0026091FE027091FF0258
:1013700080910003909101030E9418119B01AC0120
:10138000AAE0B0E00E94C10F28EF30E040E050E05A
:101390000E94A20FCA01B9010E9450116093B902C4
:1013A0007093BA028093BB029093BC0282ED92E0EC
:1013B0000E94A002209100013091010140910201A0
:1013C00050910301609112037091130380911403F3
:1013D000909115030E94001287FD4FC085EE93E0A7
:1013E0000E94F902892B41F08091B803811104C059
:1013F00083EA93E00E94CA0480915E03813009F47D
:1014000069C008F44FC0823009F487C086E293E0D7
:101410000E942103892B31F00E9487041092B802A8
:101420001092B70280E593E00E942103892B81F09E
:101430000091B7021091B8020E9487040F5F1F4FFE
:10144000093011050CF08BC01093B8020093B7025D
:10145000E091B702F091B802E930F10508F0C1C09F
:10146000EC5CF54F0C947212B40AF90A320B5F0B64
:10147000EF0B270CCC0CF10C1E0D1092EB0310920D
:10148000EC031092ED031092EE038091B8038D7F70
:1014900009F4B2CF1092B80360E08091B9030E94C2
:1014A0003201AACF8091B803823009F0AFCF83EA2E
:1014B00093E00E94F902892B09F4A8CF83E080937E
:1014C000B80360E08091B9030E94320181E080930B
:1014D0005E039CCF20E030E040E251E46091B9022D
:1014E0007091BA028091BB029091BC020E94A1103F
:1014F00087FF05C081E893E00E94CA0487CF8091EE
:101500009603843041F084E08093960360E08091FC
:1015100097030E94320182E0DACF24E13EEA4FE9EC
:1015200050E46091DA027091DB028091DC029091CC
:10153000DD020E94A11087FF03C08FE593E0DCCF9E
:1015400080917403843041F084E08093740360E000
:10155000809175030E94320110925E0357CF109262
:10156000B8021092B70274CF80E00E9456048091B6
:10157000DB031F928F938091DA031F928F938091E8
:10158000D9031F928F9384E491E09F938F938CED06
:1015900093E09F938F930E947F126CED73E086EA35
:1015A00092E00E94781286EA92E00E9442054DB7CE
:1015B0005EB7465F5F4F0FB6F8945EBF0FBE4DBF7C
:1015C0008091B803833069F481E00E9456046FEA89
:1015D00073E086EA92E00E94781286EA92E00E9426
:1015E000420580E090E0892B09F414CE0E940000AF
:1015F0000DCE82E493E00E942103892B39F0809183
:10160000D9038F5F893148F58093D90384E393E050
:101610000E942103892B39F08091D90381508931AF
:10162000F8F48093D90380E00E9456048091D90396
:101630001F928F9385E591E09F938F93DF93CF93D4
:101640000E947F1286EA92E00E9442050F900F905E
:101650000F900F900F900F90C4CF1092D903D6CF58
:1016600088E1DFCF82E493E00E942103892B39F0E7
:101670008091DA038F5F8C33E8F48093DA0384E39C
:1016800093E00E942103892B39F08091DA03815085
:101690008C3398F48093DA0380E00E9456048091A2
:1016A000DA031F928F938EE591E09F938F93DF93E0
:1016B000CF93C6CF1092DA03E2CF8BE3EBCF82E475
:1016C00093E00E942103892BE1F08091BB0390916C
:1016D000BC03A091BD03B091BE03805A9541AF4FAA
:1016E000BF4F81384EEE940746E3A407B10508F0DA
:1016F00064C08093BB039093BC03A093BD03B093DD
:10170000BE0384E393E00E942103892BE1F08091E2
:10171000BB039091BC03A091BD03B091BE03805662
:101720009A4EA109B10981385EEE950756E3A507E7
:10173000B10508F04BC08093BB039093BC03A0930A
:10174000BD03B093BE038091BB039091BC03A091F5
:10175000BD03B091BE038093A5039093A603A0930D
:10176000A703B093A80380E00E9456046091BB03D6
:101770007091BC038091BD039091BE0320E63AEEC8
:1017800040E050E00E9403105F934F933F932F93EC
:1017900089E691E09F938F93DF93CF930E947F120E
:1017A00086EA92E00E9442058DB79EB708960FB672
:1017B000F8949EBF0FBE8DBF14CF1092BB03109242
:1017C000BC031092BD031092BE039BCF8092BB035B
:1017D0009092BC03A092BD03B092BE03B4CF80E050
:1017E0000E94560486E791E00E94420581E00E9433
:1017F00056048091A8038F938091A7038F938091C3
:10180000A6038F938091A5038F938091AC038F9350
:101810008091AB038F938091AA038F938091A9034A
:101820008F9343E851E05F934F93DF93CF930E94F0
:101830007F1286EA92E00E9442054DB75EB7445F90
:101840005F4F0FB6F8945EBF0FBE4DBFCACE82E4A5
:1018500093E00E942103892B09F12AE037ED43E24E
:101860005CE360910001709101018091020190910F
:1018700003010E9435102B013C0121EE3AE744E6BA
:1018800050E40E94001218160CF470C0409200013F
:1018900050920101609202017092030184E393E08F
:1018A0000E942103892B01F12AE037ED43E25CE33A
:1018B00060910001709101018091020190910301FA
:1018C0000E9434102B013C0120E030E040E85FE34F
:1018D0000E94A11087FD57C0409200015092010163
:1018E000609202017092030180E00E9456048BE82E
:1018F00091E00E94420581E00E945604609112032B
:101900007091130380911403909115030EE912E076
:1019100022E043E00E944D0D6091000170910101B1
:10192000809102019091030106E912E022E043E078
:101930000E944D0DC8019F930F938EE992E09F93F3
:101940008F9380E991E09F938F93DF93CF930E94D1
:101950007F1286EA92E00E9442058DB79EB70896F4
:101960000FB6F8949EBF0FBE8DBF3BCE80E090E0D7
:10197000A0E8BFE38093000190930101A0930201CE
:10198000B09303018BCFC0920001D0920101E0928D
:101990000201F0920301A8CF80E00E94560489E979
:1019A00091E00E94420581E00E94560420E030E070
:1019B00040E251E46091B9027091BA028091BB0299
:1019C0009091BC020E94A61020E030E048EC52E466
:1019D0000E9405120E9418117F936F933F922F92DD
:1019E00066CE80E00E94560483EA91E00E944205A0
:1019F00081E00E94560420E030E040EA50E460912B
:101A0000DA027091DB028091DC029091DD020E948B
:101A1000A61020E030E048EC52E40E9405122DECC4
:101A20003CEC4CEC5DE30E9435100E9418117F9352
:101A30006F933F922F92DF93CF9302CE80E00E946C
:101A400056048BEA91E00E94420581E00E94560410
:101A500080915E038130C1F060F0823009F0C1CD29
:101A60008FE593E00E94A4049F938F938FEC91E005
:101A700008C083EA93E00E94A4049F938F938AEBAB
:101A800091E09F938F93D7CF81E893E00E94A404C5
:101A90009F938F9387EC91E0F4CFEF920F931F9376
:101AA000CF93DF93E80134E047FD34E1042E000CCE
:101AB000550B57FF03C0519541955109E32E022F55
:101AC000242FAE010E946B0DCE01DF91CF911F91AB
:101AD0000F91EF900895A9E0B0E0E1E7FDE00C94EC
:101AE000D20F6A01F22EB02E102FFBE3AF2EA016FC
:101AF00008F41BE31F5F012F27E0AE014F5F5F4F2C
:101B00000E94CA0EBC018981982F9970913009F406
:101B10003FC09BE2E1FC04C09E2D9170E0FC3AC006
:101B20005E2D5071E82FE87083FF46C084E091116C
:101B300001C083E0EF2DE81B8F1508F0E0E0D6012F
:101B40008E2F20E2552351F1992329F0D6019C9341
:101B5000C60101966C0196012D5F3F4FE2FE24C045
:101B60008EE4D6018C9391E411969C931197129672
:101B70008C93D9018E2F90E281111BC0E20FF32FBD
:101B8000F11D10828EEF9FEF2996ECE00C94EE0F82
:101B90009DE2C6CF90E2C4CF2D9381508111FCCF3E
:101BA000CE0ED11CE0E0D0CF8EE6D6018C9391E62C
:101BB000DBCF9D938150E0CF482F447082FF3DC022
:101BC00084E0911101C083E08F1510F4EF2DE81B24
:101BD000D6018E2F20E2552309F1992329F0D60151
:101BE0009C93C60101966C0196012D5F3F4FE2FE6A
:101BF0001BC089E4D6018C938EE411968C931197C7
:101C000086E412968C93D9018E2F90E2882309F4F2
:101C1000B5CF9D938150FACF2D9381508111FCCF88
:101C2000CE0ED11CE0E0D9CF89E6D6018C938EE6AA
:101C300011968C93119786E6E4CF9B0177FF02C043
:101C400030E020E0A1E0B0E0911102C0B0E0A0E0FF
:101C5000F9013196AE0FBF1F8B2C912CBB2009F4DC
:101C600061C05401EFEFAE1ABE0AAA0DBB1DFA16F1
:101C70001B0619F014F04F2D4A1B511188C0E3FCCC
:101C800059C07601A42FB0E2A1114FC0C40ED11CDF
:101C9000992309F45BC040E0D6011196F6019083C8
:101CA0006D01552309F448C0012F060F9A81582F62
:101CB000507184FF03C0913309F4015010160CF0E9
:101CC00047C0093008F008E0EEE2FE2E5B01A01AE2
:101CD000B10885019194819491082F3F320729F42E
:101CE000D601FC92F60131966F016217730794F1E9
:101CF000021713077CF5DB01A21BB30BAA24A394E4
:101D0000B12CAC0EBD1EAA0DBB1D11968C9121509D
:101D10003109D601119628153905F4F0F6018083B2
:101D20006D01DBCFB12CA12CA0CFF701B1937F01C6
:101D3000A150AACF9111B0CFD601942F50E302C089
:101D40005D9391509111FCCFC40ED11C40E0ACCFFB
:101D500001E0BACF80E3DBCF6217730731F496332B
:101D600088F4953311F4552369F0F6018083FD0161
:101D7000842F90E2811108C0A40FB11D1C9290E045
:101D800080E002CF81E3F1CF91938150F3CF9111A5
:101D900083CF8ACF283008F027E03327DA01990F64
:101DA000311D87FD916000966105710539F432603F
:101DB0002E5F3D9330E32A95E1F708959F3F30F081
:101DC00080387105610509F03C5F3C5F3D939130BF
:101DD00008F08068911DDF93CF931F930F93FF92BC
:101DE000EF92192F987F9695E92F96959695E90F82
:101DF000FF27EE53FF4F99273327EE24FF24A70137
:101E0000E70105900894079428F4360FE71EF81EA2
:101E1000491F511D660F771F881F991F0694A1F750
:101E20000590079428F4E70EF81E491F561FC11DA0
:101E3000770F881F991F661F0694A1F705900794D6
:101E400028F4F80E491F561FC71FD11D880F991F70
:101E5000661F771F0694A1F70590079420F4490F99
:101E6000561FC71FD81F990F661F771F881F06941C
:101E7000A9F784911095177041F0D695C79557959D
:101E80004795F794E7941A95C1F7E8E6F0E068946F
:101E90001590159135916591959105907FE2739517
:101EA000E118F10A430B560BC90BD009C0F7E10C3E
:101EB000F11E431F561FC91FD01D7EF4703311F44D
:101EC0008A95E6CFE894015030F0080F0AF4002715
:101ED000021708F4202F2395022F7A3328F079E394
:101EE0007D932A95E9F710C07D932A9589F606948B
:101EF00097956795379517951794E118F10A430B55
:101F0000560BC90BD00998F023957E9173957A33BF
:101F100008F070E37C932013B8F77E9170617D9395
:101F200030F0839571E37D9370E32A95E1F71124F6
:101F3000EF90FF900F911F91CF91DF91992787FD2F
:101F400090950895052E97FB1EF400940E94B90FFA
:101F500057FD07D00E94031007FC03D04EF40C94E9
:101F6000B90F50954095309521953F4F4F4F5F4F9A
:101F7000089590958095709561957F4F8F4F9F4FF5
:101F800008950E942510A59F900DB49F900DA49FC9
:101F9000800D911D112408952F923F924F925F92D0
:101FA0006F927F928F929F92AF92BF92CF92DF9269
:101FB000EF92FF920F931F93CF93DF93CDB7DEB7CE
:101FC000CA1BDB0B0FB6F894DEBF0FBECDBF099462
:101FD0002A88398848885F846E847D848C849B84B9
:101FE000AA84B984C884DF80EE80FD800C811B81C7
:101FF000AA81B981CE0FD11D0FB6F894DEBF0FBEF6
:10200000CDBFED010895A1E21A2EAA1BBB1BFD0155
:102010000DC0AA1FBB1FEE1FFF1FA217B307E407C7
:10202000F50720F0A21BB30BE40BF50B661F771F1F
:10203000881F991F1A9469F76095709580959095FF
:102040009B01AC01BD01CF010895A29FB001B39FD8
:10205000C001A39F700D811D1124911DB29F700DB1
:10206000811D1124911D08955058BB27AA270E9455
:102070004C100C94C6110E94B81138F00E94BF1188
:1020800020F039F49F3F19F426F40C94B5110EF4A6
:10209000E095E7FB0C94AF11E92F0E94D71158F39C
:1020A000BA17620773078407950720F079F4A6F53D
:1020B0000C94F9110EF4E0950B2EBA2FA02D0B0104
:1020C000B90190010C01CA01A0011124FF27591B7D
:1020D00099F0593F50F4503E68F11A16F040A22F83
:1020E000232F342F4427585FF3CF469537952795F4
:1020F000A795F0405395C9F77EF41F16BA0B620BF3
:10210000730B840BBAF09150A1F0FF0FBB1F661F39
:10211000771F881FC2F70EC0BA0F621F731F841F7C
:1021200048F4879577956795B795F7959E3F08F0A2
:10213000B0CF9395880F08F09927EE0F9795879564
:1021400008950E948B1108F481E008950E94BA104E
:102150000C94C6110E94BF1158F00E94B81140F0B3
:1021600029F45F3F29F00C94AF1151110C94FA112E
:102170000C94B5110E94D71168F39923B1F355233C
:1021800091F3951B550BBB27AA276217730784078A
:1021900038F09F5F5F4F220F331F441FAA1FA9F320
:1021A00035D00E2E3AF0E0E832D091505040E6950E
:1021B000001CCAF72BD0FE2F29D0660F771F881F6F
:1021C000BB1F261737074807AB07B0E809F0BB0B62
:1021D000802DBF01FF2793585F4F3AF09E3F510576
:1021E00078F00C94AF110C94FA115F3FE4F3983E31
:1021F000D4F3869577956795B795F7959F5FC9F75F
:10220000880F911D9695879597F90895E1E0660FDF
:10221000771F881FBB1F621773078407BA0720F058
:10222000621B730B840BBA0BEE1F88F7E0950895C1
:102230000E941F116894B1110C94FA1108950E9424
:10224000DF1188F09F5798F0B92F9927B751B0F058
:10225000E1F0660F771F881F991F1AF0BA95C9F72A
:1022600014C0B13091F00E94F911B1E008950C94BE
:10227000F911672F782F8827B85F39F0B93FCCF371
:10228000869577956795B395D9F73EF490958095A7
:10229000709561957F4F8F4F9F4F0895E89409C0C7
:1022A00097FB3EF490958095709561957F4F8F4F89
:1022B0009F4F9923A9F0F92F96E9BB279395F6959F
:1022C000879577956795B795F111F8CFFAF4BB0F1D
:1022D00011F460FF1BC06F5F7F4F8F4F9F4F16C081
:1022E000882311F096E911C0772321F09EE8872F0B
:1022F000762F05C0662371F096E8862F70E060E0C7
:102300002AF09A95660F771F881FDAF7880F96953F
:10231000879597F90895990F0008550FAA0BE0E8E3
:10232000FEEF16161706E807F907C0F01216130697
:10233000E407F50798F0621B730B840B950B39F4D7
:102340000A2661F0232B242B252B21F408950A263D
:1023500009F4A140A6958FEF811D811D089597F97D
:102360009F6780E870E060E008959FEF80EC08953B
:1023700000240A9416161706180609060895002464
:102380000A9412161306140605060895092E0394DE
:10239000000C11F4882352F0BB0F40F4BF2B11F452
:1023A00060FF04C06F5F7F4F8F4F9F4F089557FDB1
:1023B0009058440F551F59F05F3F71F04795880FB3
:1023C00097FB991F61F09F3F79F08795089512164A
:1023D00013061406551FF2CF4695F1DF08C01616F6
:1023E00017061806991FF1CF8695710561050894A7
:1023F0000895E894BB2766277727CB0197F90895BE
:102400000E948B1108F48FEF08950E9418120C940B
:10241000C6110E94B81138F00E94BF1120F0952318
:1024200011F00C94AF110C94B51111240C94FA1105
:102430000E94D71170F3959FC1F3950F50E0551F7F
:10244000629FF001729FBB27F00DB11D639FAA2709
:10245000F00DB11DAA1F649F6627B00DA11D661F58
:10246000829F2227B00DA11D621F739FB00DA11D79
:10247000621F839FA00D611D221F749F3327A00D33
:10248000611D231F849F600D211D822F762F6A2FCF
:1024900011249F5750409AF0F1F088234AF0EE0F34
:1024A000FF1FBB1F661F771F881F91505040A9F761
:1024B0009E3F510580F00C94AF110C94FA115F3FD0
:1024C000E4F3983ED4F3869577956795B795F7959D
:1024D000E7959F5FC1F7FE2B880F911D9695879515
:1024E00097F90895EE0FFF1F0590F491E02D0994E0
:1024F000FB01DC0101900D920020E1F70895AEE0B0
:10250000B0E0E5E8F2E10C94DA0F0D891E8986E06F
:102510008C831A8309838FEF9FE79E838D83AE019F
:10252000475E5F4F6F89788DCE0101960E94A2129F
:102530002F813885020F131FF80110822E96E4E0D8
:102540000C94F60FABE0B0E0E8EAF2E10C94CC0FAB
:102550007C013B018A01FC0117821682838181FF85
:10256000C8C1CE0101965C01F7019381F30193FD8F
:10257000859193FF81913F01882309F453C18532EE
:1025800039F493FD859193FF81913F01853229F4C0
:10259000B70190E00E949214E7CF912C212C312CAE
:1025A000FFE1F31538F08B3211F190F4803209F12C
:1025B000833229F137FC3CC020ED280F2A3050F53A
:1025C00036FE20C08AE0989E200D1124922E06C06F
:1025D0008D3291F0803371F7689430F8F30193FDF8
:1025E000859193FF81913F018111DACF21C06894D9
:1025F00031F8689432F8F2CF689433F8EFCF6894EA
:1026000034F8ECCFEAE02E9E200D1124222E68949F
:1026100035F8E4CF8E3229F436FC04C1689436F8DC
:10262000DDCF8C3619F4689437F8D8CF8836B1F2FC
:10263000982F9F7D95549330E0F08336A1F1833736
:10264000C1F1833509F063C02801F2E04F0E511C3F
:10265000F801C080D180692D70E036FC02C06FEFB8
:102660007FEFC6010E947C144C01689437F8820108
:102670000AC00C5F1F4FFFE3F98388248394912CD9
:102680006501E89437F833FE2DC0522C8114910473
:1026900071F5552009F468CFB70180E290E00E94FF
:1026A00092145A94F6CFF801808189830E5F1F4FF0
:1026B000E4CF2801F2E04F0E511CF801C080D18018
:1026C000692D70E036FC02C06FEF7FEFC6010E94FB
:1026D00087144C018201D5CFB70180E290E00E94BF
:1026E00092142A942814190409F0B0F7CECFF601F9
:1026F00037FC859137FE81916F01B70190E00E9410
:10270000921451105A94F1E08F1A9108BFCF843679
:1027100019F0893609F077C0F80137FE6BC0608187
:102720007181828193810C5F1F4FF32DFF763F2EC5
:1027300097FF09C090958095709561957F4F8F4F59
:102740009F4F689437F82AE030E0A5010E94C21438
:10275000C82ECA188C2C432C36FE0CC0E89440F8C6
:10276000C91440F434FE05C032FC03C0F32DFE7ED4
:102770004F2E892C44FE95C0FE01EC0DF11D808189
:10278000803309F087C0242D297E422E842D887045
:10279000582E43FC95C040FE8FC09C2C821418F428
:1027A0002C0C922C981844FE91C0B70180E390E065
:1027B0000E94921442FE09C088E790E041FE02C0E8
:1027C00088E590E0B7010E949214C91408F48AC009
:1027D000CA94D12C9FEFC91AD90ACA0CDB1CF60186
:1027E00082916F01B70190E00E949214AC14BD0475
:1027F000B1F74FCF60817181072E000C880B990BC8
:102800000E5F1F4F92CFD32CE894D4F82AE030E02B
:10281000853739F1232D297FD22E8F3601F148F4E7
:102820008835A9F0F701868197812B96E2E10C9417
:10283000E80F803749F08837A9F7D4FE02C06894C2
:10284000D2F820E130E00DC06894D4F8F6CF34FE21
:1028500003C0822F8660D82E20E132E002C028E03B
:1028600030E0F801D7FE0FC06081718182819381D1
:102870000C5F1F4FA5010E94C214C82ECA183D2C20
:10288000E89437F867CF6081718190E080E00E5F57
:102890001F4FF0CF42FC02C0839478CF839483947F
:1028A00075CF842D867809F471CFF6CFB70180E219
:1028B00090E00E94921483948214C0F3512C73CF41
:1028C000522C5818821408F46ECFF8CF842D8678D5
:1028D00009F47BCF8BE241FE80E247FC8DE2B70139
:1028E00090E071CFB70180E390E00E9492149A9437
:1028F0006CCF8FEF9FEF99CFFC0105906150704036
:102900000110D8F7809590958E0F9F1F0895FC01B8
:102910006150704001900110D8F7809590958E0F0E
:102920009F1F08950F931F93CF93DF93182F092FA5
:10293000EB018B8181FD09C01FEF0FEF812F902FDD
:10294000DF91CF911F910F91089582FF14C02E81C6
:102950003F818C819D81281739073CF4E881F981FA
:10296000CF0101969983888310838E819F81019680
:102970009F838E83E3CFE885F985812F0995892B85
:10298000A1F3DACFFA01AA27283051F1203181F1E1
:10299000E8946F936E7F6E5F7F4F8F4F9F4FAF4F67
:1029A000B1E03ED0B4E03CD0670F781F891F9A1F7A
:1029B000A11D680F791F8A1F911DA11D6A0F711D2E
:1029C000811D911DA11D20D009F468943F912AE03A
:1029D000269F11243019305D3193DEF6CF01089522
:1029E000462F4770405D4193B3E00FD0C9F7F6CF53
:1029F000462F4F70405D4A3318F0495D31FD40521B
:102A0000419302D0A9F7EACFB4E0A69597958795B0
:102A100077956795BA95C9F700976105710508958F
:102A20009B01AC010A2E069457954795379527953B
:102A3000BA95C9F7620F731F841F951FA01D0895D3
:042A4000F894FFCF38
:102A4400000020400000400014005400000000007A
:102A540071024402A1041A023D022A021B02000070
:102A6400000099048701A104A00449646C65005323
:102A7400746172740052756E00456E64656400532F
:102A8400746F7000253032693A253032693A253046
:102A94003269002000486F757273202575004D69F6
:102AA4006E75746573202575004475726174696F61
:102AB4006E20256C7500537072696E6B6C657220A4
:102AC4004F6E00256C7520256C75004461776E008F
:102AD4002573203E3D2025730054616E6B002569EB
:102AE40025250042617474657279004375727265BC
:102AF4006E742044657669636500537072696E6B09
:102B04006C65723A25730050756D703A25730047F1
:0C2B1400656E657261746F723A25730083
:00000001FF
