:100000000C9462000C948A000C948A000C948A0070
:100010000C948A000C948A000C948A000C948A0038
:100020000C948A000C948A000C948A000C948A0028
:100030000C948A000C948A000C948A000C948A0018
:100040000C941E030C948A000C94EC020C94C602CF
:100050000C948A000C948A000C948A000C948A00F8
:100060000C948A000C948A0008000000BE92244977
:10007000123EABAAAA2ABECDCCCC4C3E00000080DA
:10008000BEABAAAAAA3E00000000BF000000803F4D
:100090000000000000084178D3BB4387D1133D190D
:1000A0000E3CC3BD4282AD2B3E68EC8276BED98F3A
:1000B000E1A93E4C80EFFFBE01C4FF7F3F0000007E
:1000C0000000680311241FBECFEFD8E0DEBFCDBF14
:1000D00011E0A0E0B1E0E0E5F0E102C005900D9292
:1000E000AA32B107D9F721E0AAE2B1E001C01D921E
:1000F000A83FB207E1F710E0C2E6D0E004C02197C4
:10010000FE010E942008C136D107C9F70E94B7033B
:100110000C9426080C940000AF92BF92CF92DF920D
:10012000EF92FF920F931F93CF93DF936C017B01AC
:100130008B01040F151FEB015E01AE18BF08C0173D
:10014000D10759F06991D601ED91FC910190F081B0
:10015000E02DC6010995892B79F7C501DF91CF9173
:100160001F910F91FF90EF90DF90CF90BF90AF90D5
:100170000895FC01538D448D252F30E0842F90E0AD
:10018000821B930B541710F0CF9608950197089592
:10019000FC01918D828D981761F0A28DAE0FBF2F5B
:1001A000B11D5D968C91928D9F5F9F73928F90E0B1
:1001B00008958FEF9FEF0895FC01918D828D981720
:1001C00031F0828DE80FF11D858D90E008958FEF5D
:1001D0009FEF0895FC01918D228D892F90E0805C26
:1001E0009F4F821B91098F73992708958FE391E0A8
:1001F0000E94EA0021E0892B09F420E0822F089573
:1002000080E090E0892B29F00E94F60081110C9487
:1002100000000895FC01A48DA80FB92FB11DA35AA9
:10022000BF4F2C91848D90E001968F739927848F16
:10023000A689B7892C93A089B1898C918370806439
:100240008C93938D848D981306C00288F389E02DDA
:1002500080818F7D80830895EF92FF920F931F938B
:10026000CF93DF93EC0181E0888F9B8D8C8D981369
:100270001AC0E889F989808185FF15C09FB7F89475
:10028000EE89FF896083E889F989808183708064C1
:1002900080839FBF81E090E0DF91CF911F910F910C
:1002A000FF90EF900895F62E0B8D10E00F5F1F4F1B
:1002B0000F731127E02E8C8D8E110CC00FB607FC2A
:1002C000FACFE889F989808185FFF5CFCE010E94B8
:1002D0000A01F1CFEB8DEC0FFD2FF11DE35AFF4F1B
:1002E000F0829FB7F8940B8FEA89FB898081806246
:1002F000CFCFCF93DF93EC01888D8823B9F0AA8903
:10030000BB89E889F9898C9185FD03C0808186FDD0
:100310000DC00FB607FCF7CF8C9185FFF2CF80811F
:1003200085FFEDCFCE010E940A01E9CFDF91CF9189
:100330000895FC0101900020E9F73197AF01481BB7
:10034000590BBC018FE391E00C948C008F929F922B
:10035000AF92BF920F931F93CF93DF93CDB7DEB7CA
:10036000A1970FB6F894DEBF0FBECDBF19A24230E1
:1003700008F44AE08E010F5D1F4F842E912CB12CA2
:10038000A12CA50194010E94FE07E62FB901CA0124
:10039000EA30F4F4E05DD801EE938D01232B242B99
:1003A000252B79F790E080E0109719F0CD010E949D
:1003B0009901A1960FB6F894DEBF0FBECDBFDF91B5
:1003C000CF911F910F91BF90AF909F908F90089504
:1003D000E95CE1CF4F925F926F927F928F929F92F2
:1003E000AF92BF92CF92DF92EF92FF920F931F9343
:1003F000CF936B017C01742EAC019B010E94C4075A
:10040000882399F082E191E0CF911F910F91FF90A5
:10041000EF90DF90CF90BF90AF909F908F907F90A4
:100420006F905F904F900C94990146015701E894AA
:10043000B7F82FEF3FEF4FE75FE7C501B4010E9428
:10044000C40781110DC02FEF3FEF4FE75FE7C501F4
:10045000B4010E94AA0518161CF486E191E0D4CFDD
:100460002FEF3FEF4FE75FE4C701B6010E9402079D
:1004700018161CF48AE191E0C7CF2FEF3FEF4FE74A
:100480005FECC701B6010E94AA0587FDF3CF20E00B
:1004900030E0A901C701B6010E94AA0510E000E002
:1004A00087FF0AC06DE28FE391E00E942C018C016E
:1004B000F7FAF094F7F8F094C0E060E070E080E0C4
:1004C0009FE37C1641F020E030E040E251E40E94DE
:1004D000AF05CF5FF6CFA70196010E943E052B0125
:1004E0003C010E9421064B015C014AE00E94A601EA
:1004F0007C01E00EF11ECC23C1F1C501B4010E94C4
:1005000050069B01AC01C301B2010E943D054B01A5
:100510005C016EE28FE391E00E942C01E80EF91E6F
:10052000C15018F120E030E040E251E4C501B401CF
:100530000E9457072B013C010E9421064B01B12C60
:10054000A12C4AE0C501B4010E94A601E80EF91EE3
:10055000C501B4010E9450069B01AC01C301B20168
:100560000E943D054B015C01DBCFC701CF911F917C
:100570000F91FF90EF90DF90CF90BF90AF909F9042
:100580008F907F906F905F904F9008951F920F9281
:100590000FB60F9211242F933F934F935F936F9356
:1005A0007F938F939F93AF93BF93EF93FF938FE3CB
:1005B00091E00E940A01FF91EF91BF91AF919F914D
:1005C0008F917F916F915F914F913F912F910F90FC
:1005D0000FBE0F901F9018951F920F920FB60F929B
:1005E00011242F938F939F93EF93FF93E0914F01EB
:1005F000F09150018081E0915501F091560182FD0A
:100600001BC09081809158018F5F8F732091590199
:10061000821741F0E0915801F0E0E15CFE4F958FC8
:1006200080935801FF91EF919F918F912F910F909F
:100630000FBE0F901F9018958081F4CF1F920F92DC
:100640000FB60F9211242F933F938F939F93AF93E5
:10065000BF9380912F0190913001A0913101B09111
:10066000320130912E0123E0230F2D3758F50196EA
:10067000A11DB11D20932E0180932F019093300175
:10068000A0933101B093320180912A0190912B0106
:10069000A0912C01B0912D010196A11DB11D809357
:1006A0002A0190932B01A0932C01B0932D01BF91AF
:1006B000AF919F918F913F912F910F900FBE0F900F
:1006C0001F90189526E8230F0296A11DB11DD2CFC9
:1006D000EFE3F1E01382128288EE93E0A0E0B0E055
:1006E00084839583A683B78384E091E0918380839C
:1006F00085EC90E09587848784EC90E097878687E7
:1007000080EC90E0918B808B81EC90E0938B828BDE
:1007100082EC90E0958B848B86EC90E0978B868BB7
:10072000118E128E138E148EECEDF1E08AE098E2B9
:10073000A0EABBE3808F918FA28FB38F8EE090E011
:100740009183808380E090E0A0EAB0E48483958385
:10075000A683B78380E090E4ACE1B6E48487958714
:10076000A687B787148A158A168A178A0895CF93A1
:10077000DF9300D000D0CDB7DEB7789484B5826027
:1007800084BD84B5816084BD85B5826085BD85B535
:10079000816085BD80916E00816080936E001092B3
:1007A000810080918100826080938100809181002E
:1007B00081608093810080918000816080938000BF
:1007C0008091B10084608093B1008091B00081601D
:1007D0008093B00080917A00846080937A00809149
:1007E0007A00826080937A0080917A0081608093A1
:1007F0007A0080917A00806880937A001092C1001C
:10080000E0914F01F091500182E08083E0914B0133
:10081000F0914C011082E0914D01F0914E0180E188
:10082000808310925701E0915301F091540186E0CA
:100830008083E0915101F091520180818061808339
:10084000E0915101F0915201808188608083E091B4
:100850005101F0915201808180688083E0915101C3
:10086000F091520180818F7D80838091DC018E30F8
:1008700008F08E508770806480937C0080917A00AD
:10088000806480937A0080917A0086FDFCCF80910D
:10089000780060917900762F682F7093DF01609364
:1008A000DE01072E000C880B990B0E945206209146
:1008B000F4013091F5014091F6015091F7010E9449
:1008C00057076B017C01C092E401D092E501E092F0
:1008D000E601F092E7012091E8013091E9014091B1
:1008E000EA015091EB010E9457074B015C01A701FF
:1008F00096016091E0017091E1018091E201909197
:10090000E3010E943D059B01AC01C501B4010E94B9
:10091000AF052B013C014092EC015092ED01609239
:10092000EE017092EF010E940F074B015C012CE673
:100930003FEC48E554E30E945707A50194010E944B
:100940005707A50194010E94570769837A838B8317
:100950009C8326ED34E649E759E3C501B4010E94C2
:1009600057072BEC38E444E85AE30E943E059B010C
:10097000AC0169817A818B819C810E943E059B013B
:10098000AC0160E070E080E89FE30E94AF0523E3E4
:1009900033E948E853E40E943D0560933B017093BE
:1009A0003C0180933D0190933E0120E030E040E126
:1009B00051E40E94570720E030E040EA50E40E94F2
:1009C000AF0520E030E040E052E40E943E05609335
:1009D0003701709338018093390190933A01A30154
:1009E00092016091330170913401809135019091B1
:1009F00036010E94AA05882399F140923301509252
:100A00003401609235017092360142E0C701B601AF
:100A10000E94EA018EE191E00E94990160913B0100
:100A200070913C0180913D0190913E0142E00E9415
:100A3000EA0182E291E00E94990160913701709190
:100A400038018091390190913A0142E00E94EA0117
:100A500088E291E00E94990186E291E00E9499016A
:100A600080E090E0892B09F400CF0E94F6008823F3
:100A700009F4FBCE0E940000F8CE5058BB27AA27ED
:100A80000E9455050C94C8060E94BA0638F00E94D0
:100A9000C10620F039F49F3F19F426F40C94B706F0
:100AA0000EF4E095E7FB0C94B106E92F0E94D906FD
:100AB00058F3BA17620773078407950720F079F493
:100AC000A6F50C94FB060EF4E0950B2EBA2FA02D84
:100AD0000B01B90190010C01CA01A0011124FF27EB
:100AE000591B99F0593F50F4503E68F11A16F040E6
:100AF000A22F232F342F4427585FF3CF46953795E5
:100B00002795A795F0405395C9F77EF41F16BA0BA9
:100B1000620B730B840BBAF09150A1F0FF0FBB1F57
:100B2000661F771F881FC2F70EC0BA0F621F731FA0
:100B3000841F48F4879577956795B795F7959E3FFD
:100B400008F0B0CF9395880F08F09927EE0F97958E
:100B5000879508950E948D0608F481E008950E940B
:100B6000C3050C94C8060E94C10658F00E94BA063C
:100B700040F029F45F3F29F00C94B10651110C9418
:100B8000FC060C94B7060E94D90668F39923B1F3CA
:100B9000552391F3951B550BBB27AA2762177307A3
:100BA000840738F09F5F5F4F220F331F441FAA1F37
:100BB000A9F335D00E2E3AF0E0E832D091505040F3
:100BC000E695001CCAF72BD0FE2F29D0660F771FA1
:100BD000881FBB1F261737074807AB07B0E809F087
:100BE000BB0B802DBF01FF2793585F4F3AF09E3F0C
:100BF000510578F00C94B1060C94FC065F3FE4F3C9
:100C0000983ED4F3869577956795B795F7959F5F4E
:100C1000C9F7880F911D9695879597F90895E1E09A
:100C2000660F771F881FBB1F621773078407BA07F9
:100C300020F0621B730B840BBA0BEE1F88F7E09554
:100C400008950E94E10688F09F5798F0B92F9927E0
:100C5000B751B0F0E1F0660F771F881F991F1AF0A7
:100C6000BA95C9F714C0B13091F00E94FB06B1E00B
:100C700008950C94FB06672F782F8827B85F39F00A
:100C8000B93FCCF3869577956795B395D9F73EF440
:100C900090958095709561957F4F8F4F9F4F0895E8
:100CA000E89409C097FB3EF4909580957095619506
:100CB0007F4F8F4F9F4F9923A9F0F92F96E9BB27BC
:100CC0009395F695879577956795B795F111F8CF38
:100CD000FAF4BB0F11F460FF1BC06F5F7F4F8F4FA3
:100CE0009F4F16C0882311F096E911C0772321F099
:100CF0009EE8872F762F05C0662371F096E8862F31
:100D000070E060E02AF09A95660F771F881FDAF787
:100D1000880F9695879597F90895990F0008550FB4
:100D2000AA0BE0E8FEEF16161706E807F907C0F071
:100D300012161306E407F50798F0621B730B840B79
:100D4000950B39F40A2661F0232B242B252B21F453
:100D500008950A2609F4A140A6958FEF811D811DF3
:100D6000089597F99F6780E870E060E008959FEF2D
:100D700080EC089500240A94161617061806090632
:100D8000089500240A941216130614060506089501
:100D9000092E0394000C11F4882352F0BB0F40F489
:100DA000BF2B11F460FF04C06F5F7F4F8F4F9F4FC9
:100DB000089557FD9058440F551F59F05F3F71F04B
:100DC0004795880F97FB991F61F09F3F79F08795B2
:100DD0000895121613061406551FF2CF4695F1DF3B
:100DE00008C0161617061806991FF1CF86957105CB
:100DF000610508940895E894BB2766277727CB01FF
:100E000097F908950E948D0608F48FEF089516F063
:100E10000C94C9070C94B70668940C94B1060E9410
:100E2000E106A8F39923C1F3AEF3DF93CF931F93A9
:100E30000F93FF92C92FDD2788232AF02197660F91
:100E4000771F881FDAF720E030E040E85FEB9FE390
:100E5000883920F0803E38F021968F770E943E0539
:100E6000E8E6F0E004C00E943E05E5E9F0E00E94FB
:100E7000D7078B01BE01EC01FB2E6F5771097595E9
:100E8000771F880B990B0E94520628E132E741E355
:100E90005FE30E946A07AF2D9801AE01FF900F91AA
:100EA0001F91CF91DF910E9455050C94C8060E94B6
:100EB0006A070C94C8060E94BA0638F00E94C10660
:100EC00020F0952311F00C94B1060C94B706112470
:100ED0000C94FC060E94D90670F3959FC1F3950F00
:100EE00050E0551F629FF001729FBB27F00DB11DAE
:100EF000639FAA27F00DB11DAA1F649F6627B00D3E
:100F0000A11D661F829F2227B00DA11D621F739F26
:100F1000B00DA11D621F839FA00D611D221F749F34
:100F20003327A00D611D231F849F600D211D822F7B
:100F3000762F6A2F11249F5750409AF0F1F08823A2
:100F40004AF0EE0FFF1FBB1F661F771F881F9150CF
:100F50005040A9F79E3F510580F00C94B1060C94C7
:100F6000FC065F3FE4F3983ED4F38695779567954A
:100F7000B795F795E7959F5FC1F7FE2B880F911DF9
:100F80009695879597F908950E948D06880B990B81
:100F900008959F3F31F0915020F48795779567959C
:100FA000B795880F911D9695879597F90895DF93CA
:100FB000CF931F930F93FF92EF92DF927B018C01EF
:100FC000689406C0DA2EEF010E946A07FE01E894D9
:100FD000A5912591359145915591A6F3EF010E9478
:100FE0005505FE019701A801DA9469F7DF90EF90AB
:100FF000FF900F911F91CF91DF910895A1E21A2EDA
:10100000AA1BBB1BFD010DC0AA1FBB1FEE1FFF1FAC
:10101000A217B307E407F50720F0A21BB30BE40BFC
:10102000F50B661F771F881F991F1A9469F7609543
:101030007095809590959B01AC01BD01CF010895FD
:10104000EE0FFF1F0590F491E02D0994F894FFCF67
:10105000000000002C018C00B9007901EA00C800F2
:10106000DC006E616E00696E66006F766600094393
:0A1070003A0009463A000D0A00009C
:00000001FF
