:100000000C9458000C9480000C9480000C94800098
:100010000C9480000C9480000C9480000C94800060
:100020000C9480000C9480000C9480000C94800050
:100030000C9480000C9480000C9480000C94800040
:100040000C94CC040C9480000C949A040C947404CA
:100050000C9480000C9480000C9480000C94800020
:100060000C9416050C948000000000002500280068
:100070002B00040404040404040402020202020229
:10008000030303030303010204081020408001025C
:1000900004081020010204081020000000080002DB
:1000A0000100000304070000000000000000350606
:1000B00011241FBECFEFD8E0DEBFCDBF11E0A0E01E
:1000C000B1E0E6E7F8E102C005900D92A034B10777
:1000D000D9F722E0A0E4B1E001C01D92AE3FB20723
:1000E000E1F710E0C8E5D0E004C02197FE010E94CE
:1000F000330CC735D107C9F70E94AD060C94390CF3
:100100000C94000008950895AF92BF92CF92DF92B1
:10011000EF92FF920F931F93CF93DF936C017B01BC
:100120008B01040F151FEB015E01AE18BF08C0174D
:10013000D10759F06991D601ED91FC910190F081C0
:10014000E02DC6010995892B79F7C501DF91CF9183
:100150001F910F91FF90EF90DF90CF90BF90AF90E5
:100160000895FC01538D448D252F30E0842F90E0BD
:10017000821B930B541710F0CF96089501970895A2
:10018000FC01918D828D981761F0A28DAE0FBF2F6B
:10019000B11D5D968C91928D9F5F9F73928F90E0C1
:1001A00008958FEF9FEF0895FC01918D828D981730
:1001B00031F0828DE80FF11D858D90E008958FEF6D
:1001C0009FEF0895FC01918D228D892F90E0805C36
:1001D0009F4F821B91098F739927089583E092E0C6
:1001E0000E94E20021E0892B09F420E0822F08958B
:1001F00080E090E0892B29F00E94EE0081110C94A0
:1002000000000895FC01A48DA80FB92FB11DA35AB9
:10021000BF4F2C91848D90E001968F739927848F26
:10022000A689B7892C93A089B1898C918370806449
:100230008C93938D848D981306C00288F389E02DEA
:1002400080818F7D80830895EF92FF920F931F939B
:10025000CF93DF93EC0181E0888F9B8D8C8D981379
:100260001AC0E889F989808185FF15C09FB7F89485
:10027000EE89FF896083E889F989808183708064D1
:1002800080839FBF81E090E0DF91CF911F910F911C
:10029000FF90EF900895F62E0B8D10E00F5F1F4F2B
:1002A0000F731127E02E8C8D8E110CC00FB607FC3A
:1002B000FACFE889F989808185FFF5CFCE010E94C8
:1002C0000201F1CFEB8DEC0FFD2FF11DE35AFF4F33
:1002D000F0829FB7F8940B8FEA89FB898081806256
:1002E000CFCFCF93DF93EC01888D8823B9F0AA8913
:1002F000BB89E889F9898C9185FD03C0808186FDE1
:100300000DC00FB607FCF7CF8C9185FFF2CF80812F
:1003100085FFEDCFCE010E940201E9CFDF91CF91A1
:10032000089590E0FC01E656FF4F2491FC01EA5746
:10033000FF4F3491FC01EE58FF4FE491EE23C9F0DA
:10034000222339F0233001F1A8F4213019F12230B1
:1003500029F1F0E0EE0FFF1FE859FF4FA591B4918E
:100360008FB7F894EC91611126C030953E233C93F1
:100370008FBF08952730A9F02830C9F0243049F7FD
:10038000809180008F7D03C0809180008F77809363
:100390008000DFCF84B58F7784BDDBCF84B58F7DC0
:1003A000FBCF8091B0008F778093B000D2CF809147
:1003B000B0008F7DF9CF3E2BDACF3FB7F894809114
:1003C000F3019091F401A091F501B091F60126B5E9
:1003D000A89B05C02F3F19F00196A11DB11D3FBF7D
:1003E000BA2FA92F982F8827BC01CD01620F711D4C
:1003F000811D911D42E0660F771F881F991F4A9546
:10040000D1F708952091A801260F3327331F2132F9
:100410003105ECF42091CC01FC0190E080E0243027
:1004200069F082E00895A091A8012191AC0148579C
:100430005E4FA40FB52FB11D2C930196861798F32C
:100440008091A801680F6093A80180E0089581E081
:1004500008951092CC0181E08093CE011092CD01DD
:1004600061E082E10E94910161E083E10E949101DB
:10047000E9EBF0E080818E7F808380818D7F8083B7
:1004800088E48093B80085E48093BC000895CF93FE
:10049000DF9391E0909387018823B9F0C091B80071
:1004A000D091BA008091BC008A7B8093BC0060E050
:1004B00082E10E94910160E083E10E9491010E942B
:1004C0002902D093BA00C093B800DF91CF9108956C
:1004D0000895E091FE018091FD01E81730F4F0E00D
:1004E000EE59FE4F808190E008958FEF9FEF0895C1
:1004F0009091FE018091FD012FEF3FEF981748F496
:10050000E92FF0E0EE59FE4F208130E09F5F90939D
:10051000FE01C90108958091FD019091FE01891BA2
:10052000990B0895CF92DF92EF92FF920F931F9352
:10053000CF93DF937C01CB018A01209161012223BB
:1005400089F0EB016B01C40ED51ECC15DD0569F0F9
:100550006991D701ED91FC910190F081E02DC701E7
:100560000995F3CF642F0E940202C801DF91CF9159
:100570001F910F91FF90EF90DF90CF900895CF9350
:10058000DF931F92CDB7DEB76983209161012223EB
:10059000F9F02091FB01203258F021E030E0FC011D
:1005A0003383228390E080E00F90DF91CF91089514
:1005B0008091FC01E82FF0E0EF5BFE4F9981908382
:1005C0008F5F8093FC018093FB0181E090E0ECCF92
:1005D00061E0CE0101960E940202F7CFCF92DF9236
:1005E000EF92FF920F931F93CF93DF93D62F672F36
:1005F000FC01C48181E080936101C09340011092AD
:10060000FC011092FB0180EA92E00E94BF026D2F74
:1006100080EA92E00E94BF02D091FB01D13208F043
:1006200092C00E94DD016B017C018091CC0181119F
:1006300065C082E08093CC0181E08093CE018FEF92
:100640008093CB011092F001D093EF01A1E4B1E0CF
:10065000EFECF1E080E0D81385C01092F1018091B9
:10066000F101CC0FC82BC093F1018091CD018130F5
:1006700009F07CC01092CD010E94DD016B017C016C
:100680008091F1018093BB0080918301909184015E
:10069000A0918501B0918601892B8A2B8B2B99F033
:1006A0000E94DD0100918301109184012091850158
:1006B000309186016C197D098E099F09061717076D
:1006C00028073907E0F18091BC0083FDD9CF85EC84
:1006D0008093BC000E94DD016B017C018091CC0104
:1006E000823009F445C08091CB018F3F61F1809148
:1006F000CB01803241F18091CB0125C080918301F3
:1007000090918401A0918501B0918601892B8A2B5B
:100710008B2B09F48ACF0E94DD0100918301109197
:10072000840120918501309186016C197D098E0923
:100730009F09061717072807390708F076CF809119
:1007400082010E9447021092FC011092FB0110925C
:100750006101DF91CF911F910F91FF90EF90DF909A
:10076000CF9008959D9191938F5F75CF85EEB0CF17
:100770008091830190918401A0918501B0918601BF
:10078000892B8A2B8B2B09F4A9CF0E94DD010091C4
:1007900083011091840120918501309186016C19AB
:1007A0007D098E099F09061717072807390708F0E2
:1007B00095CFC5CF60E870E082EF92E00C94EE0236
:1007C00070E070640E94EE0281E090E00895089568
:1007D00090E080E00895FC0101900020E9F7319756
:1007E000AF01481B590BBC0183E092E00C948400DC
:1007F0008F929F92AF92BF920F931F93CF93DF93ED
:10080000CDB7DEB7A1970FB6F894DEBF0FBECDBF50
:1008100019A2423008F44AE08E010F5D1F4F842E6A
:10082000912CB12CA12CA50194010E94110CE62F52
:10083000B901CA01EA30F4F4E05DD801EE938D010C
:10084000232B242B252B79F790E080E0109719F0CB
:10085000CD010E94EB03A1960FB6F894DEBF0FBE48
:10086000CDBFDF91CF911F910F91BF90AF909F901F
:100870008F900895E95CE1CF85ED8093BC00809175
:10088000830190918401A0918501B0918601079622
:10089000A11DB11D23E0B695A795979587952A953B
:1008A000D1F72091BC0024FD03C01092CC01089523
:1008B000409183015091840160918501709186017E
:1008C000452B462B472B69F30097A105B10541F055
:1008D00025E32A95F1F700000197A109B109E1CFBD
:1008E000809182010C9447021F920F920FB60F92D3
:1008F00011242F933F934F935F936F937F938F9325
:100900009F93AF93BF93EF93FF9383E092E00E9496
:100910000201FF91EF91BF91AF919F918F917F91D4
:100920006F915F914F913F912F910F900FBE0F905C
:100930001F9018951F920F920FB60F9211242F93AC
:100940008F939F93EF93FF93E0911302F091140222
:100950008081E0911902F0911A0282FD1BC0908102
:1009600080911C028F5F8F7320911D02821741F0CE
:10097000E0911C02F0E0ED5FFD4F958F80931C022B
:10098000FF91EF919F918F912F910F900FBE0F903C
:100990001F9018958081F4CF1F920F920FB60F927F
:1009A00011242F933F938F939F93AF93BF93809185
:1009B000FF0190910002A0910102B09102023091DA
:1009C000F20123E0230F2D3758F50196A11DB11D2B
:1009D0002093F2018093FF0190930002A093010203
:1009E000B09302028091F3019091F401A091F5017E
:1009F000B091F6010196A11DB11D8093F301909372
:100A0000F401A093F501B093F601BF91AF919F91CE
:100A10008F913F912F910F900FBE0F901F901895BF
:100A200026E8230F0296A11DB11DD2CF1F920F926F
:100A30000FB60F9211242F933F934F935F936F93B1
:100A40007F938F939F93AF93BF93EF93FF93809187
:100A5000B900887F803609F44AC0F0F5883209F47D
:100A6000A7C018F5803109F49BC0B8F4882309F4B5
:100A7000F9C0883009F494C0FF91EF91BF91AF9114
:100A80009F918F917F916F915F914F913F912F91A6
:100A90000F900FBE0F901F901895883109F488C0F1
:100AA000803251F78093CB0114C0803409F49DC08B
:100AB00040F48033B9F38833F9F68093CB0185ECA9
:100AC000B0C0803509F485C0883509F496C08834F3
:100AD00099F60E943C04D0CF883909F48CC038F5CF
:100AE000883729F050F4883611F0803729F683E0F2
:100AF0008093CC011092CA0157C0883809F47BC09A
:100B0000803919F0803809F0B7CF8091CA0180325E
:100B100008F071C0E091CA0181E08E0F8093CA0194
:100B20008091BB00F0E0E655FE4F80833DC0803BE6
:100B300039F0E0F4803A09F479C0883A09F09CCFA2
:100B400084E08093CC011092A9011092A801E09159
:100B5000F901F091FA0109958091A80181110FC066
:100B600081E08093A8011092880109C0803C09F4BB
:100B7000A6CF883C09F4A3CF883B09F07DCFE09154
:100B8000A90181E08E0F8093A901F0E0E857FE4FA4
:100B900080818093BB009091A9018091A80129C018
:100BA0008091F1018093BB0085EC8093BC0064CF01
:100BB0009091F0018091EF01981758F5E091F001C4
:100BC00081E08E0F8093F001F0E0E153FE4F8081D1
:100BD000E9CFE091F00181E08E0F8093F0018091E8
:100BE000BB00F0E0E153FE4F80839091F0018091D3
:100BF000EF019817C8F285E8D8CFE091F00181E0C5
:100C00008E0F8093F0018091BB00F0E0E153FE4F26
:100C100080838091CE0181115CCF81E08093CD01F2
:100C200084EA8093BC001092CC0126CF85EC80939F
:100C3000BC001092CC018091CA01803230F4E09166
:100C4000CA01F0E0E655FE4F10826091CA0170E0E3
:100C5000E091F701F091F8018AEA91E0099510928C
:100C6000CA010ACF1092CB0134CFE3E0F2E0138245
:100C7000128288EE93E0A0E0B0E084839583A6839F
:100C8000B78325E031E03183208325EC30E03587E0
:100C9000248724EC30E03787268720EC30E0318B46
:100CA000208B21EC30E0338B228B22EC30E0358B33
:100CB000248B26EC30E0378B268B118E128E138E10
:100CC000148EE0EAF2E01382128284839583A68375
:100CD000B78387E191E091838083E2EFF2E01382B2
:100CE000128289E291E09183808311868EE384836E
:100CF00080E1828782E08387E8EEF2E088EC92E090
:100D0000918380838CED95E0A0E0B0E082839383B3
:100D1000A483B5831682178210861186ECEAF2E06E
:100D20008AE098E2A0EABBE3808F918FA28FB38F15
:100D300081E190E09183808380E090E0A0EAB0E4DC
:100D400084839583A683B7831486158616861786B3
:100D5000148A158A168A178A0895789484B5826051
:100D600084BD84B5816084BD85B5826085BD85B54F
:100D7000816085BD80916E00816080936E001092CD
:100D80008100809181008260809381008091810048
:100D900081608093810080918000816080938000D9
:100DA0008091B10084608093B1008091B000816037
:100DB0008093B00080917A00846080937A00809163
:100DC0007A00826080937A0080917A0081608093BB
:100DD0007A0080917A00806880937A001092C10036
:100DE000E0911302F091140282E08083E0910F02FF
:100DF000F09110021082E0911102F0911202C0E114
:100E0000C08310921B02E0911702F091180286E055
:100E10008083E0911502F0911602808180618083C9
:100E2000E0911502F0911602808188608083E09144
:100E30001502F0911602808180688083E09115028E
:100E4000F091160280818F7D80831092FE011092B6
:100E5000FD011092FC011092FB010E94290282E820
:100E600090E09093FA018093F90183E890E09093E9
:100E7000F8018093F701C093F7028091FD02823060
:100E800018F098E19093F7028093FA028BE39DE0CB
:100E90000197F1F76091F702606270E082EF92E0F3
:100EA0000E94EE028BE496E40197F1F76091F7025D
:100EB000606270E082EF92E00E94EE0283E592E0D1
:100EC0000197F1F76091F702606270E082EF92E0C3
:100ED0000E94EE026091F702606270E082EF92E0A1
:100EE0000E94EE0284E08093F8026CE070E082EFF2
:100EF00092E00E94EE0261E070E082EF92E00E94D8
:100F0000EE028BE39FE10197F1F78091FB028111E3
:100F10000E94DA0382E08093F90266E070E082EFDB
:100F200092E00E94EE0262E070E082EF92E00E94A6
:100F3000EE028BE39FE10197F1F72FB7F8948091D0
:100F4000FF0190910002A0910102B09102022FBF17
:100F50008093C8029093C902A093CA02B093CB02B7
:100F600080E1282E8EE0382E01E3C3E3D2E515E3BD
:100F70008091C8029091C902A091CA02B091CB029F
:100F80008093CC029093CD02A093CE02B093CF0277
:100F90002FB7F8948091FF0190910002A091010277
:100FA000B09102022FBF8093C8029093C902A09310
:100FB000CA02B093CB024091CC025091CD02609115
:100FC000CE027091CF02841B950BA60BB70B8093BA
:100FD000D0029093D102A093D202B093D302409159
:100FE000D8025091D9026091DA027091DB02840F2D
:100FF000951FA61FB71F8093D8029093D902A09384
:10100000DA02B093DB02883E9340A105B10568F097
:101010008091DE028F5F8093DE021092D8021092E0
:10102000D9021092DA021092DB028091DE028C3338
:1010300038F08091DD021092DE028F5F8093DD0236
:101040008091DD028C3338F08091DC021092DD0259
:101050008F5F8093DC028091DC02893110F0109266
:10106000DC022091DC02229DC001239D900D112401
:10107000092E000CAA0BBB0B2091DD024CE3249F30
:1010800090011124032E000C440B550B820F931F6B
:10109000A41FB51F2091DE02820F911DA11DB11D5D
:1010A0008093D4029093D502A093D602B093D70236
:1010B0008091AC028E3008F08E50877080648093EF
:1010C0007C0080917A00806480937A0080917A001D
:1010D00086FDFCCF8091780060917900762F682F93
:1010E0007093AF026093AE02072E000C880B990B31
:1010F0000E94EA0A2091C4023091C5024091C602C2
:101100005091C7020E949F0B6B017C014B015C0157
:10111000C092B402D092B502E092B602F092B70249
:101120002091B8023091B9024091BA025091BB02AD
:101130000E949F0B2B013C01A70196016091B00218
:101140007091B1028091B2029091B3020E94D509D0
:101150009B01AC01C301B2010E94470A6093BC022B
:101160007093BD028093BE029093BF02A7019601C7
:10117000C701B6010E940C0C882309F447C081E323
:1011800091E00E94EB038DE391E00E94EB038091DC
:10119000AE029091AF028832910509F4FCC00CF0C8
:1011A000C9C08B31910509F4FDC0809709F4F7C0DF
:1011B000E091E802F091E90280859185A285B385EE
:1011C0004091EE025091EF026091F0027091F102B5
:1011D000840F951FA61FB71F8093EE029093EF0216
:1011E000A093F002B093F1024091EA025091EB0219
:1011F0006091EC027091ED0284179507A607B7077E
:1012000008F4AEC02EE420930001A2C026013701ED
:10121000E89477F82FEF3FEF4FE75FE7C301B201A4
:101220000E940C0C81110DC02FEF3FEF4FE75FE7DD
:10123000C301B2010E94420A18161CF485E391E032
:10124000A0CF2FEF3FEF4FE75FE4C701B6010E9449
:101250009A0B18161CF489E391E093CF2FEF3FEF20
:101260004FE75FECC701B6010E94420A87FDF3CF4A
:1012700020E030E0A901C701B6010E94420A87FFC1
:101280000BC06DE283E092E00E9424014601570109
:10129000B7FAB094B7F8B0942AE037ED43EA5BE3CD
:1012A000C501B4010E94D6094B015C010E94B90A34
:1012B0006B017C010E94E80A9B01AC01C501B401ED
:1012C0000E94D5094B015C014AE0C701B6010E94AA
:1012D000F8036EE283E092E00E94240120E030E017
:1012E00040E251E4C501B4010E949F0B4B015C0137
:1012F0000E94B90A6B01F12CE12C4AE0C701B6014A
:101300000E94F803C701B6010E94E80A9B01AC01E4
:10131000C501B4010E94D50920E030E040E251E46B
:101320000E949F0B0E94B90A90E080E04AE00E9470
:10133000F80329CF8E34910551F18239910531F0AE
:10134000C59709F035CFC093000102C0009300019A
:101350001092EE021092EF021092F0021092F1023F
:101360000E94DA036091000170E0706482EF92E005
:101370000E94EE0280E090E0892B09F4F9CD0E94F2
:10138000EE00882309F4F2CD0E940000EFCD82E345
:1013900080930001DDCF94E390930001D9CF1093A7
:1013A0000001D6CFD0930001D3CF5058BB27AA2736
:1013B0000E94ED090C94600B0E94520B38F00E94C1
:1013C000590B20F039F49F3F19F426F40C944F0B7D
:1013D0000EF4E095E7FB0C94490BE92F0E94710B8A
:1013E00058F3BA17620773078407950720F079F45A
:1013F000A6F50C94930B0EF4E0950B2EBA2FA02DAE
:101400000B01B90190010C01CA01A0011124FF27B1
:10141000591B99F0593F50F4503E68F11A16F040AC
:10142000A22F232F342F4427585FF3CF46953795AB
:101430002795A795F0405395C9F77EF41F16BA0B70
:10144000620B730B840BBAF09150A1F0FF0FBB1F1E
:10145000661F771F881FC2F70EC0BA0F621F731F67
:10146000841F48F4879577956795B795F7959E3FC4
:1014700008F0B0CF9395880F08F09927EE0F979555
:10148000879508950E94250B08F481E008950E9435
:101490005B0A0C94600B0E94590B58F00E94520B8F
:1014A00040F029F45F3F29F00C94490B51110C9442
:1014B000940B0C944F0B0E94710B68F39923B1F3BA
:1014C000552391F3951B550BBB27AA27621773076A
:1014D000840738F09F5F5F4F220F331F441FAA1FFE
:1014E000A9F335D00E2E3AF0E0E832D091505040BA
:1014F000E695001CCAF72BD0FE2F29D0660F771F68
:10150000881FBB1F261737074807AB07B0E809F04D
:10151000BB0B802DBF01FF2793585F4F3AF09E3FD2
:10152000510578F00C94490B0C94940B5F3FE4F355
:10153000983ED4F3869577956795B795F7959F5F15
:10154000C9F7880F911D9695879597F90895E1E061
:10155000660F771F881FBB1F621773078407BA07C0
:1015600020F0621B730B840BBA0BEE1F88F7E0951B
:1015700008950E94790B88F09F5798F0B92F99270A
:10158000B751B0F0E1F0660F771F881F991F1AF06E
:10159000BA95C9F714C0B13091F00E94930BB1E035
:1015A00008950C94930B672F782F8827B85F39F034
:1015B000B93FCCF3869577956795B395D9F73EF407
:1015C00090958095709561957F4F8F4F9F4F0895AF
:1015D000E89409C097FB3EF49095809570956195CD
:1015E0007F4F8F4F9F4F9923A9F0F92F96E9BB2783
:1015F0009395F695879577956795B795F111F8CFFF
:10160000FAF4BB0F11F460FF1BC06F5F7F4F8F4F69
:101610009F4F16C0882311F096E911C0772321F05F
:101620009EE8872F762F05C0662371F096E8862FF7
:1016300070E060E02AF09A95660F771F881FDAF74E
:10164000880F9695879597F90895990F0008550F7B
:10165000AA0BE0E8FEEF16161706E807F907C0F038
:1016600012161306E407F50798F0621B730B840B40
:10167000950B39F40A2661F0232B242B252B21F41A
:1016800008950A2609F4A140A6958FEF811D811DBA
:10169000089597F99F6780E870E060E008959FEFF4
:1016A00080EC089500240A941616170618060906F9
:1016B000089500240A9412161306140605060895C8
:1016C000092E0394000C11F4882352F0BB0F40F450
:1016D000BF2B11F460FF04C06F5F7F4F8F4F9F4F90
:1016E000089557FD9058440F551F59F05F3F71F012
:1016F0004795880F97FB991F61F09F3F79F0879579
:101700000895121613061406551FF2CF4695F1DF01
:1017100008C0161617061806991FF1CF8695710591
:10172000610508940895E894BB2766277727CB01C5
:1017300097F908950E94250B08F48FEF08950E94F1
:10174000B20B0C94600B0E94520B38F00E94590BA4
:1017500020F0952311F00C94490B0C944F0B11249D
:101760000C94940B0E94710B70F3959FC1F3950F2D
:1017700050E0551F629FF001729FBB27F00DB11D15
:10178000639FAA27F00DB11DAA1F649F6627B00DA5
:10179000A11D661F829F2227B00DA11D621F739F8E
:1017A000B00DA11D621F839FA00D611D221F749F9C
:1017B0003327A00D611D231F849F600D211D822FE3
:1017C000762F6A2F11249F5750409AF0F1F088230A
:1017D0004AF0EE0FFF1FBB1F661F771F881F915037
:1017E0005040A9F79E3F510580F00C94490B0C9492
:1017F000940B5F3FE4F3983ED4F386957795679515
:10180000B795F795E7959F5FC1F7FE2B880F911D60
:101810009695879597F908950E94250B880B990B4B
:101820000895A1E21A2EAA1BBB1BFD010DC0AA1F21
:10183000BB1FEE1FFF1FA217B307E407F50720F039
:10184000A21BB30BE40BF50B661F771F881F991FB4
:101850001A9469F760957095809590959B01AC01FD
:10186000BD01CF010895EE0FFF1F0590F491E02D0B
:061870000994F894FFCF7B
:101876004E0000000024018400B1007101E200C0A6
:1018860000D40000000000BF029202E80368028B49
:10189600027802690200000000E0038400E803E722
:1018A600036E616E00696E66006F7666000D0A0053
:00000001FF
