:100000000C94D5000C94FD000C94FD000C94FD00A4
:100010000C94FD000C94FD000C94FD000C94FD006C
:100020000C94FD000C94FD000C94FD000C94FD005C
:100030000C94FD000C94FD000C94FD000C94FD004C
:100040000C944D050C94FD000C941B050C94F504C8
:100050000C94FD000C94FD000C94FD000C94FD002C
:100060000C9497050C94FD0000407A10F35A00A000
:10007000724E18090010A5D4E80000E87648170071
:1000800000E40B54020000CA9A3B000000E1F505B1
:10009000000080969800000040420F000000A086FB
:1000A00001000000102700000000E803000000002D
:1000B0006400000000000A000000000001000000D1
:1000C00000002C76D888DC674F0823DFC1DFAE59EB
:1000D000E1B1B796E5E3E453C63AE651997696E87E
:1000E000E6C28426EB898C9B62ED407C6FFCEFBC02
:1000F0009C9F40F2BAA56FA5F490055A2AF75C932D
:100100006B6CF9676DC11BFCE0E40D47FEF520E662
:10011000B500D0ED902E0300943577050080841E45
:10012000080000204E0A000000C80C333333330FA0
:10013000986E12831141EF8D2114893BE65516CF3D
:10014000FEE6DB18D1844B381BF77C1D901DA4BB49
:10015000E424203284725E228100C9F124ECA1E5FE
:100160003D2700000000250028002B0004040404A3
:100170000404040402020202020203030303030351
:10018000010204081020408001020408102001022E
:10019000040810200000000800020100000304070A
:1001A0000000000000000000B60611241FBECFEFC3
:1001B000D8E0DEBFCDBF11E0A0E0B1E0ECEFF4E2AB
:1001C00002C005900D92AA34B107D9F723E0AAE442
:1001D000B1E001C01D92A731B207E1F710E0C5ED13
:1001E000D0E004C02197FE010E94D50FC43DD10785
:1001F000C9F70E940C070C947C120C94000008951F
:100200000895AF92BF92CF92DF92EF92FF920F9339
:100210001F93CF93DF936C017B018B01040F151F9C
:10022000EB015E01AE18BF08C017D10759F0699104
:10023000D601ED91FC910190F081E02DC601099568
:10024000892B79F7C501DF91CF911F910F91FF9015
:10025000EF90DF90CF90BF90AF900895FC01538D49
:10026000448D252F30E0842F90E0821B930B541790
:1002700010F0CF96089501970895FC01918D828D1D
:10028000981761F0A28DAE0FBF2FB11D5D968C91B6
:10029000928D9F5F9F73928F90E008958FEF9FEFF5
:1002A0000895FC01918D828D981731F0828DE80FB1
:1002B000F11D858D90E008958FEF9FEF0895FC016B
:1002C000918D228D892F90E0805C9F4F821B910938
:1002D0008F739927089588E392E00E945F0121E0DF
:1002E000892B09F420E0822F089580E090E0892B8B
:1002F00029F00E946B0181110C9400000895FC010B
:10030000A48DA80FB92FB11DA35ABF4F2C91848D76
:1003100090E001968F739927848FA689B7892C93D3
:10032000A089B1898C91837080648C93938D848D26
:10033000981306C00288F389E02D80818F7D808329
:100340000895EF92FF920F931F93CF93DF93EC01E9
:1003500081E0888F9B8D8C8D98131AC0E889F9896C
:10036000808185FF15C09FB7F894EE89FF8960836F
:10037000E889F98980818370806480839FBF81E0F0
:1003800090E0DF91CF911F910F91FF90EF90089532
:10039000F62E0B8D10E00F5F1F4F0F731127E02E0D
:1003A0008C8D8E110CC00FB607FCFACFE889F98945
:1003B000808185FFF5CFCE010E947F01F1CFEB8DCB
:1003C000EC0FFD2FF11DE35AFF4FF0829FB7F89419
:1003D0000B8FEA89FB8980818062CFCFCF93DF9337
:1003E000EC01888D8823B9F0AA89BB89E889F9894D
:1003F0008C9185FD03C0808186FD0DC00FB607FC82
:10040000F7CF8C9185FFF2CF808185FFEDCFCE01B4
:100410000E947F01E9CFDF91CF91089590E0FC0128
:10042000EC56FE4F2491FC01E058FE4F3491FC0144
:10043000E459FE4FE491EE23C9F0222339F0233032
:1004400001F1A8F4213019F1223029F1F0E0EE0F8A
:10045000FF1FEE59FE4FA591B4918FB7F894EC9120
:10046000611126C030953E233C938FBF08952730FD
:10047000A9F02830C9F0243049F7809180008F7DA1
:1004800003C0809180008F7780938000DFCF84B598
:100490008F7784BDDBCF84B58F7DFBCF8091B0009B
:1004A0008F778093B000D2CF8091B0008F7DF9CF4D
:1004B0003E2BDACF3FB7F8948091FD019091FE0179
:1004C000A091FF01B091000226B5A89B05C02F3F67
:1004D00019F00196A11DB11D3FBFBA2FA92F982F6A
:1004E0008827BC01CD01620F711D811D911D42E065
:1004F000660F771F881F991F4A95D1F7089520919D
:10050000B201260F3327331F21323105ECF420913D
:10051000D601FC0190E080E0243069F082E008958B
:10052000A091B2012191AC014E565E4FA40FB52FA0
:10053000B11D2C930196861798F38091B201680F34
:100540006093B20180E0089581E008951092D60191
:1005500081E08093D8011092D70161E082E10E948E
:100560000E0261E083E10E940E02E9EBF0E080817F
:100570008E7F808380818D7F808388E48093B80024
:1005800085E48093BC000895CF93DF9391E090932E
:1005900091018823B9F0C091B800D091BA00809140
:1005A000BC008A7B8093BC0060E082E10E940E0266
:1005B00060E083E10E940E020E94A602D093BA007E
:1005C000C093B800DF91CF9108950895E09108029B
:1005D00080910702E81730F4F0E0E459FE4F808183
:1005E00090E008958FEF9FEF089590910802809119
:1005F00007022FEF3FEF981748F4E92FF0E0E45996
:10060000FE4F208130E09F5F90930802C90108955A
:100610008091070290910802891B990B0895CF924F
:10062000DF92EF92FF920F931F93CF93DF937C01A2
:10063000CB018A0120916B01222389F0EB016B0130
:10064000C40ED51ECC15DD0569F06991D701ED9179
:10065000FC910190F081E02DC7010995F3CF642F43
:100660000E947F02C801DF91CF911F910F91FF90EF
:10067000EF90DF90CF900895CF93DF931F92CDB787
:10068000DEB7698320916B012223F9F020910502E6
:10069000203258F021E030E0FC013383228390E0E7
:1006A00080E00F90DF91CF91089580910602E82FAE
:1006B000F0E0E55BFE4F998190838F5F80930602A7
:1006C0008093050281E090E0ECCF61E0CE010196DD
:1006D0000E947F02F7CFCF92DF92EF92FF920F93AB
:1006E0001F93CF93DF93D62F672FFC01C48181E046
:1006F00080936B01C0934A0110920602109205028A
:1007000085ED92E00E943C036D2F85ED92E00E9402
:100710003C03D0910502D13208F092C00E945A02E7
:100720006B017C018091D601811165C082E08093CC
:10073000D60181E08093D8018FEF8093D50110928C
:10074000FA01D093F901ABE4B1E0E9EDF1E080E02A
:10075000D81385C01092FB018091FB01CC0FC82BF0
:10076000C093FB018091D701813009F07CC01092C9
:10077000D7010E945A026B017C018091FB0180939A
:10078000BB0080918D0190918E01A0918F01B0915D
:100790009001892B8A2B8B2B99F00E945A02009191
:1007A0008D0110918E0120918F01309190016C1973
:1007B0007D098E099F090617170728073907E0F1F9
:1007C0008091BC0083FDD9CF85EC8093BC000E9452
:1007D0005A026B017C018091D601823009F445C038
:1007E0008091D5018F3F61F18091D501803241F137
:1007F0008091D50125C080918D0190918E01A091AD
:100800008F01B0919001892B8A2B8B2B09F48ACF11
:100810000E945A0200918D0110918E0120918F014A
:10082000309190016C197D098E099F0906171707F1
:100830002807390708F076CF80918C010E94C40206
:10084000109206021092050210926B01DF91CF9177
:100850001F910F91FF90EF90DF90CF9008959D91A1
:1008600091938F5F75CF85EEB0CF80918D01909180
:100870008E01A0918F01B0919001892B8A2B8B2B37
:1008800009F4A9CF0E945A0200918D0110918E01A6
:1008900020918F01309190016C197D098E099F097B
:1008A000061717072807390708F095CFC5CF60E866
:1008B00070E08BE093E00C946B0370E070640E9436
:1008C0006B0381E090E00895089590E080E0089542
:1008D000FB0101900020E9F73197AF01461B570B50
:1008E000DC01ED91FC910280F381E02D09948F925F
:1008F0009F92AF92BF920F931F93CF93DF93CDB789
:10090000DEB7A1970FB6F894DEBF0FBECDBF19A218
:10091000423008F44AE08E010F5D1F4F842E912C67
:10092000B12CA12CA50194010E94B30FE62FB901AF
:10093000CA01EA3004F5E05DD801EE938D01232B66
:10094000242B252B79F790E080E0109729F0BD014A
:1009500088E392E00E946804A1960FB6F894DEBF87
:100960000FBECDBFDF91CF911F910F91BF90AF9080
:100970009F908F900895E95CDFCF85ED8093BC0058
:1009800080918D0190918E01A0918F01B091900185
:100990000796A11DB11D23E0B695A795979587955C
:1009A0002A95D1F72091BC0024FD03C01092D601F6
:1009B000089540918D0150918E0160918F01709149
:1009C0009001452B462B472B69F30097A105B105F4
:1009D00041F025E32A95F1F700000197A109B1093B
:1009E000E1CF80918C010C94C4021F920F920FB63C
:1009F0000F9211242F933F934F935F936F937F93A5
:100A00008F939F93AF93BF93EF93FF9388E392E00D
:100A10000E947F01FF91EF91BF91AF919F918F91C4
:100A20007F916F915F914F913F912F910F900FBEEA
:100A30000F901F9018951F920F920FB60F921124CE
:100A40002F938F939F93EF93FF93E0914802F09140
:100A500049028081E0914E02F0914F0282FD1BC05D
:100A60009081809151028F5F8F7320915202821783
:100A700041F0E0915102F0E0E85CFD4F958F8093EA
:100A80005102FF91EF919F918F912F910F900FBE87
:100A90000F901F9018958081F4CF1F920F920FB680
:100AA0000F9211242F933F938F939F93AF93BF93F4
:100AB0008091090290910A02A0910B02B0910C0260
:100AC0003091FC0123E0230F2D3758F50196A11D2D
:100AD000B11D2093FC018093090290930A02A09318
:100AE0000B02B0930C028091FD019091FE01A09148
:100AF000FF01B09100020196A11DB11D8093FD017F
:100B00009093FE01A093FF01B0930002BF91AF91BB
:100B10009F918F913F912F910F900FBE0F901F903B
:100B2000189526E8230F0296A11DB11DD2CF1F9262
:100B30000F920FB60F9211242F933F934F935F9311
:100B40006F937F938F939F93AF93BF93EF93FF9395
:100B50008091B900887F803609F44AC0F0F5883268
:100B600009F4A7C018F5803109F49BC0B8F48823B4
:100B700009F4F9C0883009F494C0FF91EF91BF9156
:100B8000AF919F918F917F916F915F914F913F9125
:100B90002F910F900FBE0F901F901895883109F478
:100BA00088C0803251F78093D50114C0803409F495
:100BB0009DC040F48033B9F38833F9F68093D501B2
:100BC00085ECB0C0803509F485C0883509F496C03D
:100BD000883499F60E94BD04D0CF883909F48CC0BE
:100BE00038F5883729F050F4883611F0803729F627
:100BF00083E08093D6011092D40157C0883809F45D
:100C00007BC0803919F0803809F0B7CF8091D401CA
:100C1000803208F071C0E091D40181E08E0F8093A2
:100C2000D4018091BB00F0E0EC54FE4F80833DC0C6
:100C3000803B39F0E0F4803A09F479C0883A09F051
:100C40009CCF84E08093D6011092B3011092B20140
:100C5000E0910302F091040209958091B2018111A3
:100C60000FC081E08093B2011092920109C0803CD4
:100C700009F4A6CF883C09F4A3CF883B09F07DCFC7
:100C8000E091B30181E08E0F8093B301F0E0EE5666
:100C9000FE4F80818093BB009091B3018091B2019F
:100CA00029C08091FB018093BB0085EC8093BC0040
:100CB00064CF9091FA018091F901981758F5E0916D
:100CC000FA0181E08E0F8093FA01F0E0E752FE4FC7
:100CD0008081E9CFE091FA0181E08E0F8093FA01E3
:100CE0008091BB00F0E0E752FE4F80839091FA01C3
:100CF0008091F9019817C8F285E8D8CFE091FA0100
:100D000081E08E0F8093FA018091BB00F0E0E75202
:100D1000FE4F80838091D80181115CCF81E0809368
:100D2000D70184EA8093BC001092D60126CF85ECCF
:100D30008093BC001092D6018091D401803230F4AF
:100D4000E091D401F0E0EC54FE4F10826091D401A8
:100D500070E0E0910102F091020284EB91E00995CC
:100D60001092D4010ACF1092D50134CFE8E3F2E01B
:100D70001382128288EE93E0A0E0B0E08483958332
:100D8000A683B78324E031E03183208325EC30E073
:100D90003587248724EC30E03787268720EC30E045
:100DA000318B208B21EC30E0338B228B22EC30E036
:100DB000358B248B26EC30E0378B268B118E128EF0
:100DC000138E148EE5EDF2E01382128284839583F4
:100DD000A683B78326E131E031832083EBE0F3E0A3
:100DE0001382128228E231E03183208311862EE3C0
:100DF000248320E1228722E02387E1E0F3E021EE53
:100E000032E03183208382839383A483B583168267
:100E10001782108611860895789484B5826084BD07
:100E200084B5816084BD85B5826085BD85B58160EE
:100E300085BD80916E00816080936E00109281006C
:100E40008091810082608093810080918100816027
:100E500080938100809180008160809380008091E8
:100E6000B10084608093B1008091B0008160809374
:100E7000B00080917A00846080937A0080917A003B
:100E8000826080937A0080917A00816080937A00FA
:100E900080917A00806880937A001092C100E0917E
:100EA0004802F091490282E08083E0914402F0918F
:100EB00045021082E0914602F0914702C0E1C083F2
:100EC00010925002E0914C02F0914D0286E0808336
:100ED000E0914A02F0914B02808180618083E09131
:100EE0004A02F0914B02808188608083E0914A023F
:100EF000F0914B02808180688083E0914A02F091FA
:100F00004B0280818F7D808310920802109207022D
:100F100010920602109205020E94A6028FEF90E046
:100F2000909304028093030280E091E09093020288
:100F300080930102C093100380911603823018F051
:100F400098E190931003809313038BE39DE0019746
:100F5000F1F760911003606270E08BE093E00E9413
:100F60006B038BE496E40197F1F7609110036062E4
:100F700070E08BE093E00E946B0383E592E00197C1
:100F8000F1F760911003606270E08BE093E00E94E3
:100F90006B0360911003606270E08BE093E00E944D
:100FA0006B0384E0809311036CE070E08BE093E0CE
:100FB0000E946B0361E070E08BE093E00E946B03A2
:100FC0008BE39FE10197F1F78091140381110E9457
:100FD000570482E08093120366E070E08BE093E0B8
:100FE0000E946B0362E070E08BE093E00E946B0371
:100FF0008BE39FE10197F1F710922B0210922C02E4
:1010000010922D0210922E022FB7F89480910902AF
:1010100090910A02A0910B02B0910C022FBF809315
:10102000E1029093E202A093E302B093E40283E72B
:1010300094EFA3E1B0E48093230290932402A09361
:101040002502B093260260910303709104038091FE
:101050000503909106030E948A0E9B01AC0160E09B
:1010600070E08AE794E40E94E90D60932702709390
:1010700028028093290290932A0280E1282E8EE094
:10108000382E91E4E92E91E0F92ECDE0D2E020E077
:10109000C22E20E0D22E8091E1029091E202A09136
:1010A000E302B091E4028093E5029093E602A093FC
:1010B000E702B093E8022FB7F8948091090290916B
:1010C0000A02A0910B02B0910C022FBF8093E102A3
:1010D0009093E202A093E302B093E4024091E50210
:1010E0005091E6026091E7027091E802841B950B33
:1010F000A60BB70B8093E9029093EA02A093EB0250
:10110000B093EC024091F1025091F2026091F3022F
:101110007091F402840F951FA61FB71F8093F102F0
:101120009093F202A093F302B093F402883E9340AE
:10113000A105B10568F08091F7028F5F8093F702F7
:101140001092F1021092F2021092F3021092F40245
:101150008091F7028C3338F08091F6021092F702FA
:101160008F5F8093F6028091F6028C3338F0809185
:10117000F5021092F6028F5F8093F5028091F502DE
:10118000893110F01092F5022091F502229DC001E4
:10119000239D900D1124092E000CAA0BBB0B40912E
:1011A000F6022CE3429FA0011124052E000C660BD1
:1011B000770B840F951FA61FB71F2091F702820F90
:1011C000911DA11DB11D8093ED029093EE02A0939D
:1011D000EF02B093F00280E480937C0080917A006B
:1011E000806480937A0080917A0086FDFCCF8091A4
:1011F000780060917900762F682F072E000C880BFD
:10120000990B0E948C0E2AE038E240EA5BE30E94D0
:10121000410F6093340270933502809336029093AD
:1012200037022091300230913102409132025091C8
:1012300033020E94E40D882309F458C06091E10252
:101240007091E2028091E3029091E4024AE00E94F0
:10125000770460E371E088E392E00E946804809084
:10126000340290903502A0903602B0903702A5016A
:101270009401C501B4010E94AE0F62E371E08111D7
:101280001BC024013501E89477F82FEF3FEF4FE7BB
:101290005FE7C301B2010E94AE0F811115C12FEFAC
:1012A0003FEF4FE75FE7C301B2010E94E40D18165C
:1012B0000CF00AC166E371E088E392E00E946804E2
:1012C0006EE371E088E392E00E946804809134024A
:1012D00090913502A0913602B0913702809330028E
:1012E00090933102A0933202B09333028090340283
:1012F00090903502A0903602B090370220E030E0A6
:10130000A901C501B4010E943C0F18160CF053C18D
:1013100091E090932F0220E030E040E85FE3C501C8
:10132000B4010E94E40D87FF15C010922F02809136
:101330002B0290912C02A0912D02B0912E020196C9
:10134000A11DB11D80932B0290932C02A0932D021E
:10135000B0932E02E0910103F09102038085918504
:10136000A285B3854091070350910803609109035A
:1013700070910A03840F951FA61FB71F8093070360
:1013800090930803A0930903B0930A0340910303C9
:10139000509104036091050370910603841795072B
:1013A000A607B70708F484C0109207031092080339
:1013B0001092090310920A0360912B0270912C0283
:1013C00080912D0290912E020E948A0E20E030E042
:1013D00040E252E40E94E90D209127023091280258
:1013E0004091290250912A020E94410F209123022C
:1013F0003091240240912502509126020E94410F13
:1014000020E030E041E655E40E94410F20E030E06A
:1014100045EA55E40E94E90D0EE112E022E043E0C6
:101420000E94EB0A80912E028F9380912D028F9360
:1014300080912C028F9380912B028F93C8019F93F0
:101440000F93FF92EF92DF93CF930E94DB0F0E94E6
:1014500057046DE072E08BE093E00E946804FE01A7
:1014600001900020E9F7CF018E5092405C018DB7CA
:101470009EB70A960FB6F8949EBF0FBE8DBF90E13F
:10148000A916B10468F467E471E08BE093E00E9470
:1014900068042FEFA21AB20A80E1A816B10499F7E6
:1014A00010922B0210922C0210922D0210922E02FA
:1014B000C114D10409F4EFCD0E946B01882309F413
:1014C000EACD0E940000E7CD2FEF3FEF4FE75FE44A
:1014D000C501B4010E943C0F18161CF46AE371E0C8
:1014E000EBCE2FEF3FEF4FE75FECC501B4010E9459
:1014F000E40D87FDF3CF20E030E0A901C501B40180
:101500000E94E40D87FF09C06DE288E392E00E942B
:10151000A101B7FAB094B7F8B0942AE037ED43EAE6
:101520005BE3C501B4010E94780D2B013C010E94D0
:101530005B0E4B015C010E948A0E9B01AC01C30152
:10154000B2010E94770D2B013C014AE0C501B401B4
:101550000E9477046EE288E392E00E94A10120E0FD
:1015600030E040E251E4C301B2010E94410F2B017F
:101570003C010E945B0E4B01B12CA12C4AE0C5013D
:10158000B4010E947704C501B4010E948A0E9B0138
:10159000AC01C301B2010E94770D20E030E040E2CF
:1015A00051E40E94410F0E945B0E90E080E04AE00F
:1015B0000E94770485CE20E030E040E85FE3C5017B
:1015C000B4010E94E40D87FFC5CE80912F028823CD
:1015D00009F4C0CEAACEEF920F931F93CF93DF935F
:1015E000E80134E047FD34E1042E000C550B57FFB1
:1015F00003C0519541955109E32E022F242FAE01CE
:101600000E94090BCE01DF91CF911F910F91EF90B6
:101610000895A9E0B0E0EFE0FBE00C94460D6A010C
:10162000F22EB02E102FFBE3AF2EA01608F41BE312
:101630001F5F012F27E0AE014F5F5F4F0E94680CD4
:10164000BC018981982F9970913009F43FC09BE2C9
:10165000E1FC04C09E2D9170E0FC3AC05E2D5071FB
:10166000E82FE87083FF46C084E0911101C083E059
:10167000EF2DE81B8F1508F0E0E0D6018E2F20E259
:10168000552351F1992329F0D6019C93C601019667
:101690006C0196012D5F3F4FE2FE24C08EE4D6011F
:1016A0008C9391E411969C93119712968C93D90187
:1016B0008E2F90E281111BC0E20FF32FF11D1082DB
:1016C0008EEF9FEF2996ECE00C94620D9DE2C6CF61
:1016D00090E2C4CF2D9381508111FCCFCE0ED11C4E
:1016E000E0E0D0CF8EE6D6018C9391E6DBCF9D93E0
:1016F0008150E0CF482F447082FF3DC084E09111BB
:1017000001C083E08F1510F4EF2DE81BD6018E2F5A
:1017100020E2552309F1992329F0D6019C93C601B3
:1017200001966C0196012D5F3F4FE2FE1BC089E4DC
:10173000D6018C938EE411968C93119786E41296C1
:101740008C93D9018E2F90E2882309F4B5CF9D9315
:101750008150FACF2D9381508111FCCFCE0ED11C38
:10176000E0E0D9CF89E6D6018C938EE611968C9372
:10177000119786E6E4CF9B0177FF02C030E020E0BE
:10178000A1E0B0E0911102C0B0E0A0E0F901319613
:10179000AE0FBF1F8B2C912CBB2009F461C05401EC
:1017A000EFEFAE1ABE0AAA0DBB1DFA161B0619F002
:1017B00014F04F2D4A1B511188C0E3FC59C076012B
:1017C000A42FB0E2A1114FC0C40ED11C992309F47B
:1017D0005BC040E0D6011196F60190836D01552360
:1017E00009F448C0012F060F9A81582F507184FFC9
:1017F00003C0913309F4015010160CF047C00930B2
:1018000008F008E0EEE2FE2E5B01A01AB1088501A7
:101810009194819491082F3F320729F4D601FC92CC
:10182000F60131966F016217730794F102171307DF
:101830007CF5DB01A21BB30BAA24A394B12CAC0E44
:10184000BD1EAA0DBB1D11968C9121503109D601E8
:10185000119628153905F4F0F60180836D01DBCF70
:10186000B12CA12CA0CFF701B1937F01A150AACF39
:101870009111B0CFD601942F50E302C05D939150E7
:101880009111FCCFC40ED11C40E0ACCF01E0BACF27
:1018900080E3DBCF6217730731F4963388F4953316
:1018A00011F4552369F0F6018083FD01842F90E245
:1018B000811108C0A40FB11D1C9290E080E002CFFE
:1018C00081E3F1CF91938150F3CF911183CF8ACFF0
:1018D000283008F027E03327DA01990F311D87FD02
:1018E000916000966105710539F432602E5F3D9379
:1018F00030E32A95E1F708959F3F30F08038710575
:10190000610509F03C5F3C5F3D93913008F08068D1
:10191000911DDF93CF931F930F93FF92EF92192F97
:10192000987F9695E92F96959695E90FFF27EE53A8
:10193000FF4F99273327EE24FF24A701E7010590E5
:101940000894079428F4360FE71EF81E491F511D0E
:10195000660F771F881F991F0694A1F705900794BB
:1019600028F4E70EF81E491F561FC11D770F881F68
:10197000991F661F0694A1F70590079428F4F80EA6
:10198000491F561FC71FD11D880F991F661F771F3C
:101990000694A1F70590079420F4490F561FC71F1E
:1019A000D81F990F661F771F881F0694A9F7849187
:1019B0001095177041F0D695C79557954795F794B0
:1019C000E7941A95C1F7E8E6F0E068941590159150
:1019D00035916591959105907FE27395E118F10A33
:1019E000430B560BC90BD009C0F7E10CF11E431F86
:1019F000561FC91FD01D7EF4703311F48A95E6CFAF
:101A0000E894015030F0080F0AF40027021708F498
:101A1000202F2395022F7A3328F079E37D932A959E
:101A2000E9F710C07D932A9589F6069497956795F6
:101A3000379517951794E118F10A430B560BC90B0C
:101A4000D00998F023957E9173957A3308F070E36E
:101A50007C932013B8F77E9170617D9330F083956D
:101A600071E37D9370E32A95E1F71124EF90FF90E5
:101A70000F911F91CF91DF91992787FD9095089540
:101A80002F923F924F925F926F927F928F929F928E
:101A9000AF92BF92CF92DF92EF92FF920F931F937C
:101AA000CF93DF93CDB7DEB7CA1BDB0B0FB6F8942D
:101AB000DEBF0FBECDBF09942A88398848885F846D
:101AC0006E847D848C849B84AA84B984C884DF80DE
:101AD000EE80FD800C811B81AA81B981CE0FD11DC2
:101AE0000FB6F894DEBF0FBECDBFED01089550587C
:101AF000BB27AA270E948F0D0C94020F0E94F40EA0
:101B000038F00E94FB0E20F039F49F3F19F426F4C0
:101B10000C94F10E0EF4E095E7FB0C94EB0EE92F1C
:101B20000E94130F58F3BA176207730784079507CB
:101B300020F079F4A6F50C94350F0EF4E0950B2EF9
:101B4000BA2FA02D0B01B90190010C01CA01A0010F
:101B50001124FF27591B99F0593F50F4503E68F16A
:101B60001A16F040A22F232F342F4427585FF3CFAB
:101B7000469537952795A795F0405395C9F77EF47C
:101B80001F16BA0B620B730B840BBAF09150A1F0C5
:101B9000FF0FBB1F661F771F881FC2F70EC0BA0F4B
:101BA000621F731F841F48F4879577956795B795D3
:101BB000F7959E3F08F0B0CF9395880F08F09927CE
:101BC000EE0F9795879508950E94C70E08F481E05F
:101BD00008950E94FD0D0C94020F0E94FB0E58F018
:101BE0000E94F40E40F029F45F3F29F00C94EB0EB4
:101BF00051110C94360F0C94F10E0E94130F68F3E0
:101C00009923B1F3552391F3951B550BBB27AA27B5
:101C100062177307840738F09F5F5F4F220F331FEF
:101C2000441FAA1FA9F335D00E2E3AF0E0E832D0B7
:101C300091505040E695001CCAF72BD0FE2F29D0BA
:101C4000660F771F881FBB1F261737074807AB078C
:101C5000B0E809F0BB0B802DBF01FF2793585F4F01
:101C60003AF09E3F510578F00C94EB0E0C94360F31
:101C70005F3FE4F3983ED4F3869577956795B795E3
:101C8000F7959F5FC9F7880F911D9695879597F9EE
:101C90000895E1E0660F771F881FBB1F6217730767
:101CA0008407BA0720F0621B730B840BBA0BEE1F7C
:101CB00088F7E09508950E941B0F88F09F5798F0D1
:101CC000B92F9927B751B0F0E1F0660F771F881F41
:101CD000991F1AF0BA95C9F714C0B13091F00E945B
:101CE000350FB1E008950C94350F672F782F8827B2
:101CF000B85F39F0B93FCCF3869577956795B39582
:101D0000D9F73EF490958095709561957F4F8F4FF0
:101D10009F4F0895E89409C097FB3EF490958095F5
:101D2000709561957F4F8F4F9F4F9923A9F0F92FA1
:101D300096E9BB279395F695879577956795B7951F
:101D4000F111F8CFFAF4BB0F11F460FF1BC06F5F05
:101D50007F4F8F4F9F4F16C0882311F096E911C017
:101D6000772321F09EE8872F762F05C0662371F038
:101D700096E8862F70E060E02AF09A95660F771F4C
:101D8000881FDAF7880F9695879597F90895990F28
:101D90000008550FAA0BE0E8FEEF16161706E80735
:101DA000F907C0F012161306E407F50798F0621B56
:101DB000730B840B950B39F40A2661F0232B242B2B
:101DC000252B21F408950A2609F4A140A6958FEF4A
:101DD000811D811D089597F99F6780E870E060E09C
:101DE00008959FEF80EC089500240A9416161706B4
:101DF00018060906089500240A94121613061406FC
:101E000005060895092E0394000C11F4882352F05E
:101E1000BB0F40F4BF2B11F460FF04C06F5F7F4F16
:101E20008F4F9F4F089557FD9058440F551F59F0FD
:101E30005F3F71F04795880F97FB991F61F09F3FB7
:101E400079F087950895121613061406551FF2CFE0
:101E50004695F1DF08C0161617061806991FF1CF30
:101E600086957105610508940895E894BB27662757
:101E70007727CB0197F908950E94C70E08F48FEFDA
:101E800008950E94540F0C94020F0E94F40E38F033
:101E90000E94FB0E20F0952311F00C94EB0E0C9495
:101EA000F10E11240C94360F0E94130F70F3959FBE
:101EB000C1F3950F50E0551F629FF001729FBB2741
:101EC000F00DB11D639FAA27F00DB11DAA1F649FDD
:101ED0006627B00DA11D661F829F2227B00DA11D90
:101EE000621F739FB00DA11D621F839FA00D611D16
:101EF000221F749F3327A00D611D231F849F600D37
:101F0000211D822F762F6A2F11249F5750409AF05F
:101F1000F1F088234AF0EE0FFF1FBB1F661F771FEB
:101F2000881F91505040A9F79E3F510580F00C94B6
:101F3000EB0E0C94360F5F3FE4F3983ED4F3869596
:101F400077956795B795F795E7959F5FC1F7FE2B56
:101F5000880F911D9695879597F908950E94C70E51
:101F6000880B990B0895A1E21A2EAA1BBB1BFD0139
:101F70000DC0AA1FBB1FEE1FFF1FA217B307E40768
:101F8000F50720F0A21BB30BE40BF50B661F771FC0
:101F9000881F991F1A9469F76095709580959095A0
:101FA0009B01AC01BD01CF010895EE0FFF1F05900D
:101FB000F491E02D0994AEE0B0E0E1EEFFE00C9486
:101FC0004E0D0D891E8986E08C831A8309838FEF5D
:101FD0009FE79E838D83AE01475E5F4F6F89788D4B
:101FE000CE0101960E94FE0F2F813885020F131F2C
:101FF000F80110822E96E4E00C946A0DABE0B0E09C
:10200000E4E0F0E10C94400D7C013B018A01FC010D
:1020100017821682838181FFC8C1CE0101965C01BF
:10202000F7019381F30193FD859193FF81913F0126
:10203000882309F453C1853239F493FD859193FFC8
:1020400081913F01853229F4B70190E00E94EE11A1
:10205000E7CF912C212C312CFFE1F31538F08B3296
:1020600011F190F4803209F1833229F137FC3CC040
:1020700020ED280F2A3050F536FE20C08AE0989EC9
:10208000200D1124922E06C08D3291F0803371F70D
:10209000689430F8F30193FD859193FF81913F019E
:1020A0008111DACF21C0689431F8689432F8F2CF08
:1020B000689433F8EFCF689434F8ECCFEAE02E9EC2
:1020C000200D1124222E689435F8E4CF8E3229F4A5
:1020D00036FC04C1689436F8DDCF8C3619F4689468
:1020E00037F8D8CF8836B1F2982F9F7D955493302A
:1020F000E0F08336A1F18337C1F1833509F063C085
:102100002801F2E04F0E511CF801C080D180692DEA
:1021100070E036FC02C06FEF7FEFC6010E94D8115D
:102120004C01689437F882010AC00C5F1F4FFFE32F
:10213000F98388248394912C6501E89437F833FE61
:102140002DC0522C8114910471F5552009F468CFEB
:10215000B70180E290E00E94EE115A94F6CFF801A8
:10216000808189830E5F1F4FE4CF2801F2E04F0E7C
:10217000511CF801C080D180692D70E036FC02C08E
:102180006FEF7FEFC6010E94E3114C018201D5CFB2
:10219000B70180E290E00E94EE112A9428141904FD
:1021A00009F0B0F7CECFF60137FC859137FE81916B
:1021B0006F01B70190E00E94EE1151105A94F1E0C6
:1021C0008F1A9108BFCF843619F0893609F077C08D
:1021D000F80137FE6BC060817181828193810C5F51
:1021E0001F4FF32DFF763F2E97FF09C090958095E6
:1021F000709561957F4F8F4F9F4F689437F82AE015
:1022000030E0A5010E941E12C82ECA188C2C432C47
:1022100036FE0CC0E89440F8C91440F434FE05C002
:1022200032FC03C0F32DFE7E4F2E892C44FE95C058
:10223000FE01EC0DF11D8081803309F087C0242D53
:10224000297E422E842D8870582E43FC95C040FE76
:102250008FC09C2C821418F42C0C922C981844FEDD
:1022600091C0B70180E390E00E94EE1142FE09C0E8
:1022700088E790E041FE02C088E590E0B7010E9447
:10228000EE11C91408F48AC0CA94D12C9FEFC91A60
:10229000D90ACA0CDB1CF60182916F01B70190E0EC
:1022A0000E94EE11AC14BD04B1F74FCF6081718173
:1022B000072E000C880B990B0E5F1F4F92CFD32C6B
:1022C000E894D4F82AE030E0853739F1232D297FCE
:1022D000D22E8F3601F148F48835A9F0F7018681B6
:1022E00097812B96E2E10C945C0D803749F088379A
:1022F000A9F7D4FE02C06894D2F820E130E00DC006
:102300006894D4F8F6CF34FE03C0822F8660D82EAE
:1023100020E132E002C028E030E0F801D7FE0FC033
:1023200060817181828193810C5F1F4FA5010E94A2
:102330001E12C82ECA183D2CE89437F867CF60816A
:10234000718190E080E00E5F1F4FF0CF42FC02C031
:10235000839478CF8394839475CF842D867809F401
:1023600071CFF6CFB70180E290E00E94EE11839426
:102370008214C0F3512C73CF522C5818821408F4D5
:102380006ECFF8CF842D867809F47BCF8BE241FEA7
:1023900080E247FC8DE2B70190E071CFB70180E3A6
:1023A00090E00E94EE119A946CCF8FEF9FEF99CF3F
:1023B000FC010590615070400110D8F78095909510
:1023C0008E0F9F1F0895FC01615070400190011015
:1023D000D8F7809590958E0F9F1F08950F931F93A8
:1023E000CF93DF93182F092FEB018B8181FD09C05B
:1023F0001FEF0FEF812F902FDF91CF911F910F9142
:10240000089582FF14C02E813F818C819D81281701
:1024100039073CF4E881F981CF01019699838883DB
:1024200010838E819F8101969F838E83E3CFE88501
:10243000F985812F0995892BA1F3DACFFA01AA2713
:10244000283051F1203181F1E8946F936E7F6E5FF7
:102450007F4F8F4F9F4FAF4FB1E03ED0B4E03CD0A5
:10246000670F781F891F9A1FA11D680F791F8A1F88
:10247000911DA11D6A0F711D811D911DA11D20D0EF
:1024800009F468943F912AE0269F11243019305DA9
:102490003193DEF6CF010895462F4770405D41939A
:1024A000B3E00FD0C9F7F6CF462F4F70405D4A33E7
:1024B00018F0495D31FD4052419302D0A9F7EACFAF
:1024C000B4E0A6959795879577956795BA95C9F7DE
:1024D00000976105710508959B01AC010A2E0694D1
:1024E0005795479537952795BA95C9F7620F731F8A
:0C24F000841F951FA01D0895F894FFCFD5
:1024FC0000000000A10101012E01EE015F013D0170
:10250C005101000000003C030F036504E5020803C1
:10251C00F502E602000000005D040101650464049C
:10252C0009006E616E00696E66006F7666000D0ABA
:0A253C000025732025750020000023
:00000001FF
